{
  "_format": "hh-sol-artifact-1",
  "contractName": "ERC20Bridge",
  "sourceName": "contracts/Bridge.sol",
  "abi": [
    {
      "anonymous": false,
      "inputs": [
        {
          "indexed": false,
          "internalType": "bytes32",
          "name": "bridgeLock",
          "type": "bytes32"
        }
      ],
      "name": "CoinBridged",
      "type": "event"
    },
    {
      "anonymous": false,
      "inputs": [
        {
          "indexed": false,
          "internalType": "address",
          "name": "newContract",
          "type": "address"
        }
      ],
      "name": "CoinContractAdded",
      "type": "event"
    },
    {
      "anonymous": false,
      "inputs": [
        {
          "indexed": false,
          "internalType": "bytes32",
          "name": "bridgeLock",
          "type": "bytes32"
        }
      ],
      "name": "CoinRefundLocked",
      "type": "event"
    },
    {
      "anonymous": false,
      "inputs": [
        {
          "indexed": false,
          "internalType": "bytes32",
          "name": "bridgeLock",
          "type": "bytes32"
        }
      ],
      "name": "CoinRefunded",
      "type": "event"
    },
    {
      "anonymous": false,
      "inputs": [
        {
          "indexed": false,
          "internalType": "bytes32",
          "name": "bridgeLock",
          "type": "bytes32"
        }
      ],
      "name": "CoinReleased",
      "type": "event"
    },
    {
      "anonymous": false,
      "inputs": [
        {
          "indexed": false,
          "internalType": "address",
          "name": "destContract",
          "type": "address"
        },
        {
          "indexed": false,
          "internalType": "address",
          "name": "sourceContract",
          "type": "address"
        }
      ],
      "name": "DestContractDeployed",
      "type": "event"
    },
    {
      "anonymous": false,
      "inputs": [
        {
          "indexed": true,
          "internalType": "address",
          "name": "previousOwner",
          "type": "address"
        },
        {
          "indexed": true,
          "internalType": "address",
          "name": "newOwner",
          "type": "address"
        }
      ],
      "name": "OwnershipTransferred",
      "type": "event"
    },
    {
      "inputs": [
        {
          "internalType": "address",
          "name": "_contract",
          "type": "address"
        }
      ],
      "name": "addCoin",
      "outputs": [],
      "stateMutability": "nonpayable",
      "type": "function"
    },
    {
      "inputs": [
        {
          "internalType": "bytes32",
          "name": "_bridgeLockId",
          "type": "bytes32"
        },
        {
          "internalType": "address",
          "name": "_sourceErc20Contract",
          "type": "address"
        },
        {
          "internalType": "uint256",
          "name": "_amount",
          "type": "uint256"
        },
        {
          "internalType": "bytes32",
          "name": "_hashlock",
          "type": "bytes32"
        }
      ],
      "name": "addRelease",
      "outputs": [],
      "stateMutability": "nonpayable",
      "type": "function"
    },
    {
      "inputs": [
        {
          "internalType": "address",
          "name": "_erc20Contract",
          "type": "address"
        },
        {
          "internalType": "uint256",
          "name": "_amount",
          "type": "uint256"
        },
        {
          "internalType": "bytes32",
          "name": "_hashlock",
          "type": "bytes32"
        }
      ],
      "name": "bridgeCoin",
      "outputs": [],
      "stateMutability": "nonpayable",
      "type": "function"
    },
    {
      "inputs": [
        {
          "internalType": "address",
          "name": "_sourceErc20Contract",
          "type": "address"
        },
        {
          "internalType": "string",
          "name": "_coinName",
          "type": "string"
        },
        {
          "internalType": "string",
          "name": "_coinDenom",
          "type": "string"
        }
      ],
      "name": "deployDestErc20",
      "outputs": [],
      "stateMutability": "nonpayable",
      "type": "function"
    },
    {
      "inputs": [],
      "name": "getAvailableCoins",
      "outputs": [
        {
          "internalType": "address[]",
          "name": "",
          "type": "address[]"
        }
      ],
      "stateMutability": "view",
      "type": "function"
    },
    {
      "inputs": [
        {
          "internalType": "bytes32",
          "name": "_bridgeLockId",
          "type": "bytes32"
        }
      ],
      "name": "getBridgeLock",
      "outputs": [
        {
          "internalType": "address",
          "name": "erc20Contract",
          "type": "address"
        },
        {
          "internalType": "address",
          "name": "sender",
          "type": "address"
        },
        {
          "internalType": "uint256",
          "name": "amount",
          "type": "uint256"
        },
        {
          "internalType": "bytes32",
          "name": "hashlock",
          "type": "bytes32"
        },
        {
          "internalType": "bool",
          "name": "withdrawn",
          "type": "bool"
        },
        {
          "internalType": "bool",
          "name": "refunded",
          "type": "bool"
        },
        {
          "internalType": "bytes32",
          "name": "preimage",
          "type": "bytes32"
        }
      ],
      "stateMutability": "view",
      "type": "function"
    },
    {
      "inputs": [
        {
          "internalType": "bytes32",
          "name": "_bridgeLockId",
          "type": "bytes32"
        }
      ],
      "name": "lockBridge",
      "outputs": [],
      "stateMutability": "nonpayable",
      "type": "function"
    },
    {
      "inputs": [],
      "name": "owner",
      "outputs": [
        {
          "internalType": "address",
          "name": "",
          "type": "address"
        }
      ],
      "stateMutability": "view",
      "type": "function"
    },
    {
      "inputs": [
        {
          "internalType": "bytes32",
          "name": "_bridgeLockId",
          "type": "bytes32"
        }
      ],
      "name": "refund",
      "outputs": [],
      "stateMutability": "nonpayable",
      "type": "function"
    },
    {
      "inputs": [
        {
          "internalType": "address",
          "name": "_receiver",
          "type": "address"
        },
        {
          "internalType": "bytes32",
          "name": "_bridgeLockId",
          "type": "bytes32"
        },
        {
          "internalType": "bytes32",
          "name": "_preimage",
          "type": "bytes32"
        }
      ],
      "name": "releaseCoin",
      "outputs": [],
      "stateMutability": "nonpayable",
      "type": "function"
    },
    {
      "inputs": [],
      "name": "renounceOwnership",
      "outputs": [],
      "stateMutability": "nonpayable",
      "type": "function"
    },
    {
      "inputs": [
        {
          "internalType": "address",
          "name": "newOwner",
          "type": "address"
        }
      ],
      "name": "transferOwnership",
      "outputs": [],
      "stateMutability": "nonpayable",
      "type": "function"
    }
  ],
  "bytecode": "0x60806040523480156200001157600080fd5b5062000032620000266200003860201b60201c565b6200004060201b60201c565b62000104565b600033905090565b60008060009054906101000a900473ffffffffffffffffffffffffffffffffffffffff169050816000806101000a81548173ffffffffffffffffffffffffffffffffffffffff021916908373ffffffffffffffffffffffffffffffffffffffff1602179055508173ffffffffffffffffffffffffffffffffffffffff168173ffffffffffffffffffffffffffffffffffffffff167f8be0079c531659141344cd1fd0a4f28419497f9722a3daafe3b4186f6b6457e060405160405180910390a35050565b6155cd80620001146000396000f3fe60806040523480156200001157600080fd5b5060043610620000c45760003560e01c80637249fbb6116200007b5780637249fbb614620001915780638da5cb5b14620001b1578063a692647714620001d3578063ee1c268214620001f3578063f2fde38b1462000213578063ff40309f146200023357620000c4565b806303fcd58014620000c957806316da863214620000e95780633572259e146200010957806335adfd92146200012957806348cd04211462000149578063715018a61462000185575b600080fd5b620000e76004803603810190620000e1919062002275565b62000255565b005b6200010760048036038101906200010191906200216b565b62000992565b005b6200012760048036038101906200012191906200234f565b62000b44565b005b620001476004803603810190620001419190620022f7565b62000dcb565b005b620001676004803603810190620001619190620022f7565b62001091565b6040516200017c97969594939291906200295a565b60405180910390f35b6200018f6200118d565b005b620001af6004803603810190620001a99190620022f7565b6200121e565b005b620001bb62001541565b604051620001ca9190620028d3565b60405180910390f35b620001f16004803603810190620001eb9190620021ed565b6200156a565b005b6200021160048036038101906200020b919062002197565b6200189d565b005b6200023160048036038101906200022b91906200216b565b62001d23565b005b6200023d62001e27565b6040516200024c919062002a04565b60405180910390f35b600082116200029b576040517f08c379a0000000000000000000000000000000000000000000000000000000008152600401620002929062002ca0565b60405180910390fd5b600073ffffffffffffffffffffffffffffffffffffffff16600560008573ffffffffffffffffffffffffffffffffffffffff1673ffffffffffffffffffffffffffffffffffffffff16815260200190815260200160002060009054906101000a900473ffffffffffffffffffffffffffffffffffffffff1673ffffffffffffffffffffffffffffffffffffffff16148015620003c25750600073ffffffffffffffffffffffffffffffffffffffff16600660008573ffffffffffffffffffffffffffffffffffffffff1673ffffffffffffffffffffffffffffffffffffffff16815260200190815260200160002060009054906101000a900473ffffffffffffffffffffffffffffffffffffffff1673ffffffffffffffffffffffffffffffffffffffff16145b62000404576040517f08c379a0000000000000000000000000000000000000000000000000000000008152600401620003fb9062002bb2565b60405180910390fd5b818373ffffffffffffffffffffffffffffffffffffffff1663dd62ed3e33306040518363ffffffff1660e01b815260040162000442929190620028f0565b60206040518083038186803b1580156200045b57600080fd5b505afa15801562000470573d6000803e3d6000fd5b505050506040513d601f19601f82011682018060405250810190620004969190620023bb565b1015620004da576040517f08c379a0000000000000000000000000000000000000000000000000000000008152600401620004d19062002bd4565b60405180910390fd5b6000600233858585604051602001620004f7949392919062002847565b604051602081830303815290604052604051620005159190620028ba565b602060405180830381855afa15801562000533573d6000803e3d6000fd5b5050506040513d601f19601f8201168201806040525081019062000558919062002323565b9050620005658162001eb7565b15620005a8576040517f08c379a00000000000000000000000000000000000000000000000000000000081526004016200059f9062002c3a565b60405180910390fd5b600073ffffffffffffffffffffffffffffffffffffffff16600560008673ffffffffffffffffffffffffffffffffffffffff1673ffffffffffffffffffffffffffffffffffffffff16815260200190815260200160002060009054906101000a900473ffffffffffffffffffffffffffffffffffffffff1673ffffffffffffffffffffffffffffffffffffffff1614620007e9578373ffffffffffffffffffffffffffffffffffffffff166323b872dd3330866040518463ffffffff1660e01b81526004016200067b939291906200291d565b602060405180830381600087803b1580156200069657600080fd5b505af1158015620006ab573d6000803e3d6000fd5b505050506040513d601f19601f82011682018060405250810190620006d19190620022cb565b62000713576040517f08c379a00000000000000000000000000000000000000000000000000000000081526004016200070a9062002c5c565b60405180910390fd5b8373ffffffffffffffffffffffffffffffffffffffff16639dc29fac33856040518363ffffffff1660e01b815260040162000750929190620029d7565b602060405180830381600087803b1580156200076b57600080fd5b505af115801562000780573d6000803e3d6000fd5b505050506040513d601f19601f82011682018060405250810190620007a69190620022cb565b620007e8576040517f08c379a0000000000000000000000000000000000000000000000000000000008152600401620007df9062002c5c565b60405180910390fd5b5b6040518060e001604052808573ffffffffffffffffffffffffffffffffffffffff1681526020013373ffffffffffffffffffffffffffffffffffffffff1681526020018481526020018381526020016000151581526020016000151581526020016000801b8152506003600083815260200190815260200160002060008201518160000160006101000a81548173ffffffffffffffffffffffffffffffffffffffff021916908373ffffffffffffffffffffffffffffffffffffffff16021790555060208201518160010160006101000a81548173ffffffffffffffffffffffffffffffffffffffff021916908373ffffffffffffffffffffffffffffffffffffffff160217905550604082015181600201556060820151816003015560808201518160040160006101000a81548160ff02191690831515021790555060a08201518160040160016101000a81548160ff02191690831515021790555060c082015181600501559050507fb2f309809a4fc51a68e04ac2f5328b8d78a3bb74f6616e8bc5958b75e215d5608160405162000984919062002a28565b60405180910390a150505050565b6200099c62001f26565b73ffffffffffffffffffffffffffffffffffffffff16620009bc62001541565b73ffffffffffffffffffffffffffffffffffffffff161462000a15576040517f08c379a000000000000000000000000000000000000000000000000000000000815260040162000a0c9062002bf6565b60405180910390fd5b600260008273ffffffffffffffffffffffffffffffffffffffff1673ffffffffffffffffffffffffffffffffffffffff16815260200190815260200160002060009054906101000a900460ff161562000aa5576040517f08c379a000000000000000000000000000000000000000000000000000000000815260040162000a9c9062002c18565b60405180910390fd5b6001819080600181540180825580915050600190039060005260206000200160009091909190916101000a81548173ffffffffffffffffffffffffffffffffffffffff021916908373ffffffffffffffffffffffffffffffffffffffff1602179055507f06452172ed60e129f27dd6ecdf5177efe9a2ca42e02008958ffbcbf6a96858038160405162000b399190620028d3565b60405180910390a150565b62000b4e62001f26565b73ffffffffffffffffffffffffffffffffffffffff1662000b6e62001541565b73ffffffffffffffffffffffffffffffffffffffff161462000bc7576040517f08c379a000000000000000000000000000000000000000000000000000000000815260040162000bbe9062002bf6565b60405180910390fd5b62000bd28462001f2e565b1562000c15576040517f08c379a000000000000000000000000000000000000000000000000000000000815260040162000c0c9062002b2a565b60405180910390fd5b600073ffffffffffffffffffffffffffffffffffffffff16600560008573ffffffffffffffffffffffffffffffffffffffff1673ffffffffffffffffffffffffffffffffffffffff16815260200190815260200160002060009054906101000a900473ffffffffffffffffffffffffffffffffffffffff1673ffffffffffffffffffffffffffffffffffffffff16141562000ce7576040517f08c379a000000000000000000000000000000000000000000000000000000000815260040162000cde9062002b6e565b60405180910390fd5b6040518060a001604052808473ffffffffffffffffffffffffffffffffffffffff1681526020018381526020018281526020016000801b8152602001600015158152506004600086815260200190815260200160002060008201518160000160006101000a81548173ffffffffffffffffffffffffffffffffffffffff021916908373ffffffffffffffffffffffffffffffffffffffff16021790555060208201518160010155604082015181600201556060820151816003015560808201518160040160006101000a81548160ff02191690831515021790555090505050505050565b62000dd562001f26565b73ffffffffffffffffffffffffffffffffffffffff1662000df562001541565b73ffffffffffffffffffffffffffffffffffffffff161462000e4e576040517f08c379a000000000000000000000000000000000000000000000000000000000815260040162000e459062002bf6565b60405180910390fd5b8062000e5a8162001eb7565b62000e9c576040517f08c379a000000000000000000000000000000000000000000000000000000000815260040162000e939062002b08565b60405180910390fd5b813373ffffffffffffffffffffffffffffffffffffffff166003600083815260200190815260200160002060010160009054906101000a900473ffffffffffffffffffffffffffffffffffffffff1673ffffffffffffffffffffffffffffffffffffffff161462000f44576040517f08c379a000000000000000000000000000000000000000000000000000000000815260040162000f3b9062002c7e565b60405180910390fd5b600015156003600083815260200190815260200160002060040160019054906101000a900460ff1615151462000fb1576040517f08c379a000000000000000000000000000000000000000000000000000000000815260040162000fa89062002b90565b60405180910390fd5b600015156003600083815260200190815260200160002060040160009054906101000a900460ff161515146200101e576040517f08c379a0000000000000000000000000000000000000000000000000000000008152600401620010159062002ae6565b60405180910390fd5b600060036000858152602001908152602001600020905060018160040160016101000a81548160ff0219169083151502179055507f1f4f67c737eeba13476cae0a3f4c79312ea1ba6d1b58cb0b4f10c87354a461c78460405162001083919062002a28565b60405180910390a150505050565b6000806000806000806000801515620010aa8962001eb7565b15151415620010de5760008060008060008060008360001b93508060001b9050965096509650965096509650965062001182565b6000600360008a815260200190815260200160002090508060000160009054906101000a900473ffffffffffffffffffffffffffffffffffffffff168160010160009054906101000a900473ffffffffffffffffffffffffffffffffffffffff16826002015483600301548460040160009054906101000a900460ff168560040160019054906101000a900460ff1686600501549750975097509750975097509750505b919395979092949650565b6200119762001f26565b73ffffffffffffffffffffffffffffffffffffffff16620011b762001541565b73ffffffffffffffffffffffffffffffffffffffff161462001210576040517f08c379a0000000000000000000000000000000000000000000000000000000008152600401620012079062002bf6565b60405180910390fd5b6200121c600062001f9d565b565b806200122a8162001eb7565b6200126c576040517f08c379a0000000000000000000000000000000000000000000000000000000008152600401620012639062002b08565b60405180910390fd5b813373ffffffffffffffffffffffffffffffffffffffff166003600083815260200190815260200160002060010160009054906101000a900473ffffffffffffffffffffffffffffffffffffffff1673ffffffffffffffffffffffffffffffffffffffff161462001314576040517f08c379a00000000000000000000000000000000000000000000000000000000081526004016200130b9062002c7e565b60405180910390fd5b600015156003600083815260200190815260200160002060040160019054906101000a900460ff1615151462001381576040517f08c379a0000000000000000000000000000000000000000000000000000000008152600401620013789062002b90565b60405180910390fd5b600015156003600083815260200190815260200160002060040160009054906101000a900460ff16151514620013ee576040517f08c379a0000000000000000000000000000000000000000000000000000000008152600401620013e59062002ae6565b60405180910390fd5b600060036000858152602001908152602001600020905060018160040160016101000a81548160ff0219169083151502179055508060000160009054906101000a900473ffffffffffffffffffffffffffffffffffffffff1673ffffffffffffffffffffffffffffffffffffffff1663a9059cbb8260010160009054906101000a900473ffffffffffffffffffffffffffffffffffffffff1683600201546040518363ffffffff1660e01b8152600401620014ab929190620029d7565b602060405180830381600087803b158015620014c657600080fd5b505af1158015620014db573d6000803e3d6000fd5b505050506040513d601f19601f82011682018060405250810190620015019190620022cb565b507f5906303ded2714a43bf06bc52063b24c4ffe77cb4fc639978fce34d971c928ff8460405162001533919062002a28565b60405180910390a150505050565b60008060009054906101000a900473ffffffffffffffffffffffffffffffffffffffff16905090565b6200157462001f26565b73ffffffffffffffffffffffffffffffffffffffff166200159462001541565b73ffffffffffffffffffffffffffffffffffffffff1614620015ed576040517f08c379a0000000000000000000000000000000000000000000000000000000008152600401620015e49062002bf6565b60405180910390fd5b600073ffffffffffffffffffffffffffffffffffffffff16600560008573ffffffffffffffffffffffffffffffffffffffff1673ffffffffffffffffffffffffffffffffffffffff16815260200190815260200160002060009054906101000a900473ffffffffffffffffffffffffffffffffffffffff1673ffffffffffffffffffffffffffffffffffffffff1614620016be576040517f08c379a0000000000000000000000000000000000000000000000000000000008152600401620016b59062002ac4565b60405180910390fd5b60008282604051620016d09062002061565b620016dd92919062002a45565b604051809103906000f080158015620016fa573d6000803e3d6000fd5b50905080600560008673ffffffffffffffffffffffffffffffffffffffff1673ffffffffffffffffffffffffffffffffffffffff16815260200190815260200160002060006101000a81548173ffffffffffffffffffffffffffffffffffffffff021916908373ffffffffffffffffffffffffffffffffffffffff16021790555083600660008373ffffffffffffffffffffffffffffffffffffffff1673ffffffffffffffffffffffffffffffffffffffff16815260200190815260200160002060006101000a81548173ffffffffffffffffffffffffffffffffffffffff021916908373ffffffffffffffffffffffffffffffffffffffff1602179055506001819080600181540180825580915050600190039060005260206000200160009091909190916101000a81548173ffffffffffffffffffffffffffffffffffffffff021916908373ffffffffffffffffffffffffffffffffffffffff1602179055507f646af9df90ec3a942fc85e6baf31e0d41a2786ba1afbd1e8e3c1ae5141b2c14181856040516200188f929190620028f0565b60405180910390a150505050565b81620018a98162001f2e565b620018eb576040517f08c379a0000000000000000000000000000000000000000000000000000000008152600401620018e29062002b4c565b60405180910390fd5b82826002816040516020016200190291906200289d565b604051602081830303815290604052604051620019209190620028ba565b602060405180830381855afa1580156200193e573d6000803e3d6000fd5b5050506040513d601f19601f8201168201806040525081019062001963919062002323565b600460008481526020019081526020016000206002015414620019bd576040517f08c379a0000000000000000000000000000000000000000000000000000000008152600401620019b49062002cc2565b60405180910390fd5b84600015156004600083815260200190815260200160002060040160009054906101000a900460ff1615151462001a2b576040517f08c379a000000000000000000000000000000000000000000000000000000000815260040162001a229062002a80565b60405180910390fd5b600060046000888152602001908152602001600020905085816003018190555060018160040160006101000a81548160ff0219169083151502179055506000600560008360000160009054906101000a900473ffffffffffffffffffffffffffffffffffffffff1673ffffffffffffffffffffffffffffffffffffffff1673ffffffffffffffffffffffffffffffffffffffff16815260200190815260200160002060009054906101000a900473ffffffffffffffffffffffffffffffffffffffff169050600073ffffffffffffffffffffffffffffffffffffffff168173ffffffffffffffffffffffffffffffffffffffff161462001bc3578073ffffffffffffffffffffffffffffffffffffffff166340c10f198a84600101546040518363ffffffff1660e01b815260040162001b66929190620029d7565b602060405180830381600087803b15801562001b8157600080fd5b505af115801562001b96573d6000803e3d6000fd5b505050506040513d601f19601f8201168201806040525081019062001bbc9190620022cb565b5062001cdf565b600660008360000160009054906101000a900473ffffffffffffffffffffffffffffffffffffffff1673ffffffffffffffffffffffffffffffffffffffff1673ffffffffffffffffffffffffffffffffffffffff16815260200190815260200160002060009054906101000a900473ffffffffffffffffffffffffffffffffffffffff1673ffffffffffffffffffffffffffffffffffffffff1663a9059cbb8a84600101546040518363ffffffff1660e01b815260040162001c87929190620029d7565b602060405180830381600087803b15801562001ca257600080fd5b505af115801562001cb7573d6000803e3d6000fd5b505050506040513d601f19601f8201168201806040525081019062001cdd9190620022cb565b505b7fdf2ad24d6a3b882eb40dfd281b6c7b512ea9acf96c641ab86abee6b26584f4488860405162001d10919062002a28565b60405180910390a1505050505050505050565b62001d2d62001f26565b73ffffffffffffffffffffffffffffffffffffffff1662001d4d62001541565b73ffffffffffffffffffffffffffffffffffffffff161462001da6576040517f08c379a000000000000000000000000000000000000000000000000000000000815260040162001d9d9062002bf6565b60405180910390fd5b600073ffffffffffffffffffffffffffffffffffffffff168173ffffffffffffffffffffffffffffffffffffffff16141562001e19576040517f08c379a000000000000000000000000000000000000000000000000000000000815260040162001e109062002aa2565b60405180910390fd5b62001e248162001f9d565b50565b6060600180548060200260200160405190810160405280929190818152602001828054801562001ead57602002820191906000526020600020905b8160009054906101000a900473ffffffffffffffffffffffffffffffffffffffff1673ffffffffffffffffffffffffffffffffffffffff168152602001906001019080831162001e62575b5050505050905090565b60008073ffffffffffffffffffffffffffffffffffffffff166003600084815260200190815260200160002060010160009054906101000a900473ffffffffffffffffffffffffffffffffffffffff1673ffffffffffffffffffffffffffffffffffffffff1614159050919050565b600033905090565b60008073ffffffffffffffffffffffffffffffffffffffff166004600084815260200190815260200160002060000160009054906101000a900473ffffffffffffffffffffffffffffffffffffffff1673ffffffffffffffffffffffffffffffffffffffff1614159050919050565b60008060009054906101000a900473ffffffffffffffffffffffffffffffffffffffff169050816000806101000a81548173ffffffffffffffffffffffffffffffffffffffff021916908373ffffffffffffffffffffffffffffffffffffffff1602179055508173ffffffffffffffffffffffffffffffffffffffff168173ffffffffffffffffffffffffffffffffffffffff167f8be0079c531659141344cd1fd0a4f28419497f9722a3daafe3b4186f6b6457e060405160405180910390a35050565b612263806200333583390190565b600062002086620020808462002d0d565b62002ce4565b9050828152602081018484840111156200209f57600080fd5b620020ac84828562002e02565b509392505050565b600081359050620020c581620032cc565b92915050565b600081519050620020dc81620032e6565b92915050565b600081359050620020f38162003300565b92915050565b6000815190506200210a8162003300565b92915050565b600082601f8301126200212257600080fd5b8135620021348482602086016200206f565b91505092915050565b6000813590506200214e816200331a565b92915050565b60008151905062002165816200331a565b92915050565b6000602082840312156200217e57600080fd5b60006200218e84828501620020b4565b91505092915050565b600080600060608486031215620021ad57600080fd5b6000620021bd86828701620020b4565b9350506020620021d086828701620020e2565b9250506040620021e386828701620020e2565b9150509250925092565b6000806000606084860312156200220357600080fd5b60006200221386828701620020b4565b935050602084013567ffffffffffffffff8111156200223157600080fd5b6200223f8682870162002110565b925050604084013567ffffffffffffffff8111156200225d57600080fd5b6200226b8682870162002110565b9150509250925092565b6000806000606084860312156200228b57600080fd5b60006200229b86828701620020b4565b9350506020620022ae868287016200213d565b9250506040620022c186828701620020e2565b9150509250925092565b600060208284031215620022de57600080fd5b6000620022ee84828501620020cb565b91505092915050565b6000602082840312156200230a57600080fd5b60006200231a84828501620020e2565b91505092915050565b6000602082840312156200233657600080fd5b60006200234684828501620020f9565b91505092915050565b600080600080608085870312156200236657600080fd5b60006200237687828801620020e2565b94505060206200238987828801620020b4565b93505060406200239c878288016200213d565b9250506060620023af87828801620020e2565b91505092959194509250565b600060208284031215620023ce57600080fd5b6000620023de8482850162002154565b91505092915050565b6000620023f5838362002401565b60208301905092915050565b6200240c8162002dae565b82525050565b6200241d8162002dae565b82525050565b62002438620024328262002dae565b62002e7d565b82525050565b60006200244b8262002d53565b62002457818562002d81565b9350620024648362002d43565b8060005b838110156200249b5781516200247f8882620023e7565b97506200248c8362002d74565b92505060018101905062002468565b5085935050505092915050565b620024b38162002dc2565b82525050565b620024c48162002dce565b82525050565b620024df620024d98262002dce565b62002e91565b82525050565b6000620024f28262002d5e565b620024fe818562002d92565b93506200251081856020860162002e11565b80840191505092915050565b6000620025298262002d69565b62002535818562002d9d565b93506200254781856020860162002e11565b620025528162002ee8565b840191505092915050565b60006200256c601d8362002d9d565b9150620025798262002f06565b602082019050919050565b60006200259360268362002d9d565b9150620025a08262002f2f565b604082019050919050565b6000620025ba60278362002d9d565b9150620025c78262002f7e565b604082019050919050565b6000620025e1601d8362002d9d565b9150620025ee8262002fcd565b602082019050919050565b600062002608601f8362002d9d565b9150620026158262002ff6565b602082019050919050565b60006200262f60168362002d9d565b91506200263c826200301f565b602082019050919050565b600062002656602c8362002d9d565b9150620026638262003048565b604082019050919050565b60006200267d602f8362002d9d565b91506200268a8262003097565b604082019050919050565b6000620026a4601c8362002d9d565b9150620026b182620030e6565b602082019050919050565b6000620026cb60168362002d9d565b9150620026d8826200310f565b602082019050919050565b6000620026f260218362002d9d565b9150620026ff8262003138565b604082019050919050565b60006200271960208362002d9d565b9150620027268262003187565b602082019050919050565b60006200274060148362002d9d565b91506200274d82620031b0565b602082019050919050565b60006200276760158362002d9d565b91506200277482620031d9565b602082019050919050565b60006200278e60228362002d9d565b91506200279b8262003202565b604082019050919050565b6000620027b560168362002d9d565b9150620027c28262003251565b602082019050919050565b6000620027dc60188362002d9d565b9150620027e9826200327a565b602082019050919050565b600062002803601c8362002d9d565b91506200281082620032a3565b602082019050919050565b620028268162002df8565b82525050565b620028416200283b8262002df8565b62002eaf565b82525050565b600062002855828762002423565b60148201915062002867828662002423565b6014820191506200287982856200282c565b6020820191506200288b8284620024ca565b60208201915081905095945050505050565b6000620028ab8284620024ca565b60208201915081905092915050565b6000620028c88284620024e5565b915081905092915050565b6000602082019050620028ea600083018462002412565b92915050565b600060408201905062002907600083018562002412565b62002916602083018462002412565b9392505050565b600060608201905062002934600083018662002412565b62002943602083018562002412565b6200295260408301846200281b565b949350505050565b600060e08201905062002971600083018a62002412565b62002980602083018962002412565b6200298f60408301886200281b565b6200299e6060830187620024b9565b620029ad6080830186620024a8565b620029bc60a0830185620024a8565b620029cb60c0830184620024b9565b98975050505050505050565b6000604082019050620029ee600083018562002412565b620029fd60208301846200281b565b9392505050565b6000602082019050818103600083015262002a2081846200243e565b905092915050565b600060208201905062002a3f6000830184620024b9565b92915050565b6000604082019050818103600083015262002a6181856200251c565b9050818103602083015262002a7781846200251c565b90509392505050565b6000602082019050818103600083015262002a9b816200255d565b9050919050565b6000602082019050818103600083015262002abd8162002584565b9050919050565b6000602082019050818103600083015262002adf81620025ab565b9050919050565b6000602082019050818103600083015262002b0181620025d2565b9050919050565b6000602082019050818103600083015262002b2381620025f9565b9050919050565b6000602082019050818103600083015262002b458162002620565b9050919050565b6000602082019050818103600083015262002b678162002647565b9050919050565b6000602082019050818103600083015262002b89816200266e565b9050919050565b6000602082019050818103600083015262002bab8162002695565b9050919050565b6000602082019050818103600083015262002bcd81620026bc565b9050919050565b6000602082019050818103600083015262002bef81620026e3565b9050919050565b6000602082019050818103600083015262002c11816200270a565b9050919050565b6000602082019050818103600083015262002c338162002731565b9050919050565b6000602082019050818103600083015262002c558162002758565b9050919050565b6000602082019050818103600083015262002c77816200277f565b9050919050565b6000602082019050818103600083015262002c9981620027a6565b9050919050565b6000602082019050818103600083015262002cbb81620027cd565b9050919050565b6000602082019050818103600083015262002cdd81620027f4565b9050919050565b600062002cf062002d03565b905062002cfe828262002e47565b919050565b6000604051905090565b600067ffffffffffffffff82111562002d2b5762002d2a62002eb9565b5b62002d368262002ee8565b9050602081019050919050565b6000819050602082019050919050565b600081519050919050565b600081519050919050565b600081519050919050565b6000602082019050919050565b600082825260208201905092915050565b600081905092915050565b600082825260208201905092915050565b600062002dbb8262002dd8565b9050919050565b60008115159050919050565b6000819050919050565b600073ffffffffffffffffffffffffffffffffffffffff82169050919050565b6000819050919050565b82818337600083830152505050565b60005b8381101562002e3157808201518184015260208101905062002e14565b8381111562002e41576000848401525b50505050565b62002e528262002ee8565b810181811067ffffffffffffffff8211171562002e745762002e7362002eb9565b5b80604052505050565b600062002e8a8262002e9b565b9050919050565b6000819050919050565b600062002ea88262002ef9565b9050919050565b6000819050919050565b7f4e487b7100000000000000000000000000000000000000000000000000000000600052604160045260246000fd5b6000601f19601f8301169050919050565b60008160601b9050919050565b7f72656c65617361626c653a20616c72656164792077697468647261776e000000600082015250565b7f4f776e61626c653a206e6577206f776e657220697320746865207a65726f206160008201527f6464726573730000000000000000000000000000000000000000000000000000602082015250565b7f436f6e747261637420616c72656164792065786973747320666f72207468697360008201527f20736f7572636500000000000000000000000000000000000000000000000000602082015250565b7f726566756e6461626c653a20616c72656164792077697468647261776e000000600082015250565b7f62726964676554696d656c6f636b496420646f6573206e6f7420657869737400600082015250565b7f52656c6561736520616c72656164792065786973747300000000000000000000600082015250565b7f62726964676554696d656c6f636b496420646f6573206e6f742065786973742060008201527f617320612072656c656173650000000000000000000000000000000000000000602082015250565b7f44657374696e6174696f6e20636f6e7472616374206e6f74206465706c6f796560008201527f642e204465706c6f792066697273740000000000000000000000000000000000602082015250565b7f726566756e6461626c653a20616c726561647920726566756e64656400000000600082015250565b7f436f6e7472616374206e6f7420737570706f7274656400000000000000000000600082015250565b7f746f6b656e20616c6c6f77616e6365206d757374206265203e3d20616d6f756e60008201527f7400000000000000000000000000000000000000000000000000000000000000602082015250565b7f4f776e61626c653a2063616c6c6572206973206e6f7420746865206f776e6572600082015250565b7f436f6e747261637420616c726561647920736574000000000000000000000000600082015250565b7f42726964676520616c7265616479206578697374730000000000000000000000600082015250565b7f7472616e7366657246726f6d2073656e64657220746f2074686973206661696c60008201527f6564000000000000000000000000000000000000000000000000000000000000602082015250565b7f726566756e6461626c653a206e6f742073656e64657200000000000000000000600082015250565b7f746f6b656e20616d6f756e74206d757374206265203e20300000000000000000600082015250565b7f686173686c6f636b206861736820646f6573206e6f74206d6174636800000000600082015250565b620032d78162002dae565b8114620032e357600080fd5b50565b620032f18162002dc2565b8114620032fd57600080fd5b50565b6200330b8162002dce565b81146200331757600080fd5b50565b620033258162002df8565b81146200333157600080fd5b5056fe60806040523480156200001157600080fd5b506040516200226338038062002263833981810160405281019062000037919062000285565b818181600390805190602001906200005192919062000163565b5080600490805190602001906200006a92919062000163565b5050506200008d620000816200009560201b60201c565b6200009d60201b60201c565b505062000468565b600033905090565b6000600560009054906101000a900473ffffffffffffffffffffffffffffffffffffffff16905081600560006101000a81548173ffffffffffffffffffffffffffffffffffffffff021916908373ffffffffffffffffffffffffffffffffffffffff1602179055508173ffffffffffffffffffffffffffffffffffffffff168173ffffffffffffffffffffffffffffffffffffffff167f8be0079c531659141344cd1fd0a4f28419497f9722a3daafe3b4186f6b6457e060405160405180910390a35050565b82805462000171906200038d565b90600052602060002090601f016020900481019282620001955760008555620001e1565b82601f10620001b057805160ff1916838001178555620001e1565b82800160010185558215620001e1579182015b82811115620001e0578251825591602001919060010190620001c3565b5b509050620001f09190620001f4565b5090565b5b808211156200020f576000816000905550600101620001f5565b5090565b60006200022a620002248462000321565b620002f8565b9050828152602081018484840111156200024357600080fd5b6200025084828562000357565b509392505050565b600082601f8301126200026a57600080fd5b81516200027c84826020860162000213565b91505092915050565b600080604083850312156200029957600080fd5b600083015167ffffffffffffffff811115620002b457600080fd5b620002c28582860162000258565b925050602083015167ffffffffffffffff811115620002e057600080fd5b620002ee8582860162000258565b9150509250929050565b60006200030462000317565b9050620003128282620003c3565b919050565b6000604051905090565b600067ffffffffffffffff8211156200033f576200033e62000428565b5b6200034a8262000457565b9050602081019050919050565b60005b83811015620003775780820151818401526020810190506200035a565b8381111562000387576000848401525b50505050565b60006002820490506001821680620003a657607f821691505b60208210811415620003bd57620003bc620003f9565b5b50919050565b620003ce8262000457565b810181811067ffffffffffffffff82111715620003f057620003ef62000428565b5b80604052505050565b7f4e487b7100000000000000000000000000000000000000000000000000000000600052602260045260246000fd5b7f4e487b7100000000000000000000000000000000000000000000000000000000600052604160045260246000fd5b6000601f19601f8301169050919050565b611deb80620004786000396000f3fe608060405234801561001057600080fd5b50600436106101005760003560e01c8063715018a611610097578063a457c2d711610066578063a457c2d7146102c5578063a9059cbb146102f5578063dd62ed3e14610325578063f2fde38b1461035557610100565b8063715018a61461024f5780638da5cb5b1461025957806395d89b41146102775780639dc29fac1461029557610100565b8063313ce567116100d3578063313ce567146101a157806339509351146101bf57806340c10f19146101ef57806370a082311461021f57610100565b806306fdde0314610105578063095ea7b31461012357806318160ddd1461015357806323b872dd14610171575b600080fd5b61010d610371565b60405161011a919061169e565b60405180910390f35b61013d60048036038101906101389190611413565b610403565b60405161014a9190611683565b60405180910390f35b61015b610426565b6040516101689190611840565b60405180910390f35b61018b600480360381019061018691906113c4565b610430565b6040516101989190611683565b60405180910390f35b6101a961045f565b6040516101b6919061185b565b60405180910390f35b6101d960048036038101906101d49190611413565b610468565b6040516101e69190611683565b60405180910390f35b61020960048036038101906102049190611413565b610512565b6040516102169190611683565b60405180910390f35b6102396004803603810190610234919061135f565b6105a4565b6040516102469190611840565b60405180910390f35b6102576105ec565b005b610261610674565b60405161026e9190611668565b60405180910390f35b61027f61069e565b60405161028c919061169e565b60405180910390f35b6102af60048036038101906102aa9190611413565b610730565b6040516102bc9190611683565b60405180910390f35b6102df60048036038101906102da9190611413565b6107c2565b6040516102ec9190611683565b60405180910390f35b61030f600480360381019061030a9190611413565b6108ac565b60405161031c9190611683565b60405180910390f35b61033f600480360381019061033a9190611388565b6108cf565b60405161034c9190611840565b60405180910390f35b61036f600480360381019061036a919061135f565b610956565b005b606060038054610380906119a4565b80601f01602080910402602001604051908101604052809291908181526020018280546103ac906119a4565b80156103f95780601f106103ce576101008083540402835291602001916103f9565b820191906000526020600020905b8154815290600101906020018083116103dc57829003601f168201915b5050505050905090565b60008061040e610a4e565b905061041b818585610a56565b600191505092915050565b6000600254905090565b60008061043b610a4e565b9050610448858285610c21565b610453858585610cad565b60019150509392505050565b60006012905090565b600080610473610a4e565b9050610507818585600160008673ffffffffffffffffffffffffffffffffffffffff1673ffffffffffffffffffffffffffffffffffffffff16815260200190815260200160002060008973ffffffffffffffffffffffffffffffffffffffff1673ffffffffffffffffffffffffffffffffffffffff168152602001908152602001600020546105029190611892565b610a56565b600191505092915050565b600061051c610a4e565b73ffffffffffffffffffffffffffffffffffffffff1661053a610674565b73ffffffffffffffffffffffffffffffffffffffff1614610590576040517f08c379a000000000000000000000000000000000000000000000000000000000815260040161058790611780565b60405180910390fd5b61059a8383610f2e565b6001905092915050565b60008060008373ffffffffffffffffffffffffffffffffffffffff1673ffffffffffffffffffffffffffffffffffffffff168152602001908152602001600020549050919050565b6105f4610a4e565b73ffffffffffffffffffffffffffffffffffffffff16610612610674565b73ffffffffffffffffffffffffffffffffffffffff1614610668576040517f08c379a000000000000000000000000000000000000000000000000000000000815260040161065f90611780565b60405180910390fd5b610672600061108e565b565b6000600560009054906101000a900473ffffffffffffffffffffffffffffffffffffffff16905090565b6060600480546106ad906119a4565b80601f01602080910402602001604051908101604052809291908181526020018280546106d9906119a4565b80156107265780601f106106fb57610100808354040283529160200191610726565b820191906000526020600020905b81548152906001019060200180831161070957829003601f168201915b5050505050905090565b600061073a610a4e565b73ffffffffffffffffffffffffffffffffffffffff16610758610674565b73ffffffffffffffffffffffffffffffffffffffff16146107ae576040517f08c379a00000000000000000000000000000000000000000000000000000000081526004016107a590611780565b60405180910390fd5b6107b88383611154565b6001905092915050565b6000806107cd610a4e565b90506000600160008373ffffffffffffffffffffffffffffffffffffffff1673ffffffffffffffffffffffffffffffffffffffff16815260200190815260200160002060008673ffffffffffffffffffffffffffffffffffffffff1673ffffffffffffffffffffffffffffffffffffffff16815260200190815260200160002054905083811015610893576040517f08c379a000000000000000000000000000000000000000000000000000000000815260040161088a90611800565b60405180910390fd5b6108a08286868403610a56565b60019250505092915050565b6000806108b7610a4e565b90506108c4818585610cad565b600191505092915050565b6000600160008473ffffffffffffffffffffffffffffffffffffffff1673ffffffffffffffffffffffffffffffffffffffff16815260200190815260200160002060008373ffffffffffffffffffffffffffffffffffffffff1673ffffffffffffffffffffffffffffffffffffffff16815260200190815260200160002054905092915050565b61095e610a4e565b73ffffffffffffffffffffffffffffffffffffffff1661097c610674565b73ffffffffffffffffffffffffffffffffffffffff16146109d2576040517f08c379a00000000000000000000000000000000000000000000000000000000081526004016109c990611780565b60405180910390fd5b600073ffffffffffffffffffffffffffffffffffffffff168173ffffffffffffffffffffffffffffffffffffffff161415610a42576040517f08c379a0000000000000000000000000000000000000000000000000000000008152600401610a3990611700565b60405180910390fd5b610a4b8161108e565b50565b600033905090565b600073ffffffffffffffffffffffffffffffffffffffff168373ffffffffffffffffffffffffffffffffffffffff161415610ac6576040517f08c379a0000000000000000000000000000000000000000000000000000000008152600401610abd906117e0565b60405180910390fd5b600073ffffffffffffffffffffffffffffffffffffffff168273ffffffffffffffffffffffffffffffffffffffff161415610b36576040517f08c379a0000000000000000000000000000000000000000000000000000000008152600401610b2d90611720565b60405180910390fd5b80600160008573ffffffffffffffffffffffffffffffffffffffff1673ffffffffffffffffffffffffffffffffffffffff16815260200190815260200160002060008473ffffffffffffffffffffffffffffffffffffffff1673ffffffffffffffffffffffffffffffffffffffff168152602001908152602001600020819055508173ffffffffffffffffffffffffffffffffffffffff168373ffffffffffffffffffffffffffffffffffffffff167f8c5be1e5ebec7d5bd14f71427d1e84f3dd0314c0f7b2291e5b200ac8c7c3b92583604051610c149190611840565b60405180910390a3505050565b6000610c2d84846108cf565b90507fffffffffffffffffffffffffffffffffffffffffffffffffffffffffffffffff8114610ca75781811015610c99576040517f08c379a0000000000000000000000000000000000000000000000000000000008152600401610c9090611740565b60405180910390fd5b610ca68484848403610a56565b5b50505050565b600073ffffffffffffffffffffffffffffffffffffffff168373ffffffffffffffffffffffffffffffffffffffff161415610d1d576040517f08c379a0000000000000000000000000000000000000000000000000000000008152600401610d14906117c0565b60405180910390fd5b600073ffffffffffffffffffffffffffffffffffffffff168273ffffffffffffffffffffffffffffffffffffffff161415610d8d576040517f08c379a0000000000000000000000000000000000000000000000000000000008152600401610d84906116c0565b60405180910390fd5b610d9883838361132b565b60008060008573ffffffffffffffffffffffffffffffffffffffff1673ffffffffffffffffffffffffffffffffffffffff16815260200190815260200160002054905081811015610e1e576040517f08c379a0000000000000000000000000000000000000000000000000000000008152600401610e1590611760565b60405180910390fd5b8181036000808673ffffffffffffffffffffffffffffffffffffffff1673ffffffffffffffffffffffffffffffffffffffff16815260200190815260200160002081905550816000808573ffffffffffffffffffffffffffffffffffffffff1673ffffffffffffffffffffffffffffffffffffffff1681526020019081526020016000206000828254610eb19190611892565b925050819055508273ffffffffffffffffffffffffffffffffffffffff168473ffffffffffffffffffffffffffffffffffffffff167fddf252ad1be2c89b69c2b068fc378daa952ba7f163c4a11628f55a4df523b3ef84604051610f159190611840565b60405180910390a3610f28848484611330565b50505050565b600073ffffffffffffffffffffffffffffffffffffffff168273ffffffffffffffffffffffffffffffffffffffff161415610f9e576040517f08c379a0000000000000000000000000000000000000000000000000000000008152600401610f9590611820565b60405180910390fd5b610faa6000838361132b565b8060026000828254610fbc9190611892565b92505081905550806000808473ffffffffffffffffffffffffffffffffffffffff1673ffffffffffffffffffffffffffffffffffffffff16815260200190815260200160002060008282546110119190611892565b925050819055508173ffffffffffffffffffffffffffffffffffffffff16600073ffffffffffffffffffffffffffffffffffffffff167fddf252ad1be2c89b69c2b068fc378daa952ba7f163c4a11628f55a4df523b3ef836040516110769190611840565b60405180910390a361108a60008383611330565b5050565b6000600560009054906101000a900473ffffffffffffffffffffffffffffffffffffffff16905081600560006101000a81548173ffffffffffffffffffffffffffffffffffffffff021916908373ffffffffffffffffffffffffffffffffffffffff1602179055508173ffffffffffffffffffffffffffffffffffffffff168173ffffffffffffffffffffffffffffffffffffffff167f8be0079c531659141344cd1fd0a4f28419497f9722a3daafe3b4186f6b6457e060405160405180910390a35050565b600073ffffffffffffffffffffffffffffffffffffffff168273ffffffffffffffffffffffffffffffffffffffff1614156111c4576040517f08c379a00000000000000000000000000000000000000000000000000000000081526004016111bb906117a0565b60405180910390fd5b6111d08260008361132b565b60008060008473ffffffffffffffffffffffffffffffffffffffff1673ffffffffffffffffffffffffffffffffffffffff16815260200190815260200160002054905081811015611256576040517f08c379a000000000000000000000000000000000000000000000000000000000815260040161124d906116e0565b60405180910390fd5b8181036000808573ffffffffffffffffffffffffffffffffffffffff1673ffffffffffffffffffffffffffffffffffffffff1681526020019081526020016000208190555081600260008282546112ad91906118e8565b92505081905550600073ffffffffffffffffffffffffffffffffffffffff168373ffffffffffffffffffffffffffffffffffffffff167fddf252ad1be2c89b69c2b068fc378daa952ba7f163c4a11628f55a4df523b3ef846040516113129190611840565b60405180910390a361132683600084611330565b505050565b505050565b505050565b60008135905061134481611d87565b92915050565b60008135905061135981611d9e565b92915050565b60006020828403121561137157600080fd5b600061137f84828501611335565b91505092915050565b6000806040838503121561139b57600080fd5b60006113a985828601611335565b92505060206113ba85828601611335565b9150509250929050565b6000806000606084860312156113d957600080fd5b60006113e786828701611335565b93505060206113f886828701611335565b92505060406114098682870161134a565b9150509250925092565b6000806040838503121561142657600080fd5b600061143485828601611335565b92505060206114458582860161134a565b9150509250929050565b6114588161191c565b82525050565b6114678161192e565b82525050565b600061147882611876565b6114828185611881565b9350611492818560208601611971565b61149b81611a34565b840191505092915050565b60006114b3602383611881565b91506114be82611a45565b604082019050919050565b60006114d6602283611881565b91506114e182611a94565b604082019050919050565b60006114f9602683611881565b915061150482611ae3565b604082019050919050565b600061151c602283611881565b915061152782611b32565b604082019050919050565b600061153f601d83611881565b915061154a82611b81565b602082019050919050565b6000611562602683611881565b915061156d82611baa565b604082019050919050565b6000611585602083611881565b915061159082611bf9565b602082019050919050565b60006115a8602183611881565b91506115b382611c22565b604082019050919050565b60006115cb602583611881565b91506115d682611c71565b604082019050919050565b60006115ee602483611881565b91506115f982611cc0565b604082019050919050565b6000611611602583611881565b915061161c82611d0f565b604082019050919050565b6000611634601f83611881565b915061163f82611d5e565b602082019050919050565b6116538161195a565b82525050565b61166281611964565b82525050565b600060208201905061167d600083018461144f565b92915050565b6000602082019050611698600083018461145e565b92915050565b600060208201905081810360008301526116b8818461146d565b905092915050565b600060208201905081810360008301526116d9816114a6565b9050919050565b600060208201905081810360008301526116f9816114c9565b9050919050565b60006020820190508181036000830152611719816114ec565b9050919050565b600060208201905081810360008301526117398161150f565b9050919050565b6000602082019050818103600083015261175981611532565b9050919050565b6000602082019050818103600083015261177981611555565b9050919050565b6000602082019050818103600083015261179981611578565b9050919050565b600060208201905081810360008301526117b98161159b565b9050919050565b600060208201905081810360008301526117d9816115be565b9050919050565b600060208201905081810360008301526117f9816115e1565b9050919050565b6000602082019050818103600083015261181981611604565b9050919050565b6000602082019050818103600083015261183981611627565b9050919050565b6000602082019050611855600083018461164a565b92915050565b60006020820190506118706000830184611659565b92915050565b600081519050919050565b600082825260208201905092915050565b600061189d8261195a565b91506118a88361195a565b9250827fffffffffffffffffffffffffffffffffffffffffffffffffffffffffffffffff038211156118dd576118dc6119d6565b5b828201905092915050565b60006118f38261195a565b91506118fe8361195a565b925082821015611911576119106119d6565b5b828203905092915050565b60006119278261193a565b9050919050565b60008115159050919050565b600073ffffffffffffffffffffffffffffffffffffffff82169050919050565b6000819050919050565b600060ff82169050919050565b60005b8381101561198f578082015181840152602081019050611974565b8381111561199e576000848401525b50505050565b600060028204905060018216806119bc57607f821691505b602082108114156119d0576119cf611a05565b5b50919050565b7f4e487b7100000000000000000000000000000000000000000000000000000000600052601160045260246000fd5b7f4e487b7100000000000000000000000000000000000000000000000000000000600052602260045260246000fd5b6000601f19601f8301169050919050565b7f45524332303a207472616e7366657220746f20746865207a65726f206164647260008201527f6573730000000000000000000000000000000000000000000000000000000000602082015250565b7f45524332303a206275726e20616d6f756e7420657863656564732062616c616e60008201527f6365000000000000000000000000000000000000000000000000000000000000602082015250565b7f4f776e61626c653a206e6577206f776e657220697320746865207a65726f206160008201527f6464726573730000000000000000000000000000000000000000000000000000602082015250565b7f45524332303a20617070726f766520746f20746865207a65726f20616464726560008201527f7373000000000000000000000000000000000000000000000000000000000000602082015250565b7f45524332303a20696e73756666696369656e7420616c6c6f77616e6365000000600082015250565b7f45524332303a207472616e7366657220616d6f756e742065786365656473206260008201527f616c616e63650000000000000000000000000000000000000000000000000000602082015250565b7f4f776e61626c653a2063616c6c6572206973206e6f7420746865206f776e6572600082015250565b7f45524332303a206275726e2066726f6d20746865207a65726f2061646472657360008201527f7300000000000000000000000000000000000000000000000000000000000000602082015250565b7f45524332303a207472616e736665722066726f6d20746865207a65726f20616460008201527f6472657373000000000000000000000000000000000000000000000000000000602082015250565b7f45524332303a20617070726f76652066726f6d20746865207a65726f2061646460008201527f7265737300000000000000000000000000000000000000000000000000000000602082015250565b7f45524332303a2064656372656173656420616c6c6f77616e63652062656c6f7760008201527f207a65726f000000000000000000000000000000000000000000000000000000602082015250565b7f45524332303a206d696e7420746f20746865207a65726f206164647265737300600082015250565b611d908161191c565b8114611d9b57600080fd5b50565b611da78161195a565b8114611db257600080fd5b5056fea264697066735822122066545f6a94dc0f3aa765ff1737b4c22a901a067587ce851c85b42b1e5166175d64736f6c63430008040033a2646970667358221220a524f20e7297b9bff7e68e94985ed5544d83347a3f4a766fe2e21054c02cb7ba64736f6c63430008040033",
  "linkReferences": {},
  "deployedLinkReferences": {}
}