{
  "_format": "hh-sol-artifact-1",
  "contractName": "ERC20Bridge",
  "sourceName": "contracts/ERC20Bridge.sol",
  "abi": [
    {
      "inputs": [
        {
          "internalType": "uint8",
          "name": "_chainId",
          "type": "uint8"
        }
      ],
      "stateMutability": "nonpayable",
      "type": "constructor"
    },
    {
      "anonymous": false,
      "inputs": [
        {
          "indexed": false,
          "internalType": "bytes32",
          "name": "bridgeId",
          "type": "bytes32"
        }
      ],
      "name": "BridgeLocked",
      "type": "event"
    },
    {
      "anonymous": false,
      "inputs": [
        {
          "indexed": false,
          "internalType": "bytes32",
          "name": "bridgeId",
          "type": "bytes32"
        }
      ],
      "name": "CoinBridged",
      "type": "event"
    },
    {
      "anonymous": false,
      "inputs": [
        {
          "indexed": false,
          "internalType": "bytes32",
          "name": "bridgeId",
          "type": "bytes32"
        },
        {
          "indexed": false,
          "internalType": "bytes32",
          "name": "preimage",
          "type": "bytes32"
        }
      ],
      "name": "CoinRefunded",
      "type": "event"
    },
    {
      "anonymous": false,
      "inputs": [
        {
          "indexed": false,
          "internalType": "bytes32",
          "name": "bridgeId",
          "type": "bytes32"
        },
        {
          "indexed": false,
          "internalType": "bytes32",
          "name": "preimage",
          "type": "bytes32"
        }
      ],
      "name": "CoinReleased",
      "type": "event"
    },
    {
      "anonymous": false,
      "inputs": [
        {
          "indexed": true,
          "internalType": "address",
          "name": "previousOwner",
          "type": "address"
        },
        {
          "indexed": true,
          "internalType": "address",
          "name": "newOwner",
          "type": "address"
        }
      ],
      "name": "OwnershipTransferred",
      "type": "event"
    },
    {
      "anonymous": false,
      "inputs": [
        {
          "indexed": false,
          "internalType": "bytes32",
          "name": "bridgeId",
          "type": "bytes32"
        }
      ],
      "name": "ReleaseAdded",
      "type": "event"
    },
    {
      "inputs": [
        {
          "internalType": "address",
          "name": "_coin",
          "type": "address"
        }
      ],
      "name": "addCoin",
      "outputs": [],
      "stateMutability": "nonpayable",
      "type": "function"
    },
    {
      "inputs": [
        {
          "internalType": "address",
          "name": "_deployedCoin",
          "type": "address"
        },
        {
          "internalType": "address",
          "name": "_originalCoin",
          "type": "address"
        }
      ],
      "name": "addDestination",
      "outputs": [],
      "stateMutability": "nonpayable",
      "type": "function"
    },
    {
      "inputs": [
        {
          "internalType": "bytes32",
          "name": "_id",
          "type": "bytes32"
        },
        {
          "internalType": "uint8",
          "name": "_srcChainId",
          "type": "uint8"
        },
        {
          "internalType": "address",
          "name": "_srcCoin",
          "type": "address"
        },
        {
          "internalType": "address",
          "name": "_sender",
          "type": "address"
        },
        {
          "internalType": "address",
          "name": "_receiver",
          "type": "address"
        },
        {
          "internalType": "uint256",
          "name": "_amount",
          "type": "uint256"
        },
        {
          "internalType": "bytes32",
          "name": "_hashlock",
          "type": "bytes32"
        }
      ],
      "name": "addRelease",
      "outputs": [],
      "stateMutability": "nonpayable",
      "type": "function"
    },
    {
      "inputs": [
        {
          "internalType": "address",
          "name": "_srcCoin",
          "type": "address"
        },
        {
          "internalType": "address",
          "name": "_receiver",
          "type": "address"
        },
        {
          "internalType": "uint256",
          "name": "_amount",
          "type": "uint256"
        },
        {
          "internalType": "bytes32",
          "name": "_hashlock",
          "type": "bytes32"
        },
        {
          "internalType": "uint8",
          "name": "_dstChainId",
          "type": "uint8"
        }
      ],
      "name": "bridgeBurnCoin",
      "outputs": [],
      "stateMutability": "nonpayable",
      "type": "function"
    },
    {
      "inputs": [
        {
          "internalType": "address",
          "name": "_srcCoin",
          "type": "address"
        },
        {
          "internalType": "address",
          "name": "_receiver",
          "type": "address"
        },
        {
          "internalType": "uint256",
          "name": "_amount",
          "type": "uint256"
        },
        {
          "internalType": "bytes32",
          "name": "_hashlock",
          "type": "bytes32"
        },
        {
          "internalType": "uint8",
          "name": "_dstChainId",
          "type": "uint8"
        }
      ],
      "name": "bridgeCoin",
      "outputs": [],
      "stateMutability": "nonpayable",
      "type": "function"
    },
    {
      "inputs": [
        {
          "internalType": "uint8",
          "name": "_srcChainId",
          "type": "uint8"
        },
        {
          "internalType": "address",
          "name": "_srcCoin",
          "type": "address"
        },
        {
          "internalType": "string",
          "name": "_coinName",
          "type": "string"
        },
        {
          "internalType": "string",
          "name": "_coinDenom",
          "type": "string"
        }
      ],
      "name": "deployCoin",
      "outputs": [],
      "stateMutability": "nonpayable",
      "type": "function"
    },
    {
      "inputs": [
        {
          "internalType": "address",
          "name": "_srcCoin",
          "type": "address"
        }
      ],
      "name": "destinationExists",
      "outputs": [
        {
          "internalType": "bool",
          "name": "",
          "type": "bool"
        }
      ],
      "stateMutability": "view",
      "type": "function"
    },
    {
      "inputs": [],
      "name": "getAvailableCoins",
      "outputs": [
        {
          "internalType": "address[]",
          "name": "",
          "type": "address[]"
        }
      ],
      "stateMutability": "view",
      "type": "function"
    },
    {
      "inputs": [
        {
          "internalType": "bytes32",
          "name": "_id",
          "type": "bytes32"
        }
      ],
      "name": "getBridgeLock",
      "outputs": [
        {
          "components": [
            {
              "internalType": "bytes32",
              "name": "id",
              "type": "bytes32"
            },
            {
              "internalType": "bytes32",
              "name": "hashlock",
              "type": "bytes32"
            },
            {
              "internalType": "bytes32",
              "name": "preimage",
              "type": "bytes32"
            },
            {
              "internalType": "uint8",
              "name": "srcChainId",
              "type": "uint8"
            },
            {
              "internalType": "uint8",
              "name": "dstChainId",
              "type": "uint8"
            },
            {
              "internalType": "address",
              "name": "coin",
              "type": "address"
            },
            {
              "internalType": "address",
              "name": "sender",
              "type": "address"
            },
            {
              "internalType": "address",
              "name": "receiver",
              "type": "address"
            },
            {
              "internalType": "uint256",
              "name": "amount",
              "type": "uint256"
            },
            {
              "internalType": "bool",
              "name": "active",
              "type": "bool"
            }
          ],
          "internalType": "struct BridgeLocker.BridgeLock",
          "name": "",
          "type": "tuple"
        }
      ],
      "stateMutability": "view",
      "type": "function"
    },
    {
      "inputs": [
        {
          "internalType": "bytes32",
          "name": "_id",
          "type": "bytes32"
        }
      ],
      "name": "getBridgeLockSrcCoin",
      "outputs": [
        {
          "internalType": "address",
          "name": "",
          "type": "address"
        }
      ],
      "stateMutability": "view",
      "type": "function"
    },
    {
      "inputs": [],
      "name": "getBridgeLocks",
      "outputs": [
        {
          "components": [
            {
              "internalType": "bytes32",
              "name": "id",
              "type": "bytes32"
            },
            {
              "internalType": "bytes32",
              "name": "hashlock",
              "type": "bytes32"
            },
            {
              "internalType": "bytes32",
              "name": "preimage",
              "type": "bytes32"
            },
            {
              "internalType": "uint8",
              "name": "srcChainId",
              "type": "uint8"
            },
            {
              "internalType": "uint8",
              "name": "dstChainId",
              "type": "uint8"
            },
            {
              "internalType": "address",
              "name": "coin",
              "type": "address"
            },
            {
              "internalType": "address",
              "name": "sender",
              "type": "address"
            },
            {
              "internalType": "address",
              "name": "receiver",
              "type": "address"
            },
            {
              "internalType": "uint256",
              "name": "amount",
              "type": "uint256"
            },
            {
              "internalType": "bool",
              "name": "active",
              "type": "bool"
            }
          ],
          "internalType": "struct BridgeLocker.BridgeLock[]",
          "name": "bls",
          "type": "tuple[]"
        }
      ],
      "stateMutability": "view",
      "type": "function"
    },
    {
      "inputs": [
        {
          "internalType": "address",
          "name": "_coin",
          "type": "address"
        }
      ],
      "name": "getDestToOriginChainId",
      "outputs": [
        {
          "internalType": "uint8",
          "name": "",
          "type": "uint8"
        }
      ],
      "stateMutability": "view",
      "type": "function"
    },
    {
      "inputs": [
        {
          "internalType": "address",
          "name": "_coin",
          "type": "address"
        }
      ],
      "name": "getDstCoin",
      "outputs": [
        {
          "internalType": "address",
          "name": "",
          "type": "address"
        }
      ],
      "stateMutability": "view",
      "type": "function"
    },
    {
      "inputs": [
        {
          "internalType": "bytes32",
          "name": "_id",
          "type": "bytes32"
        }
      ],
      "name": "getDstCoinByBridgelockId",
      "outputs": [
        {
          "internalType": "address",
          "name": "",
          "type": "address"
        }
      ],
      "stateMutability": "view",
      "type": "function"
    },
    {
      "inputs": [
        {
          "internalType": "address",
          "name": "_coin",
          "type": "address"
        }
      ],
      "name": "isCoinOriginal",
      "outputs": [
        {
          "internalType": "bool",
          "name": "",
          "type": "bool"
        }
      ],
      "stateMutability": "view",
      "type": "function"
    },
    {
      "inputs": [
        {
          "internalType": "bytes32",
          "name": "_id",
          "type": "bytes32"
        },
        {
          "internalType": "bytes32",
          "name": "_preimage",
          "type": "bytes32"
        }
      ],
      "name": "lockBridge",
      "outputs": [],
      "stateMutability": "nonpayable",
      "type": "function"
    },
    {
      "inputs": [],
      "name": "owner",
      "outputs": [
        {
          "internalType": "address",
          "name": "",
          "type": "address"
        }
      ],
      "stateMutability": "view",
      "type": "function"
    },
    {
      "inputs": [
        {
          "internalType": "bytes32",
          "name": "_id",
          "type": "bytes32"
        },
        {
          "internalType": "bytes32",
          "name": "_preimage",
          "type": "bytes32"
        }
      ],
      "name": "refundMint",
      "outputs": [],
      "stateMutability": "nonpayable",
      "type": "function"
    },
    {
      "inputs": [
        {
          "internalType": "bytes32",
          "name": "_id",
          "type": "bytes32"
        },
        {
          "internalType": "bytes32",
          "name": "_preimage",
          "type": "bytes32"
        }
      ],
      "name": "refundTransfer",
      "outputs": [],
      "stateMutability": "nonpayable",
      "type": "function"
    },
    {
      "inputs": [
        {
          "internalType": "bytes32",
          "name": "_id",
          "type": "bytes32"
        },
        {
          "internalType": "bytes32",
          "name": "_preimage",
          "type": "bytes32"
        }
      ],
      "name": "releaseMintCoin",
      "outputs": [],
      "stateMutability": "nonpayable",
      "type": "function"
    },
    {
      "inputs": [
        {
          "internalType": "bytes32",
          "name": "_id",
          "type": "bytes32"
        },
        {
          "internalType": "bytes32",
          "name": "_preimage",
          "type": "bytes32"
        }
      ],
      "name": "releaseTransferCoin",
      "outputs": [],
      "stateMutability": "nonpayable",
      "type": "function"
    },
    {
      "inputs": [],
      "name": "renounceOwnership",
      "outputs": [],
      "stateMutability": "nonpayable",
      "type": "function"
    },
    {
      "inputs": [
        {
          "internalType": "address",
          "name": "newOwner",
          "type": "address"
        }
      ],
      "name": "transferOwnership",
      "outputs": [],
      "stateMutability": "nonpayable",
      "type": "function"
    }
  ],
  "bytecode": "0x60806040523480156200001157600080fd5b5060405162005e3138038062005e3183398181016040528101906200003791906200015c565b620000576200004b6200007960201b60201c565b6200008160201b60201c565b80600360006101000a81548160ff021916908360ff16021790555050620001af565b600033905090565b60008060009054906101000a900473ffffffffffffffffffffffffffffffffffffffff169050816000806101000a81548173ffffffffffffffffffffffffffffffffffffffff021916908373ffffffffffffffffffffffffffffffffffffffff1602179055508173ffffffffffffffffffffffffffffffffffffffff168173ffffffffffffffffffffffffffffffffffffffff167f8be0079c531659141344cd1fd0a4f28419497f9722a3daafe3b4186f6b6457e060405160405180910390a35050565b600081519050620001568162000195565b92915050565b6000602082840312156200016f57600080fd5b60006200017f8482850162000145565b91505092915050565b600060ff82169050919050565b620001a08162000188565b8114620001ac57600080fd5b50565b615c7280620001bf6000396000f3fe60806040523480156200001157600080fd5b50600436106200016c5760003560e01c8063715018a611620000d5578063b9bfaf251162000087578063b9bfaf251462000403578063bf9492f61462000439578063c50ea3481462000459578063de97958d146200047b578063f2fde38b146200049b578063ff40309f14620004bb576200016c565b8063715018a6146200032957806376a375f51462000335578063846b91e314620003555780638770e9d0146200038b5780638bc56e0514620003c15780638da5cb5b14620003e1576200016c565b806351560e40116200012f57806351560e40146200023d578063542413ad1462000273578063559cf36f14620002935780635d1fe18114620002b35780635daaa71014620002d357806363b48cba1462000309576200016c565b80630387c17d146200017157806316da863214620001a75780633965d37714620001c75780634633b82114620001e757806348cd04211462000207575b600080fd5b6200018f600480360381019062000189919062002694565b620004dd565b6040516200019e919062003119565b60405180910390f35b620001c56004803603810190620001bf919062002694565b62000533565b005b620001e56004803603810190620001df9190620027db565b62000674565b005b620002056004803603810190620001ff91906200281c565b6200082b565b005b6200022560048036038101906200021f9190620027af565b620009b8565b60405162000234919062003401565b60405180910390f35b6200025b6004803603810190620002559190620027af565b62000b67565b6040516200026a91906200304a565b60405180910390f35b6200029160048036038101906200028b9190620027db565b62000b85565b005b620002b16004803603810190620002ab919062002701565b62000d3c565b005b620002d16004803603810190620002cb9190620027db565b62000f4b565b005b620002f16004803603810190620002eb919062002694565b62001108565b6040516200030091906200304a565b60405180910390f35b62000327600480360381019062000321919062002701565b62001171565b005b620003336200137e565b005b6200035360048036038101906200034d9190620027db565b6200140f565b005b6200037360048036038101906200036d919062002694565b620015cc565b60405162000382919062003119565b60405180910390f35b620003a96004803603810190620003a39190620027af565b62001664565b604051620003b891906200304a565b60405180910390f35b620003df6004803603810190620003d99190620027db565b6200167c565b005b620003eb62001748565b604051620003fa91906200304a565b60405180910390f35b6200042160048036038101906200041b919062002694565b62001771565b6040516200043091906200341f565b60405180910390f35b620004576004803603810190620004519190620026c0565b620017c7565b005b620004636200191c565b604051620004729190620030f5565b60405180910390f35b620004996004803603810190620004939190620028c9565b62001bf7565b005b620004b96004803603810190620004b3919062002694565b62001e4f565b005b620004c562001f53565b604051620004d49190620030d1565b60405180910390f35b6000600560008373ffffffffffffffffffffffffffffffffffffffff1673ffffffffffffffffffffffffffffffffffffffff16815260200190815260200160002060009054906101000a900460ff169050919050565b6200053d62001fe3565b73ffffffffffffffffffffffffffffffffffffffff166200055d62001748565b73ffffffffffffffffffffffffffffffffffffffff1614620005b6576040517f08c379a0000000000000000000000000000000000000000000000000000000008152600401620005ad90620032cf565b60405180910390fd5b6004819080600181540180825580915050600190039060005260206000200160009091909190916101000a81548173ffffffffffffffffffffffffffffffffffffffff021916908373ffffffffffffffffffffffffffffffffffffffff1602179055506001600560008373ffffffffffffffffffffffffffffffffffffffff1673ffffffffffffffffffffffffffffffffffffffff16815260200190815260200160002060006101000a81548160ff02191690831515021790555050565b81338073ffffffffffffffffffffffffffffffffffffffff166200069883620009b8565b60c0015173ffffffffffffffffffffffffffffffffffffffff1614620006f5576040517f08c379a0000000000000000000000000000000000000000000000000000000008152600401620006ec90620031bf565b60405180910390fd5b62000701848462001feb565b6200070c8462001664565b73ffffffffffffffffffffffffffffffffffffffff166340c10f1933620007338762002183565b6040518363ffffffff1660e01b815260040162000752929190620030a4565b602060405180830381600087803b1580156200076d57600080fd5b505af115801562000782573d6000803e3d6000fd5b505050506040513d601f19601f82011682018060405250810190620007a8919062002783565b620007ea576040517f08c379a0000000000000000000000000000000000000000000000000000000008152600401620007e190620033df565b60405180910390fd5b7f72bd658852abad871726c183c8b61abc4c3db69311f3c7c650cc775d129aee4f84846040516200081d92919062003153565b60405180910390a150505050565b6200083562001fe3565b73ffffffffffffffffffffffffffffffffffffffff166200085562001748565b73ffffffffffffffffffffffffffffffffffffffff1614620008ae576040517f08c379a0000000000000000000000000000000000000000000000000000000008152600401620008a590620032cf565b60405180910390fd5b8160008111620008f5576040517f08c379a0000000000000000000000000000000000000000000000000000000008152600401620008ec906200339b565b60405180910390fd5b86600360009054906101000a900460ff168060ff168260ff16141562000952576040517f08c379a00000000000000000000000000000000000000000000000000000000081526004016200094990620032ad565b60405180910390fd5b620009738a89898989898f600360009054906101000a900460ff166200219c565b7f7d8b50eea1361e487a491b69353f2bb3d3d5f871c083c39424819c8f15c92c6f8a604051620009a4919062003136565b60405180910390a150505050505050505050565b620009c262002520565b60026000838152602001908152602001600020604051806101400160405290816000820154815260200160018201548152602001600282015481526020016003820160009054906101000a900460ff1660ff1660ff1681526020016003820160019054906101000a900460ff1660ff1660ff1681526020016003820160029054906101000a900473ffffffffffffffffffffffffffffffffffffffff1673ffffffffffffffffffffffffffffffffffffffff1673ffffffffffffffffffffffffffffffffffffffff1681526020016004820160009054906101000a900473ffffffffffffffffffffffffffffffffffffffff1673ffffffffffffffffffffffffffffffffffffffff1673ffffffffffffffffffffffffffffffffffffffff1681526020016005820160009054906101000a900473ffffffffffffffffffffffffffffffffffffffff1673ffffffffffffffffffffffffffffffffffffffff1673ffffffffffffffffffffffffffffffffffffffff168152602001600682015481526020016007820160009054906101000a900460ff1615151515815250509050919050565b600062000b7e62000b788362001664565b62001108565b9050919050565b81338073ffffffffffffffffffffffffffffffffffffffff1662000ba983620009b8565b60c0015173ffffffffffffffffffffffffffffffffffffffff161462000c06576040517f08c379a000000000000000000000000000000000000000000000000000000000815260040162000bfd90620031bf565b60405180910390fd5b62000c12848462001feb565b62000c1d8462001664565b73ffffffffffffffffffffffffffffffffffffffff1663a9059cbb3362000c448762002183565b6040518363ffffffff1660e01b815260040162000c63929190620030a4565b602060405180830381600087803b15801562000c7e57600080fd5b505af115801562000c93573d6000803e3d6000fd5b505050506040513d601f19601f8201168201806040525081019062000cb9919062002783565b62000cfb576040517f08c379a000000000000000000000000000000000000000000000000000000000815260040162000cf29062003357565b60405180910390fd5b7f72bd658852abad871726c183c8b61abc4c3db69311f3c7c650cc775d129aee4f848460405162000d2e92919062003153565b60405180910390a150505050565b600360009054906101000a900460ff16818060ff168260ff16141562000d99576040517f08c379a000000000000000000000000000000000000000000000000000000000815260040162000d9090620032ad565b60405180910390fd5b846000811162000de0576040517f08c379a000000000000000000000000000000000000000000000000000000000815260040162000dd7906200339b565b60405180910390fd5b6000334260405160200162000df792919062002ffd565b60405160208183030381529060405280519060200120905062000e30818a338b8b8b600360009054906101000a900460ff168c6200219c565b8873ffffffffffffffffffffffffffffffffffffffff166323b872dd33308a6040518463ffffffff1660e01b815260040162000e6f9392919062003067565b602060405180830381600087803b15801562000e8a57600080fd5b505af115801562000e9f573d6000803e3d6000fd5b505050506040513d601f19601f8201168201806040525081019062000ec5919062002783565b62000f07576040517f08c379a000000000000000000000000000000000000000000000000000000000815260040162000efe90620032f1565b60405180910390fd5b7fb2f309809a4fc51a68e04ac2f5328b8d78a3bb74f6616e8bc5958b75e215d5608160405162000f38919062003136565b60405180910390a1505050505050505050565b81338073ffffffffffffffffffffffffffffffffffffffff1662000f6f83620009b8565b60e0015173ffffffffffffffffffffffffffffffffffffffff161462000fcc576040517f08c379a000000000000000000000000000000000000000000000000000000000815260040162000fc39062003313565b60405180910390fd5b600062000fd98562000b67565b905062000fe7858562001feb565b8073ffffffffffffffffffffffffffffffffffffffff166340c10f19336200100f8862002183565b6040518363ffffffff1660e01b81526004016200102e929190620030a4565b602060405180830381600087803b1580156200104957600080fd5b505af11580156200105e573d6000803e3d6000fd5b505050506040513d601f19601f8201168201806040525081019062001084919062002783565b620010c6576040517f08c379a0000000000000000000000000000000000000000000000000000000008152600401620010bd906200328b565b60405180910390fd5b7fae13508b7012afb645b5a3fc272161302ae08fb5ed9cf02090c6c06bdc515ef38585604051620010f992919062003153565b60405180910390a15050505050565b6000600660008373ffffffffffffffffffffffffffffffffffffffff1673ffffffffffffffffffffffffffffffffffffffff16815260200190815260200160002060009054906101000a900473ffffffffffffffffffffffffffffffffffffffff169050919050565b600360009054906101000a900460ff16818060ff168260ff161415620011ce576040517f08c379a0000000000000000000000000000000000000000000000000000000008152600401620011c590620032ad565b60405180910390fd5b846000811162001215576040517f08c379a00000000000000000000000000000000000000000000000000000000081526004016200120c906200339b565b60405180910390fd5b600033426040516020016200122c92919062002ffd565b60405160208183030381529060405280519060200120905062001265818a338b8b8b600360009054906101000a900460ff168c6200219c565b8873ffffffffffffffffffffffffffffffffffffffff16639dc29fac33896040518363ffffffff1660e01b8152600401620012a2929190620030a4565b602060405180830381600087803b158015620012bd57600080fd5b505af1158015620012d2573d6000803e3d6000fd5b505050506040513d601f19601f82011682018060405250810190620012f8919062002783565b6200133a576040517f08c379a00000000000000000000000000000000000000000000000000000000081526004016200133190620031e1565b60405180910390fd5b7fb2f309809a4fc51a68e04ac2f5328b8d78a3bb74f6616e8bc5958b75e215d560816040516200136b919062003136565b60405180910390a1505050505050505050565b6200138862001fe3565b73ffffffffffffffffffffffffffffffffffffffff16620013a862001748565b73ffffffffffffffffffffffffffffffffffffffff161462001401576040517f08c379a0000000000000000000000000000000000000000000000000000000008152600401620013f890620032cf565b60405180910390fd5b6200140d60006200245c565b565b81338073ffffffffffffffffffffffffffffffffffffffff166200143383620009b8565b60e0015173ffffffffffffffffffffffffffffffffffffffff161462001490576040517f08c379a0000000000000000000000000000000000000000000000000000000008152600401620014879062003313565b60405180910390fd5b60006200149d8562000b67565b9050620014ab858562001feb565b8073ffffffffffffffffffffffffffffffffffffffff1663a9059cbb33620014d38862002183565b6040518363ffffffff1660e01b8152600401620014f2929190620030a4565b602060405180830381600087803b1580156200150d57600080fd5b505af115801562001522573d6000803e3d6000fd5b505050506040513d601f19601f8201168201806040525081019062001548919062002783565b6200158a576040517f08c379a0000000000000000000000000000000000000000000000000000000008152600401620015819062003379565b60405180910390fd5b7fae13508b7012afb645b5a3fc272161302ae08fb5ed9cf02090c6c06bdc515ef38585604051620015bd92919062003153565b60405180910390a15050505050565b60008073ffffffffffffffffffffffffffffffffffffffff16600660008473ffffffffffffffffffffffffffffffffffffffff1673ffffffffffffffffffffffffffffffffffffffff16815260200190815260200160002060009054906101000a900473ffffffffffffffffffffffffffffffffffffffff1673ffffffffffffffffffffffffffffffffffffffff1614159050919050565b60006200167182620009b8565b60a001519050919050565b6200168662001fe3565b73ffffffffffffffffffffffffffffffffffffffff16620016a662001748565b73ffffffffffffffffffffffffffffffffffffffff1614620016ff576040517f08c379a0000000000000000000000000000000000000000000000000000000008152600401620016f690620032cf565b60405180910390fd5b6200170b828262001feb565b7f33e82c8009ea939b41db5b6819cc56e8dce8f78afe52f46048a87d6bb27d1894826040516200173c919062003136565b60405180910390a15050565b60008060009054906101000a900473ffffffffffffffffffffffffffffffffffffffff16905090565b6000600760008373ffffffffffffffffffffffffffffffffffffffff1673ffffffffffffffffffffffffffffffffffffffff16815260200190815260200160002060009054906101000a900460ff169050919050565b620017d162001fe3565b73ffffffffffffffffffffffffffffffffffffffff16620017f162001748565b73ffffffffffffffffffffffffffffffffffffffff16146200184a576040517f08c379a00000000000000000000000000000000000000000000000000000000081526004016200184190620032cf565b60405180910390fd5b816200185681620015cc565b1562001899576040517f08c379a0000000000000000000000000000000000000000000000000000000008152600401620018909062003247565b60405180910390fd5b81600660008573ffffffffffffffffffffffffffffffffffffffff1673ffffffffffffffffffffffffffffffffffffffff16815260200190815260200160002060006101000a81548173ffffffffffffffffffffffffffffffffffffffff021916908373ffffffffffffffffffffffffffffffffffffffff160217905550505050565b606060018054905067ffffffffffffffff81111562001964577f4e487b7100000000000000000000000000000000000000000000000000000000600052604160045260246000fd5b604051908082528060200260200182016040528015620019a157816020015b6200198d62002520565b815260200190600190039081620019835790505b50905060005b60018054905081101562001bf3576002600060018381548110620019f4577f4e487b7100000000000000000000000000000000000000000000000000000000600052603260045260246000fd5b90600052602060002001548152602001908152602001600020604051806101400160405290816000820154815260200160018201548152602001600282015481526020016003820160009054906101000a900460ff1660ff1660ff1681526020016003820160019054906101000a900460ff1660ff1660ff1681526020016003820160029054906101000a900473ffffffffffffffffffffffffffffffffffffffff1673ffffffffffffffffffffffffffffffffffffffff1673ffffffffffffffffffffffffffffffffffffffff1681526020016004820160009054906101000a900473ffffffffffffffffffffffffffffffffffffffff1673ffffffffffffffffffffffffffffffffffffffff1673ffffffffffffffffffffffffffffffffffffffff1681526020016005820160009054906101000a900473ffffffffffffffffffffffffffffffffffffffff1673ffffffffffffffffffffffffffffffffffffffff1673ffffffffffffffffffffffffffffffffffffffff168152602001600682015481526020016007820160009054906101000a900460ff16151515158152505082828151811062001bd2577f4e487b7100000000000000000000000000000000000000000000000000000000600052603260045260246000fd5b6020026020010181905250808062001bea906200352f565b915050620019a7565b5090565b62001c0162001fe3565b73ffffffffffffffffffffffffffffffffffffffff1662001c2162001748565b73ffffffffffffffffffffffffffffffffffffffff161462001c7a576040517f08c379a000000000000000000000000000000000000000000000000000000000815260040162001c7190620032cf565b60405180910390fd5b8462001c8681620015cc565b1562001cc9576040517f08c379a000000000000000000000000000000000000000000000000000000000815260040162001cc09062003247565b60405180910390fd5b60008585858560405162001cdd90620025c6565b62001cec949392919062003180565b604051809103906000f08015801562001d09573d6000803e3d6000fd5b50905087600760008373ffffffffffffffffffffffffffffffffffffffff1673ffffffffffffffffffffffffffffffffffffffff16815260200190815260200160002060006101000a81548160ff021916908360ff16021790555080600660008973ffffffffffffffffffffffffffffffffffffffff1673ffffffffffffffffffffffffffffffffffffffff16815260200190815260200160002060006101000a81548173ffffffffffffffffffffffffffffffffffffffff021916908373ffffffffffffffffffffffffffffffffffffffff1602179055506004819080600181540180825580915050600190039060005260206000200160009091909190916101000a81548173ffffffffffffffffffffffffffffffffffffffff021916908373ffffffffffffffffffffffffffffffffffffffff1602179055505050505050505050565b62001e5962001fe3565b73ffffffffffffffffffffffffffffffffffffffff1662001e7962001748565b73ffffffffffffffffffffffffffffffffffffffff161462001ed2576040517f08c379a000000000000000000000000000000000000000000000000000000000815260040162001ec990620032cf565b60405180910390fd5b600073ffffffffffffffffffffffffffffffffffffffff168173ffffffffffffffffffffffffffffffffffffffff16141562001f45576040517f08c379a000000000000000000000000000000000000000000000000000000000815260040162001f3c9062003203565b60405180910390fd5b62001f50816200245c565b50565b6060600480548060200260200160405190810160405280929190818152602001828054801562001fd957602002820191906000526020600020905b8160009054906101000a900473ffffffffffffffffffffffffffffffffffffffff1673ffffffffffffffffffffffffffffffffffffffff168152602001906001019080831162001f8e575b5050505050905090565b600033905090565b81600073ffffffffffffffffffffffffffffffffffffffff166200200f82620009b8565b60c0015173ffffffffffffffffffffffffffffffffffffffff1614156200206d576040517f08c379a0000000000000000000000000000000000000000000000000000000008152600401620020649062003225565b60405180910390fd5b826200207981620009b8565b6101200151620020c0576040517f08c379a0000000000000000000000000000000000000000000000000000000008152600401620020b79062003335565b60405180910390fd5b620020cb84620009b8565b602001518380604051602001620020e391906200302d565b6040516020818303038152906040528051906020012082146200213d576040517f08c379a00000000000000000000000000000000000000000000000000000000081526004016200213490620033bd565b60405180910390fd5b600060026000888152602001908152602001600020905060008160070160006101000a81548160ff02191690831515021790555085816002018190555050505050505050565b60006200219082620009b8565b61010001519050919050565b87600073ffffffffffffffffffffffffffffffffffffffff16620021c082620009b8565b60c0015173ffffffffffffffffffffffffffffffffffffffff16146200221d576040517f08c379a0000000000000000000000000000000000000000000000000000000008152600401620022149062003269565b60405180910390fd5b60018990806001815401808255809150506001900390600052602060002001600090919091909150556040518061014001604052808a81526020018581526020016000801b81526020018460ff1681526020018360ff1681526020018973ffffffffffffffffffffffffffffffffffffffff1681526020018873ffffffffffffffffffffffffffffffffffffffff1681526020018773ffffffffffffffffffffffffffffffffffffffff16815260200186815260200160011515815250600260008b815260200190815260200160002060008201518160000155602082015181600101556040820151816002015560608201518160030160006101000a81548160ff021916908360ff16021790555060808201518160030160016101000a81548160ff021916908360ff16021790555060a08201518160030160026101000a81548173ffffffffffffffffffffffffffffffffffffffff021916908373ffffffffffffffffffffffffffffffffffffffff16021790555060c08201518160040160006101000a81548173ffffffffffffffffffffffffffffffffffffffff021916908373ffffffffffffffffffffffffffffffffffffffff16021790555060e08201518160050160006101000a81548173ffffffffffffffffffffffffffffffffffffffff021916908373ffffffffffffffffffffffffffffffffffffffff16021790555061010082015181600601556101208201518160070160006101000a81548160ff021916908315150217905550905050505050505050505050565b60008060009054906101000a900473ffffffffffffffffffffffffffffffffffffffff169050816000806101000a81548173ffffffffffffffffffffffffffffffffffffffff021916908373ffffffffffffffffffffffffffffffffffffffff1602179055508173ffffffffffffffffffffffffffffffffffffffff168173ffffffffffffffffffffffffffffffffffffffff167f8be0079c531659141344cd1fd0a4f28419497f9722a3daafe3b4186f6b6457e060405160405180910390a35050565b604051806101400160405280600080191681526020016000801916815260200160008019168152602001600060ff168152602001600060ff168152602001600073ffffffffffffffffffffffffffffffffffffffff168152602001600073ffffffffffffffffffffffffffffffffffffffff168152602001600073ffffffffffffffffffffffffffffffffffffffff168152602001600081526020016000151581525090565b61226380620039da83390190565b600081359050620025e58162003957565b92915050565b600081519050620025fc8162003971565b92915050565b60008135905062002613816200398b565b92915050565b60008083601f8401126200262c57600080fd5b8235905067ffffffffffffffff8111156200264657600080fd5b6020830191508360018202830111156200265f57600080fd5b9250929050565b6000813590506200267781620039a5565b92915050565b6000813590506200268e81620039bf565b92915050565b600060208284031215620026a757600080fd5b6000620026b784828501620025d4565b91505092915050565b60008060408385031215620026d457600080fd5b6000620026e485828601620025d4565b9250506020620026f785828601620025d4565b9150509250929050565b600080600080600060a086880312156200271a57600080fd5b60006200272a88828901620025d4565b95505060206200273d88828901620025d4565b9450506040620027508882890162002666565b9350506060620027638882890162002602565b925050608062002776888289016200267d565b9150509295509295909350565b6000602082840312156200279657600080fd5b6000620027a684828501620025eb565b91505092915050565b600060208284031215620027c257600080fd5b6000620027d28482850162002602565b91505092915050565b60008060408385031215620027ef57600080fd5b6000620027ff8582860162002602565b9250506020620028128582860162002602565b9150509250929050565b600080600080600080600060e0888a0312156200283857600080fd5b6000620028488a828b0162002602565b97505060206200285b8a828b016200267d565b96505060406200286e8a828b01620025d4565b9550506060620028818a828b01620025d4565b9450506080620028948a828b01620025d4565b93505060a0620028a78a828b0162002666565b92505060c0620028ba8a828b0162002602565b91505092959891949750929550565b60008060008060008060808789031215620028e357600080fd5b6000620028f389828a016200267d565b96505060206200290689828a01620025d4565b955050604087013567ffffffffffffffff8111156200292457600080fd5b6200293289828a0162002619565b9450945050606087013567ffffffffffffffff8111156200295257600080fd5b6200296089828a0162002619565b92509250509295509295509295565b60006200297d8383620029a4565b60208301905092915050565b600062002997838362002dde565b6101408301905092915050565b620029af81620034bf565b82525050565b620029c081620034bf565b82525050565b620029db620029d582620034bf565b6200357d565b82525050565b6000620029ee826200345c565b620029fa81856200348c565b935062002a07836200343c565b8060005b8381101562002a3e57815162002a2288826200296f565b975062002a2f8362003472565b92505060018101905062002a0b565b5085935050505092915050565b600062002a588262003467565b62002a6481856200349d565b935062002a71836200344c565b8060005b8381101562002aa857815162002a8c888262002989565b975062002a99836200347f565b92505060018101905062002a75565b5085935050505092915050565b62002ac081620034d3565b82525050565b62002ad181620034d3565b82525050565b62002ae281620034df565b82525050565b62002af381620034df565b82525050565b62002b0e62002b0882620034df565b62003591565b82525050565b600062002b228385620034ae565b935062002b3183858462003520565b62002b3c83620035e8565b840190509392505050565b600062002b56601b83620034ae565b915062002b638262003606565b602082019050919050565b600062002b7d600b83620034ae565b915062002b8a826200362f565b602082019050919050565b600062002ba4602683620034ae565b915062002bb18262003658565b604082019050919050565b600062002bcb601583620034ae565b915062002bd882620036a7565b602082019050919050565b600062002bf2602783620034ae565b915062002bff82620036d0565b604082019050919050565b600062002c19601b83620034ae565b915062002c26826200371f565b602082019050919050565b600062002c40600b83620034ae565b915062002c4d8262003748565b602082019050919050565b600062002c67603983620034ae565b915062002c748262003771565b604082019050919050565b600062002c8e602083620034ae565b915062002c9b82620037c0565b602082019050919050565b600062002cb5601383620034ae565b915062002cc282620037e9565b602082019050919050565b600062002cdc601d83620034ae565b915062002ce98262003812565b602082019050919050565b600062002d03601b83620034ae565b915062002d10826200383b565b602082019050919050565b600062002d2a602283620034ae565b915062002d378262003864565b604082019050919050565b600062002d51600f83620034ae565b915062002d5e82620038b3565b602082019050919050565b600062002d78601883620034ae565b915062002d8582620038dc565b602082019050919050565b600062002d9f601c83620034ae565b915062002dac8262003905565b602082019050919050565b600062002dc6600d83620034ae565b915062002dd3826200392e565b602082019050919050565b6101408201600082015162002df7600085018262002ad7565b50602082015162002e0c602085018262002ad7565b50604082015162002e21604085018262002ad7565b50606082015162002e36606085018262002fdb565b50608082015162002e4b608085018262002fdb565b5060a082015162002e6060a0850182620029a4565b5060c082015162002e7560c0850182620029a4565b5060e082015162002e8a60e0850182620029a4565b5061010082015162002ea161010085018262002f9e565b5061012082015162002eb861012085018262002ab5565b50505050565b6101408201600082015162002ed7600085018262002ad7565b50602082015162002eec602085018262002ad7565b50604082015162002f01604085018262002ad7565b50606082015162002f16606085018262002fdb565b50608082015162002f2b608085018262002fdb565b5060a082015162002f4060a0850182620029a4565b5060c082015162002f5560c0850182620029a4565b5060e082015162002f6a60e0850182620029a4565b5061010082015162002f8161010085018262002f9e565b5061012082015162002f9861012085018262002ab5565b50505050565b62002fa98162003509565b82525050565b62002fba8162003509565b82525050565b62002fd562002fcf8262003509565b620035af565b82525050565b62002fe68162003513565b82525050565b62002ff78162003513565b82525050565b60006200300b8285620029c6565b6014820191506200301d828462002fc0565b6020820191508190509392505050565b60006200303b828462002af9565b60208201915081905092915050565b6000602082019050620030616000830184620029b5565b92915050565b60006060820190506200307e6000830186620029b5565b6200308d6020830185620029b5565b6200309c604083018462002faf565b949350505050565b6000604082019050620030bb6000830185620029b5565b620030ca602083018462002faf565b9392505050565b60006020820190508181036000830152620030ed8184620029e1565b905092915050565b6000602082019050818103600083015262003111818462002a4b565b905092915050565b600060208201905062003130600083018462002ac6565b92915050565b60006020820190506200314d600083018462002ae8565b92915050565b60006040820190506200316a600083018562002ae8565b62003179602083018462002ae8565b9392505050565b600060408201905081810360008301526200319d81868862002b14565b90508181036020830152620031b481848662002b14565b905095945050505050565b60006020820190508181036000830152620031da8162002b47565b9050919050565b60006020820190508181036000830152620031fc8162002b6e565b9050919050565b600060208201905081810360008301526200321e8162002b95565b9050919050565b60006020820190508181036000830152620032408162002bbc565b9050919050565b60006020820190508181036000830152620032628162002be3565b9050919050565b60006020820190508181036000830152620032848162002c0a565b9050919050565b60006020820190508181036000830152620032a68162002c31565b9050919050565b60006020820190508181036000830152620032c88162002c58565b9050919050565b60006020820190508181036000830152620032ea8162002c7f565b9050919050565b600060208201905081810360008301526200330c8162002ca6565b9050919050565b600060208201905081810360008301526200332e8162002ccd565b9050919050565b60006020820190508181036000830152620033508162002cf4565b9050919050565b60006020820190508181036000830152620033728162002d1b565b9050919050565b60006020820190508181036000830152620033948162002d42565b9050919050565b60006020820190508181036000830152620033b68162002d69565b9050919050565b60006020820190508181036000830152620033d88162002d90565b9050919050565b60006020820190508181036000830152620033fa8162002db7565b9050919050565b60006101408201905062003419600083018462002ebe565b92915050565b600060208201905062003436600083018462002fec565b92915050565b6000819050602082019050919050565b6000819050602082019050919050565b600081519050919050565b600081519050919050565b6000602082019050919050565b6000602082019050919050565b600082825260208201905092915050565b600082825260208201905092915050565b600082825260208201905092915050565b6000620034cc82620034e9565b9050919050565b60008115159050919050565b6000819050919050565b600073ffffffffffffffffffffffffffffffffffffffff82169050919050565b6000819050919050565b600060ff82169050919050565b82818337600083830152505050565b60006200353c8262003509565b91507fffffffffffffffffffffffffffffffffffffffffffffffffffffffffffffffff821415620035725762003571620035b9565b5b600182019050919050565b60006200358a826200359b565b9050919050565b6000819050919050565b6000620035a882620035f9565b9050919050565b6000819050919050565b7f4e487b7100000000000000000000000000000000000000000000000000000000600052601160045260246000fd5b6000601f19601f8301169050919050565b60008160601b9050919050565b7f6d73672e73656e64657220213d206272696467652e73656e6465720000000000600082015250565b7f6275726e206661696c6564000000000000000000000000000000000000000000600082015250565b7f4f776e61626c653a206e6577206f776e657220697320746865207a65726f206160008201527f6464726573730000000000000000000000000000000000000000000000000000602082015250565b7f62726964676520646f6573206e6f742065786973740000000000000000000000600082015250565b7f436f6e747261637420616c72656164792065786973747320666f72207468697360008201527f20736f7572636500000000000000000000000000000000000000000000000000602082015250565b7f62726964676520616c7265616479206578697374732065786973740000000000600082015250565b7f6d696e74206661696c6564000000000000000000000000000000000000000000600082015250565b7f536f7572636520636861696e2069642063616e2774206265207468652073616d60008201527f652061732064657374696e6174696f6e20636861696e20696400000000000000602082015250565b7f4f776e61626c653a2063616c6c6572206973206e6f7420746865206f776e6572600082015250565b7f7472616e7366657246726f6d206661696c656400000000000000000000000000600082015250565b7f6d73672e73656e64657220213d206272696467652e7265636569766572000000600082015250565b7f4272696467654c6f636b20616c726561647920696e6163746976650000000000600082015250565b7f7472616e7366657246726f6d2073656e64657220746f2074686973206661696c60008201527f6564000000000000000000000000000000000000000000000000000000000000602082015250565b7f7472616e73666572206661696c65640000000000000000000000000000000000600082015250565b7f746f6b656e20616d6f756e74206d757374206265203e20300000000000000000600082015250565b7f686173686c6f636b206861736820646f6573206e6f74206d6174636800000000600082015250565b7f726566756e64206661696c656400000000000000000000000000000000000000600082015250565b6200396281620034bf565b81146200396e57600080fd5b50565b6200397c81620034d3565b81146200398857600080fd5b50565b6200399681620034df565b8114620039a257600080fd5b50565b620039b08162003509565b8114620039bc57600080fd5b50565b620039ca8162003513565b8114620039d657600080fd5b5056fe60806040523480156200001157600080fd5b506040516200226338038062002263833981810160405281019062000037919062000285565b818181600390805190602001906200005192919062000163565b5080600490805190602001906200006a92919062000163565b5050506200008d620000816200009560201b60201c565b6200009d60201b60201c565b505062000468565b600033905090565b6000600560009054906101000a900473ffffffffffffffffffffffffffffffffffffffff16905081600560006101000a81548173ffffffffffffffffffffffffffffffffffffffff021916908373ffffffffffffffffffffffffffffffffffffffff1602179055508173ffffffffffffffffffffffffffffffffffffffff168173ffffffffffffffffffffffffffffffffffffffff167f8be0079c531659141344cd1fd0a4f28419497f9722a3daafe3b4186f6b6457e060405160405180910390a35050565b82805462000171906200038d565b90600052602060002090601f016020900481019282620001955760008555620001e1565b82601f10620001b057805160ff1916838001178555620001e1565b82800160010185558215620001e1579182015b82811115620001e0578251825591602001919060010190620001c3565b5b509050620001f09190620001f4565b5090565b5b808211156200020f576000816000905550600101620001f5565b5090565b60006200022a620002248462000321565b620002f8565b9050828152602081018484840111156200024357600080fd5b6200025084828562000357565b509392505050565b600082601f8301126200026a57600080fd5b81516200027c84826020860162000213565b91505092915050565b600080604083850312156200029957600080fd5b600083015167ffffffffffffffff811115620002b457600080fd5b620002c28582860162000258565b925050602083015167ffffffffffffffff811115620002e057600080fd5b620002ee8582860162000258565b9150509250929050565b60006200030462000317565b9050620003128282620003c3565b919050565b6000604051905090565b600067ffffffffffffffff8211156200033f576200033e62000428565b5b6200034a8262000457565b9050602081019050919050565b60005b83811015620003775780820151818401526020810190506200035a565b8381111562000387576000848401525b50505050565b60006002820490506001821680620003a657607f821691505b60208210811415620003bd57620003bc620003f9565b5b50919050565b620003ce8262000457565b810181811067ffffffffffffffff82111715620003f057620003ef62000428565b5b80604052505050565b7f4e487b7100000000000000000000000000000000000000000000000000000000600052602260045260246000fd5b7f4e487b7100000000000000000000000000000000000000000000000000000000600052604160045260246000fd5b6000601f19601f8301169050919050565b611deb80620004786000396000f3fe608060405234801561001057600080fd5b50600436106101005760003560e01c8063715018a611610097578063a457c2d711610066578063a457c2d7146102c5578063a9059cbb146102f5578063dd62ed3e14610325578063f2fde38b1461035557610100565b8063715018a61461024f5780638da5cb5b1461025957806395d89b41146102775780639dc29fac1461029557610100565b8063313ce567116100d3578063313ce567146101a157806339509351146101bf57806340c10f19146101ef57806370a082311461021f57610100565b806306fdde0314610105578063095ea7b31461012357806318160ddd1461015357806323b872dd14610171575b600080fd5b61010d610371565b60405161011a919061169e565b60405180910390f35b61013d60048036038101906101389190611413565b610403565b60405161014a9190611683565b60405180910390f35b61015b610426565b6040516101689190611840565b60405180910390f35b61018b600480360381019061018691906113c4565b610430565b6040516101989190611683565b60405180910390f35b6101a961045f565b6040516101b6919061185b565b60405180910390f35b6101d960048036038101906101d49190611413565b610468565b6040516101e69190611683565b60405180910390f35b61020960048036038101906102049190611413565b610512565b6040516102169190611683565b60405180910390f35b6102396004803603810190610234919061135f565b6105a4565b6040516102469190611840565b60405180910390f35b6102576105ec565b005b610261610674565b60405161026e9190611668565b60405180910390f35b61027f61069e565b60405161028c919061169e565b60405180910390f35b6102af60048036038101906102aa9190611413565b610730565b6040516102bc9190611683565b60405180910390f35b6102df60048036038101906102da9190611413565b6107c2565b6040516102ec9190611683565b60405180910390f35b61030f600480360381019061030a9190611413565b6108ac565b60405161031c9190611683565b60405180910390f35b61033f600480360381019061033a9190611388565b6108cf565b60405161034c9190611840565b60405180910390f35b61036f600480360381019061036a919061135f565b610956565b005b606060038054610380906119a4565b80601f01602080910402602001604051908101604052809291908181526020018280546103ac906119a4565b80156103f95780601f106103ce576101008083540402835291602001916103f9565b820191906000526020600020905b8154815290600101906020018083116103dc57829003601f168201915b5050505050905090565b60008061040e610a4e565b905061041b818585610a56565b600191505092915050565b6000600254905090565b60008061043b610a4e565b9050610448858285610c21565b610453858585610cad565b60019150509392505050565b60006012905090565b600080610473610a4e565b9050610507818585600160008673ffffffffffffffffffffffffffffffffffffffff1673ffffffffffffffffffffffffffffffffffffffff16815260200190815260200160002060008973ffffffffffffffffffffffffffffffffffffffff1673ffffffffffffffffffffffffffffffffffffffff168152602001908152602001600020546105029190611892565b610a56565b600191505092915050565b600061051c610a4e565b73ffffffffffffffffffffffffffffffffffffffff1661053a610674565b73ffffffffffffffffffffffffffffffffffffffff1614610590576040517f08c379a000000000000000000000000000000000000000000000000000000000815260040161058790611780565b60405180910390fd5b61059a8383610f2e565b6001905092915050565b60008060008373ffffffffffffffffffffffffffffffffffffffff1673ffffffffffffffffffffffffffffffffffffffff168152602001908152602001600020549050919050565b6105f4610a4e565b73ffffffffffffffffffffffffffffffffffffffff16610612610674565b73ffffffffffffffffffffffffffffffffffffffff1614610668576040517f08c379a000000000000000000000000000000000000000000000000000000000815260040161065f90611780565b60405180910390fd5b610672600061108e565b565b6000600560009054906101000a900473ffffffffffffffffffffffffffffffffffffffff16905090565b6060600480546106ad906119a4565b80601f01602080910402602001604051908101604052809291908181526020018280546106d9906119a4565b80156107265780601f106106fb57610100808354040283529160200191610726565b820191906000526020600020905b81548152906001019060200180831161070957829003601f168201915b5050505050905090565b600061073a610a4e565b73ffffffffffffffffffffffffffffffffffffffff16610758610674565b73ffffffffffffffffffffffffffffffffffffffff16146107ae576040517f08c379a00000000000000000000000000000000000000000000000000000000081526004016107a590611780565b60405180910390fd5b6107b88383611154565b6001905092915050565b6000806107cd610a4e565b90506000600160008373ffffffffffffffffffffffffffffffffffffffff1673ffffffffffffffffffffffffffffffffffffffff16815260200190815260200160002060008673ffffffffffffffffffffffffffffffffffffffff1673ffffffffffffffffffffffffffffffffffffffff16815260200190815260200160002054905083811015610893576040517f08c379a000000000000000000000000000000000000000000000000000000000815260040161088a90611800565b60405180910390fd5b6108a08286868403610a56565b60019250505092915050565b6000806108b7610a4e565b90506108c4818585610cad565b600191505092915050565b6000600160008473ffffffffffffffffffffffffffffffffffffffff1673ffffffffffffffffffffffffffffffffffffffff16815260200190815260200160002060008373ffffffffffffffffffffffffffffffffffffffff1673ffffffffffffffffffffffffffffffffffffffff16815260200190815260200160002054905092915050565b61095e610a4e565b73ffffffffffffffffffffffffffffffffffffffff1661097c610674565b73ffffffffffffffffffffffffffffffffffffffff16146109d2576040517f08c379a00000000000000000000000000000000000000000000000000000000081526004016109c990611780565b60405180910390fd5b600073ffffffffffffffffffffffffffffffffffffffff168173ffffffffffffffffffffffffffffffffffffffff161415610a42576040517f08c379a0000000000000000000000000000000000000000000000000000000008152600401610a3990611700565b60405180910390fd5b610a4b8161108e565b50565b600033905090565b600073ffffffffffffffffffffffffffffffffffffffff168373ffffffffffffffffffffffffffffffffffffffff161415610ac6576040517f08c379a0000000000000000000000000000000000000000000000000000000008152600401610abd906117e0565b60405180910390fd5b600073ffffffffffffffffffffffffffffffffffffffff168273ffffffffffffffffffffffffffffffffffffffff161415610b36576040517f08c379a0000000000000000000000000000000000000000000000000000000008152600401610b2d90611720565b60405180910390fd5b80600160008573ffffffffffffffffffffffffffffffffffffffff1673ffffffffffffffffffffffffffffffffffffffff16815260200190815260200160002060008473ffffffffffffffffffffffffffffffffffffffff1673ffffffffffffffffffffffffffffffffffffffff168152602001908152602001600020819055508173ffffffffffffffffffffffffffffffffffffffff168373ffffffffffffffffffffffffffffffffffffffff167f8c5be1e5ebec7d5bd14f71427d1e84f3dd0314c0f7b2291e5b200ac8c7c3b92583604051610c149190611840565b60405180910390a3505050565b6000610c2d84846108cf565b90507fffffffffffffffffffffffffffffffffffffffffffffffffffffffffffffffff8114610ca75781811015610c99576040517f08c379a0000000000000000000000000000000000000000000000000000000008152600401610c9090611740565b60405180910390fd5b610ca68484848403610a56565b5b50505050565b600073ffffffffffffffffffffffffffffffffffffffff168373ffffffffffffffffffffffffffffffffffffffff161415610d1d576040517f08c379a0000000000000000000000000000000000000000000000000000000008152600401610d14906117c0565b60405180910390fd5b600073ffffffffffffffffffffffffffffffffffffffff168273ffffffffffffffffffffffffffffffffffffffff161415610d8d576040517f08c379a0000000000000000000000000000000000000000000000000000000008152600401610d84906116c0565b60405180910390fd5b610d9883838361132b565b60008060008573ffffffffffffffffffffffffffffffffffffffff1673ffffffffffffffffffffffffffffffffffffffff16815260200190815260200160002054905081811015610e1e576040517f08c379a0000000000000000000000000000000000000000000000000000000008152600401610e1590611760565b60405180910390fd5b8181036000808673ffffffffffffffffffffffffffffffffffffffff1673ffffffffffffffffffffffffffffffffffffffff16815260200190815260200160002081905550816000808573ffffffffffffffffffffffffffffffffffffffff1673ffffffffffffffffffffffffffffffffffffffff1681526020019081526020016000206000828254610eb19190611892565b925050819055508273ffffffffffffffffffffffffffffffffffffffff168473ffffffffffffffffffffffffffffffffffffffff167fddf252ad1be2c89b69c2b068fc378daa952ba7f163c4a11628f55a4df523b3ef84604051610f159190611840565b60405180910390a3610f28848484611330565b50505050565b600073ffffffffffffffffffffffffffffffffffffffff168273ffffffffffffffffffffffffffffffffffffffff161415610f9e576040517f08c379a0000000000000000000000000000000000000000000000000000000008152600401610f9590611820565b60405180910390fd5b610faa6000838361132b565b8060026000828254610fbc9190611892565b92505081905550806000808473ffffffffffffffffffffffffffffffffffffffff1673ffffffffffffffffffffffffffffffffffffffff16815260200190815260200160002060008282546110119190611892565b925050819055508173ffffffffffffffffffffffffffffffffffffffff16600073ffffffffffffffffffffffffffffffffffffffff167fddf252ad1be2c89b69c2b068fc378daa952ba7f163c4a11628f55a4df523b3ef836040516110769190611840565b60405180910390a361108a60008383611330565b5050565b6000600560009054906101000a900473ffffffffffffffffffffffffffffffffffffffff16905081600560006101000a81548173ffffffffffffffffffffffffffffffffffffffff021916908373ffffffffffffffffffffffffffffffffffffffff1602179055508173ffffffffffffffffffffffffffffffffffffffff168173ffffffffffffffffffffffffffffffffffffffff167f8be0079c531659141344cd1fd0a4f28419497f9722a3daafe3b4186f6b6457e060405160405180910390a35050565b600073ffffffffffffffffffffffffffffffffffffffff168273ffffffffffffffffffffffffffffffffffffffff1614156111c4576040517f08c379a00000000000000000000000000000000000000000000000000000000081526004016111bb906117a0565b60405180910390fd5b6111d08260008361132b565b60008060008473ffffffffffffffffffffffffffffffffffffffff1673ffffffffffffffffffffffffffffffffffffffff16815260200190815260200160002054905081811015611256576040517f08c379a000000000000000000000000000000000000000000000000000000000815260040161124d906116e0565b60405180910390fd5b8181036000808573ffffffffffffffffffffffffffffffffffffffff1673ffffffffffffffffffffffffffffffffffffffff1681526020019081526020016000208190555081600260008282546112ad91906118e8565b92505081905550600073ffffffffffffffffffffffffffffffffffffffff168373ffffffffffffffffffffffffffffffffffffffff167fddf252ad1be2c89b69c2b068fc378daa952ba7f163c4a11628f55a4df523b3ef846040516113129190611840565b60405180910390a361132683600084611330565b505050565b505050565b505050565b60008135905061134481611d87565b92915050565b60008135905061135981611d9e565b92915050565b60006020828403121561137157600080fd5b600061137f84828501611335565b91505092915050565b6000806040838503121561139b57600080fd5b60006113a985828601611335565b92505060206113ba85828601611335565b9150509250929050565b6000806000606084860312156113d957600080fd5b60006113e786828701611335565b93505060206113f886828701611335565b92505060406114098682870161134a565b9150509250925092565b6000806040838503121561142657600080fd5b600061143485828601611335565b92505060206114458582860161134a565b9150509250929050565b6114588161191c565b82525050565b6114678161192e565b82525050565b600061147882611876565b6114828185611881565b9350611492818560208601611971565b61149b81611a34565b840191505092915050565b60006114b3602383611881565b91506114be82611a45565b604082019050919050565b60006114d6602283611881565b91506114e182611a94565b604082019050919050565b60006114f9602683611881565b915061150482611ae3565b604082019050919050565b600061151c602283611881565b915061152782611b32565b604082019050919050565b600061153f601d83611881565b915061154a82611b81565b602082019050919050565b6000611562602683611881565b915061156d82611baa565b604082019050919050565b6000611585602083611881565b915061159082611bf9565b602082019050919050565b60006115a8602183611881565b91506115b382611c22565b604082019050919050565b60006115cb602583611881565b91506115d682611c71565b604082019050919050565b60006115ee602483611881565b91506115f982611cc0565b604082019050919050565b6000611611602583611881565b915061161c82611d0f565b604082019050919050565b6000611634601f83611881565b915061163f82611d5e565b602082019050919050565b6116538161195a565b82525050565b61166281611964565b82525050565b600060208201905061167d600083018461144f565b92915050565b6000602082019050611698600083018461145e565b92915050565b600060208201905081810360008301526116b8818461146d565b905092915050565b600060208201905081810360008301526116d9816114a6565b9050919050565b600060208201905081810360008301526116f9816114c9565b9050919050565b60006020820190508181036000830152611719816114ec565b9050919050565b600060208201905081810360008301526117398161150f565b9050919050565b6000602082019050818103600083015261175981611532565b9050919050565b6000602082019050818103600083015261177981611555565b9050919050565b6000602082019050818103600083015261179981611578565b9050919050565b600060208201905081810360008301526117b98161159b565b9050919050565b600060208201905081810360008301526117d9816115be565b9050919050565b600060208201905081810360008301526117f9816115e1565b9050919050565b6000602082019050818103600083015261181981611604565b9050919050565b6000602082019050818103600083015261183981611627565b9050919050565b6000602082019050611855600083018461164a565b92915050565b60006020820190506118706000830184611659565b92915050565b600081519050919050565b600082825260208201905092915050565b600061189d8261195a565b91506118a88361195a565b9250827fffffffffffffffffffffffffffffffffffffffffffffffffffffffffffffffff038211156118dd576118dc6119d6565b5b828201905092915050565b60006118f38261195a565b91506118fe8361195a565b925082821015611911576119106119d6565b5b828203905092915050565b60006119278261193a565b9050919050565b60008115159050919050565b600073ffffffffffffffffffffffffffffffffffffffff82169050919050565b6000819050919050565b600060ff82169050919050565b60005b8381101561198f578082015181840152602081019050611974565b8381111561199e576000848401525b50505050565b600060028204905060018216806119bc57607f821691505b602082108114156119d0576119cf611a05565b5b50919050565b7f4e487b7100000000000000000000000000000000000000000000000000000000600052601160045260246000fd5b7f4e487b7100000000000000000000000000000000000000000000000000000000600052602260045260246000fd5b6000601f19601f8301169050919050565b7f45524332303a207472616e7366657220746f20746865207a65726f206164647260008201527f6573730000000000000000000000000000000000000000000000000000000000602082015250565b7f45524332303a206275726e20616d6f756e7420657863656564732062616c616e60008201527f6365000000000000000000000000000000000000000000000000000000000000602082015250565b7f4f776e61626c653a206e6577206f776e657220697320746865207a65726f206160008201527f6464726573730000000000000000000000000000000000000000000000000000602082015250565b7f45524332303a20617070726f766520746f20746865207a65726f20616464726560008201527f7373000000000000000000000000000000000000000000000000000000000000602082015250565b7f45524332303a20696e73756666696369656e7420616c6c6f77616e6365000000600082015250565b7f45524332303a207472616e7366657220616d6f756e742065786365656473206260008201527f616c616e63650000000000000000000000000000000000000000000000000000602082015250565b7f4f776e61626c653a2063616c6c6572206973206e6f7420746865206f776e6572600082015250565b7f45524332303a206275726e2066726f6d20746865207a65726f2061646472657360008201527f7300000000000000000000000000000000000000000000000000000000000000602082015250565b7f45524332303a207472616e736665722066726f6d20746865207a65726f20616460008201527f6472657373000000000000000000000000000000000000000000000000000000602082015250565b7f45524332303a20617070726f76652066726f6d20746865207a65726f2061646460008201527f7265737300000000000000000000000000000000000000000000000000000000602082015250565b7f45524332303a2064656372656173656420616c6c6f77616e63652062656c6f7760008201527f207a65726f000000000000000000000000000000000000000000000000000000602082015250565b7f45524332303a206d696e7420746f20746865207a65726f206164647265737300600082015250565b611d908161191c565b8114611d9b57600080fd5b50565b611da78161195a565b8114611db257600080fd5b5056fea264697066735822122066545f6a94dc0f3aa765ff1737b4c22a901a067587ce851c85b42b1e5166175d64736f6c63430008040033a2646970667358221220edb1e7fe60714062066e4efa7a067358966d460c8a4d5776928aacd6062ff60964736f6c63430008040033",
  "linkReferences": {},
  "deployedLinkReferences": {}
}