{
  "_format": "hh-sol-artifact-1",
  "contractName": "ERC20Bridge",
  "sourceName": "contracts/Bridge.sol",
  "abi": [
    {
      "anonymous": false,
      "inputs": [
        {
          "indexed": false,
          "internalType": "address",
          "name": "dest",
          "type": "address"
        },
        {
          "indexed": false,
          "internalType": "address",
          "name": "src",
          "type": "address"
        }
      ],
      "name": "AddedDestination",
      "type": "event"
    },
    {
      "anonymous": false,
      "inputs": [
        {
          "indexed": false,
          "internalType": "bytes32",
          "name": "bridgeLock",
          "type": "bytes32"
        }
      ],
      "name": "CoinBridged",
      "type": "event"
    },
    {
      "anonymous": false,
      "inputs": [
        {
          "indexed": false,
          "internalType": "address",
          "name": "newContract",
          "type": "address"
        }
      ],
      "name": "CoinContractAdded",
      "type": "event"
    },
    {
      "anonymous": false,
      "inputs": [
        {
          "indexed": false,
          "internalType": "bytes32",
          "name": "bridgeLock",
          "type": "bytes32"
        }
      ],
      "name": "CoinRefundLocked",
      "type": "event"
    },
    {
      "anonymous": false,
      "inputs": [
        {
          "indexed": false,
          "internalType": "bytes32",
          "name": "bridgeLock",
          "type": "bytes32"
        },
        {
          "indexed": false,
          "internalType": "bytes32",
          "name": "preimage",
          "type": "bytes32"
        }
      ],
      "name": "CoinRefunded",
      "type": "event"
    },
    {
      "anonymous": false,
      "inputs": [
        {
          "indexed": false,
          "internalType": "bytes32",
          "name": "bridgeLock",
          "type": "bytes32"
        }
      ],
      "name": "CoinReleaseLocked",
      "type": "event"
    },
    {
      "anonymous": false,
      "inputs": [
        {
          "indexed": false,
          "internalType": "bytes32",
          "name": "bridgeLock",
          "type": "bytes32"
        },
        {
          "indexed": false,
          "internalType": "bytes32",
          "name": "preimage",
          "type": "bytes32"
        }
      ],
      "name": "CoinReleased",
      "type": "event"
    },
    {
      "anonymous": false,
      "inputs": [
        {
          "indexed": true,
          "internalType": "address",
          "name": "previousOwner",
          "type": "address"
        },
        {
          "indexed": true,
          "internalType": "address",
          "name": "newOwner",
          "type": "address"
        }
      ],
      "name": "OwnershipTransferred",
      "type": "event"
    },
    {
      "anonymous": false,
      "inputs": [
        {
          "indexed": false,
          "internalType": "bytes32",
          "name": "bridgeLock",
          "type": "bytes32"
        }
      ],
      "name": "ReleaseAdded",
      "type": "event"
    },
    {
      "inputs": [
        {
          "internalType": "address",
          "name": "_contract",
          "type": "address"
        }
      ],
      "name": "addCoin",
      "outputs": [],
      "stateMutability": "nonpayable",
      "type": "function"
    },
    {
      "inputs": [
        {
          "internalType": "bool",
          "name": "shouldDeploy",
          "type": "bool"
        },
        {
          "internalType": "address",
          "name": "_destErc20",
          "type": "address"
        },
        {
          "internalType": "address",
          "name": "_sourceErc20",
          "type": "address"
        },
        {
          "internalType": "string",
          "name": "_coinName",
          "type": "string"
        },
        {
          "internalType": "string",
          "name": "_coinDenom",
          "type": "string"
        }
      ],
      "name": "addMissingDestination",
      "outputs": [],
      "stateMutability": "nonpayable",
      "type": "function"
    },
    {
      "inputs": [
        {
          "internalType": "bytes32",
          "name": "_bridgeLockId",
          "type": "bytes32"
        },
        {
          "internalType": "address",
          "name": "_sourceErc20",
          "type": "address"
        },
        {
          "internalType": "address",
          "name": "_sender",
          "type": "address"
        },
        {
          "internalType": "address",
          "name": "_receiver",
          "type": "address"
        },
        {
          "internalType": "uint256",
          "name": "_amount",
          "type": "uint256"
        },
        {
          "internalType": "bytes32",
          "name": "_hashlock",
          "type": "bytes32"
        }
      ],
      "name": "addRelease",
      "outputs": [],
      "stateMutability": "nonpayable",
      "type": "function"
    },
    {
      "inputs": [
        {
          "internalType": "address",
          "name": "_srcErc20",
          "type": "address"
        },
        {
          "internalType": "address",
          "name": "_receiver",
          "type": "address"
        },
        {
          "internalType": "uint256",
          "name": "_amount",
          "type": "uint256"
        },
        {
          "internalType": "bytes32",
          "name": "_hashlock",
          "type": "bytes32"
        }
      ],
      "name": "bridgeCoin",
      "outputs": [],
      "stateMutability": "nonpayable",
      "type": "function"
    },
    {
      "inputs": [
        {
          "internalType": "address",
          "name": "_srcCoin",
          "type": "address"
        }
      ],
      "name": "destinationExists",
      "outputs": [
        {
          "internalType": "bool",
          "name": "",
          "type": "bool"
        }
      ],
      "stateMutability": "view",
      "type": "function"
    },
    {
      "inputs": [],
      "name": "getAvailableCoins",
      "outputs": [
        {
          "internalType": "address[]",
          "name": "",
          "type": "address[]"
        }
      ],
      "stateMutability": "view",
      "type": "function"
    },
    {
      "inputs": [
        {
          "internalType": "bytes32",
          "name": "_bridgeLockId",
          "type": "bytes32"
        }
      ],
      "name": "getBridgeLock",
      "outputs": [
        {
          "components": [
            {
              "internalType": "bytes32",
              "name": "id",
              "type": "bytes32"
            },
            {
              "internalType": "bytes32",
              "name": "hashlock",
              "type": "bytes32"
            },
            {
              "internalType": "bytes32",
              "name": "preimage",
              "type": "bytes32"
            },
            {
              "internalType": "address",
              "name": "erc20Contract",
              "type": "address"
            },
            {
              "internalType": "address",
              "name": "sender",
              "type": "address"
            },
            {
              "internalType": "address",
              "name": "receiver",
              "type": "address"
            },
            {
              "internalType": "uint256",
              "name": "amount",
              "type": "uint256"
            },
            {
              "internalType": "bool",
              "name": "active",
              "type": "bool"
            },
            {
              "internalType": "bool",
              "name": "isThisSrc",
              "type": "bool"
            }
          ],
          "internalType": "struct ERC20Bridge.BridgeLock",
          "name": "c",
          "type": "tuple"
        }
      ],
      "stateMutability": "view",
      "type": "function"
    },
    {
      "inputs": [],
      "name": "getBridges",
      "outputs": [
        {
          "components": [
            {
              "internalType": "bytes32",
              "name": "id",
              "type": "bytes32"
            },
            {
              "internalType": "bytes32",
              "name": "hashlock",
              "type": "bytes32"
            },
            {
              "internalType": "bytes32",
              "name": "preimage",
              "type": "bytes32"
            },
            {
              "internalType": "address",
              "name": "erc20Contract",
              "type": "address"
            },
            {
              "internalType": "address",
              "name": "sender",
              "type": "address"
            },
            {
              "internalType": "address",
              "name": "receiver",
              "type": "address"
            },
            {
              "internalType": "uint256",
              "name": "amount",
              "type": "uint256"
            },
            {
              "internalType": "bool",
              "name": "active",
              "type": "bool"
            },
            {
              "internalType": "bool",
              "name": "isThisSrc",
              "type": "bool"
            }
          ],
          "internalType": "struct ERC20Bridge.BridgeLock[]",
          "name": "",
          "type": "tuple[]"
        }
      ],
      "stateMutability": "view",
      "type": "function"
    },
    {
      "inputs": [
        {
          "internalType": "address",
          "name": "_srcContract",
          "type": "address"
        }
      ],
      "name": "getDestinationContract",
      "outputs": [
        {
          "internalType": "address",
          "name": "",
          "type": "address"
        }
      ],
      "stateMutability": "view",
      "type": "function"
    },
    {
      "inputs": [
        {
          "internalType": "address",
          "name": "_coinContract",
          "type": "address"
        }
      ],
      "name": "isContractOriginal",
      "outputs": [
        {
          "internalType": "bool",
          "name": "",
          "type": "bool"
        }
      ],
      "stateMutability": "view",
      "type": "function"
    },
    {
      "inputs": [
        {
          "internalType": "bytes32",
          "name": "_bridgeLockId",
          "type": "bytes32"
        },
        {
          "internalType": "bytes32",
          "name": "_preimage",
          "type": "bytes32"
        }
      ],
      "name": "lockBridge",
      "outputs": [],
      "stateMutability": "nonpayable",
      "type": "function"
    },
    {
      "inputs": [],
      "name": "owner",
      "outputs": [
        {
          "internalType": "address",
          "name": "",
          "type": "address"
        }
      ],
      "stateMutability": "view",
      "type": "function"
    },
    {
      "inputs": [
        {
          "internalType": "bytes32",
          "name": "_bridgeLockId",
          "type": "bytes32"
        },
        {
          "internalType": "bytes32",
          "name": "_preimage",
          "type": "bytes32"
        }
      ],
      "name": "refund",
      "outputs": [],
      "stateMutability": "nonpayable",
      "type": "function"
    },
    {
      "inputs": [
        {
          "internalType": "bytes32",
          "name": "_bridgeLockId",
          "type": "bytes32"
        },
        {
          "internalType": "bytes32",
          "name": "_preimage",
          "type": "bytes32"
        }
      ],
      "name": "releaseCoin",
      "outputs": [],
      "stateMutability": "nonpayable",
      "type": "function"
    },
    {
      "inputs": [],
      "name": "renounceOwnership",
      "outputs": [],
      "stateMutability": "nonpayable",
      "type": "function"
    },
    {
      "inputs": [
        {
          "internalType": "address",
          "name": "newOwner",
          "type": "address"
        }
      ],
      "name": "transferOwnership",
      "outputs": [],
      "stateMutability": "nonpayable",
      "type": "function"
    }
  ],
  "bytecode": "0x60806040523480156200001157600080fd5b5062000032620000266200003860201b60201c565b6200004060201b60201c565b62000104565b600033905090565b60008060009054906101000a900473ffffffffffffffffffffffffffffffffffffffff169050816000806101000a81548173ffffffffffffffffffffffffffffffffffffffff021916908373ffffffffffffffffffffffffffffffffffffffff1602179055508173ffffffffffffffffffffffffffffffffffffffff168173ffffffffffffffffffffffffffffffffffffffff167f8be0079c531659141344cd1fd0a4f28419497f9722a3daafe3b4186f6b6457e060405160405180910390a35050565b615ba280620001146000396000f3fe60806040523480156200001157600080fd5b5060043610620001185760003560e01c8063804e4f7b11620000a5578063e4683a79116200006f578063e4683a7914620002e5578063f2fde38b1462000305578063f6c6ea531462000325578063ff40309f14620003455762000118565b8063804e4f7b146200024d578063846b91e3146200026d5780638bc56e0514620002a35780638da5cb5b14620002c35762000118565b806369c7e72511620000e757806369c7e72514620001b55780636fad242614620001d5578063715018a6146200020b57806372e2bda914620002175762000118565b806316da8632146200011d5780632dce0a6b146200013d57806348cd0421146200015f5780634f0d06531462000195575b600080fd5b6200013b6004803603810190620001359190620024be565b62000367565b005b620001476200052f565b60405162000156919062002ed1565b60405180910390f35b6200017d600480360381019062000177919062002636565b6200067d565b6040516200018c9190620031fb565b60405180910390f35b620001b36004803603810190620001ad919062002662565b6200080d565b005b620001d36004803603810190620001cd9190620026f8565b62000b74565b005b620001f36004803603810190620001ed9190620024be565b62000fc1565b60405162000202919062002df9565b60405180910390f35b620002156200102a565b005b6200023560048036038101906200022f9190620024be565b620010bb565b60405162000244919062002ef5565b60405180910390f35b6200026b600480360381019062000265919062002582565b62001111565b005b6200028b6004803603810190620002859190620024be565b620013d4565b6040516200029a919062002ef5565b60405180910390f35b620002c16004803603810190620002bb9190620026f8565b62001417565b005b620002cd62001653565b604051620002dc919062002df9565b60405180910390f35b620003036004803603810190620002fd9190620026f8565b6200167c565b005b6200032360048036038101906200031d9190620024be565b62001b79565b005b6200034360048036038101906200033d9190620024ea565b62001c7d565b005b6200034f6200218d565b6040516200035e919062002ead565b60405180910390f35b620003716200221d565b73ffffffffffffffffffffffffffffffffffffffff166200039162001653565b73ffffffffffffffffffffffffffffffffffffffff1614620003ea576040517f08c379a0000000000000000000000000000000000000000000000000000000008152600401620003e190620030c9565b60405180910390fd5b620003f581620010bb565b1562000438576040517f08c379a00000000000000000000000000000000000000000000000000000000081526004016200042f906200312f565b60405180910390fd5b6001819080600181540180825580915050600190039060005260206000200160009091909190916101000a81548173ffffffffffffffffffffffffffffffffffffffff021916908373ffffffffffffffffffffffffffffffffffffffff1602179055506001600460008373ffffffffffffffffffffffffffffffffffffffff1673ffffffffffffffffffffffffffffffffffffffff16815260200190815260200160002060006101000a81548160ff0219169083151502179055507f06452172ed60e129f27dd6ecdf5177efe9a2ca42e02008958ffbcbf6a96858038160405162000524919062002df9565b60405180910390a150565b6060600060028054905067ffffffffffffffff81111562000579577f4e487b7100000000000000000000000000000000000000000000000000000000600052604160045260246000fd5b604051908082528060200260200182016040528015620005b657816020015b620005a262002330565b815260200190600190039081620005985790505b50905060005b60028054905081101562000675576200061a6002828154811062000609577f4e487b7100000000000000000000000000000000000000000000000000000000600052603260045260246000fd5b90600052602060002001546200067d565b82828151811062000654577f4e487b7100000000000000000000000000000000000000000000000000000000600052603260045260246000fd5b602002602001018190525080806200066c90620033d5565b915050620005bc565b508091505090565b6200068762002330565b60036000838152602001908152602001600020604051806101200160405290816000820154815260200160018201548152602001600282015481526020016003820160009054906101000a900473ffffffffffffffffffffffffffffffffffffffff1673ffffffffffffffffffffffffffffffffffffffff1673ffffffffffffffffffffffffffffffffffffffff1681526020016004820160009054906101000a900473ffffffffffffffffffffffffffffffffffffffff1673ffffffffffffffffffffffffffffffffffffffff1673ffffffffffffffffffffffffffffffffffffffff1681526020016005820160009054906101000a900473ffffffffffffffffffffffffffffffffffffffff1673ffffffffffffffffffffffffffffffffffffffff1673ffffffffffffffffffffffffffffffffffffffff168152602001600682015481526020016007820160009054906101000a900460ff161515151581526020016007820160019054906101000a900460ff1615151515815250509050919050565b620008176200221d565b73ffffffffffffffffffffffffffffffffffffffff166200083762001653565b73ffffffffffffffffffffffffffffffffffffffff161462000890576040517f08c379a00000000000000000000000000000000000000000000000000000000081526004016200088790620030c9565b60405180910390fd5b6200089b8662002225565b15620008de576040517f08c379a0000000000000000000000000000000000000000000000000000000008152600401620008d59062003085565b60405180910390fd5b620008e985620013d4565b6200092b576040517f08c379a0000000000000000000000000000000000000000000000000000000008152600401620009229062003063565b60405180910390fd5b60028690806001815401808255809150506001900390600052602060002001600090919091909150556040518061012001604052808781526020018281526020016000801b81526020018673ffffffffffffffffffffffffffffffffffffffff1681526020018573ffffffffffffffffffffffffffffffffffffffff1681526020018473ffffffffffffffffffffffffffffffffffffffff168152602001838152602001600115158152602001600015158152506003600088815260200190815260200160002060008201518160000155602082015181600101556040820151816002015560608201518160030160006101000a81548173ffffffffffffffffffffffffffffffffffffffff021916908373ffffffffffffffffffffffffffffffffffffffff16021790555060808201518160040160006101000a81548173ffffffffffffffffffffffffffffffffffffffff021916908373ffffffffffffffffffffffffffffffffffffffff16021790555060a08201518160050160006101000a81548173ffffffffffffffffffffffffffffffffffffffff021916908373ffffffffffffffffffffffffffffffffffffffff16021790555060c0820151816006015560e08201518160070160006101000a81548160ff0219169083151502179055506101008201518160070160016101000a81548160ff0219169083151502179055509050507f7d8b50eea1361e487a491b69353f2bb3d3d5f871c083c39424819c8f15c92c6f8660405162000b64919062002f12565b60405180910390a1505050505050565b8162000b808162002225565b62000bc2576040517f08c379a000000000000000000000000000000000000000000000000000000000815260040162000bb99062002ffd565b60405180910390fd5b6003600084815260200190815260200160002060010154828060405160200162000bed919062002ddc565b60405160208183030381529060405280519060200120821462000c47576040517f08c379a000000000000000000000000000000000000000000000000000000000815260040162000c3e90620031b7565b60405180910390fd5b846003600082815260200190815260200160002060070160009054906101000a900460ff1662000cae576040517f08c379a000000000000000000000000000000000000000000000000000000000815260040162000ca590620030a7565b60405180910390fd5b60006003600088815260200190815260200160002090503373ffffffffffffffffffffffffffffffffffffffff168160050160009054906101000a900473ffffffffffffffffffffffffffffffffffffffff1673ffffffffffffffffffffffffffffffffffffffff161462000d5a576040517f08c379a000000000000000000000000000000000000000000000000000000000815260040162000d519062003151565b60405180910390fd5b60008160070160006101000a81548160ff021916908315150217905550858160020181905550600062000db18260030160009054906101000a900473ffffffffffffffffffffffffffffffffffffffff1662000fc1565b905062000dbe81620010bb565b62000ea2578073ffffffffffffffffffffffffffffffffffffffff166340c10f193384600601546040518363ffffffff1660e01b815260040162000e0492919062002e80565b602060405180830381600087803b15801562000e1f57600080fd5b505af115801562000e34573d6000803e3d6000fd5b505050506040513d601f19601f8201168201806040525081019062000e5a919062002556565b62000e9c576040517f08c379a000000000000000000000000000000000000000000000000000000000815260040162000e939062003041565b60405180910390fd5b62000f7c565b8073ffffffffffffffffffffffffffffffffffffffff1663a9059cbb3384600601546040518363ffffffff1660e01b815260040162000ee392919062002e80565b602060405180830381600087803b15801562000efe57600080fd5b505af115801562000f13573d6000803e3d6000fd5b505050506040513d601f19601f8201168201806040525081019062000f39919062002556565b62000f7b576040517f08c379a000000000000000000000000000000000000000000000000000000000815260040162000f72906200310d565b60405180910390fd5b5b7fae13508b7012afb645b5a3fc272161302ae08fb5ed9cf02090c6c06bdc515ef3888860405162000faf92919062002f2f565b60405180910390a15050505050505050565b6000600560008373ffffffffffffffffffffffffffffffffffffffff1673ffffffffffffffffffffffffffffffffffffffff16815260200190815260200160002060009054906101000a900473ffffffffffffffffffffffffffffffffffffffff169050919050565b620010346200221d565b73ffffffffffffffffffffffffffffffffffffffff166200105462001653565b73ffffffffffffffffffffffffffffffffffffffff1614620010ad576040517f08c379a0000000000000000000000000000000000000000000000000000000008152600401620010a490620030c9565b60405180910390fd5b620010b960006200226c565b565b6000600460008373ffffffffffffffffffffffffffffffffffffffff1673ffffffffffffffffffffffffffffffffffffffff16815260200190815260200160002060009054906101000a900460ff169050919050565b6200111b6200221d565b73ffffffffffffffffffffffffffffffffffffffff166200113b62001653565b73ffffffffffffffffffffffffffffffffffffffff161462001194576040517f08c379a00000000000000000000000000000000000000000000000000000000081526004016200118b90620030c9565b60405180910390fd5b6200119f83620013d4565b15620011e2576040517f08c379a0000000000000000000000000000000000000000000000000000000008152600401620011d9906200301f565b60405180910390fd5b8415620013135760008282604051620011fb90620023cb565b6200120892919062002f5c565b604051809103906000f08015801562001225573d6000803e3d6000fd5b50905080945084600560008673ffffffffffffffffffffffffffffffffffffffff1673ffffffffffffffffffffffffffffffffffffffff16815260200190815260200160002060006101000a81548173ffffffffffffffffffffffffffffffffffffffff021916908373ffffffffffffffffffffffffffffffffffffffff1602179055506001859080600181540180825580915050600190039060005260206000200160009091909190916101000a81548173ffffffffffffffffffffffffffffffffffffffff021916908373ffffffffffffffffffffffffffffffffffffffff1602179055505062001392565b82600560008673ffffffffffffffffffffffffffffffffffffffff1673ffffffffffffffffffffffffffffffffffffffff16815260200190815260200160002060006101000a81548173ffffffffffffffffffffffffffffffffffffffff021916908373ffffffffffffffffffffffffffffffffffffffff1602179055505b7f74b09f3cf069890c18dbbc7a1949534c6139ec2daaa8ca73f28d0a5b514bc7c48484604051620013c592919062002e16565b60405180910390a15050505050565b60008073ffffffffffffffffffffffffffffffffffffffff16620013f88362000fc1565b73ffffffffffffffffffffffffffffffffffffffff1614159050919050565b620014216200221d565b73ffffffffffffffffffffffffffffffffffffffff166200144162001653565b73ffffffffffffffffffffffffffffffffffffffff16146200149a576040517f08c379a00000000000000000000000000000000000000000000000000000000081526004016200149190620030c9565b60405180910390fd5b81620014a68162002225565b620014e8576040517f08c379a0000000000000000000000000000000000000000000000000000000008152600401620014df9062002ffd565b60405180910390fd5b826003600082815260200190815260200160002060070160009054906101000a900460ff166200154f576040517f08c379a00000000000000000000000000000000000000000000000000000000081526004016200154690620030a7565b60405180910390fd5b600360008581526020019081526020016000206001015483806040516020016200157a919062002ddc565b604051602081830303815290604052805190602001208214620015d4576040517f08c379a0000000000000000000000000000000000000000000000000000000008152600401620015cb90620031b7565b60405180910390fd5b600060036000888152602001908152602001600020905060008160070160006101000a81548160ff0219169083151502179055508581600201819055507f1f4f67c737eeba13476cae0a3f4c79312ea1ba6d1b58cb0b4f10c87354a461c78760405162001642919062002f12565b60405180910390a150505050505050565b60008060009054906101000a900473ffffffffffffffffffffffffffffffffffffffff16905090565b81620016888162002225565b620016ca576040517f08c379a0000000000000000000000000000000000000000000000000000000008152600401620016c19062002ffd565b60405180910390fd5b826003600082815260200190815260200160002060070160009054906101000a900460ff1662001731576040517f08c379a00000000000000000000000000000000000000000000000000000000081526004016200172890620030a7565b60405180910390fd5b600360008581526020019081526020016000206001015483806040516020016200175c919062002ddc565b604051602081830303815290604052805190602001208214620017b6576040517f08c379a0000000000000000000000000000000000000000000000000000000008152600401620017ad90620031b7565b60405180910390fd5b3373ffffffffffffffffffffffffffffffffffffffff166003600088815260200190815260200160002060040160009054906101000a900473ffffffffffffffffffffffffffffffffffffffff1673ffffffffffffffffffffffffffffffffffffffff16146200185d576040517f08c379a0000000000000000000000000000000000000000000000000000000008152600401620018549062003173565b60405180910390fd5b600060036000888152602001908152602001600020905060008160070160006101000a81548160ff021916908315150217905550858160020181905550600460008260030160009054906101000a900473ffffffffffffffffffffffffffffffffffffffff1673ffffffffffffffffffffffffffffffffffffffff1673ffffffffffffffffffffffffffffffffffffffff16815260200190815260200160002060009054906101000a900460ff1662001a13578060030160009054906101000a900473ffffffffffffffffffffffffffffffffffffffff1673ffffffffffffffffffffffffffffffffffffffff166340c10f193383600601546040518363ffffffff1660e01b81526004016200197592919062002e80565b602060405180830381600087803b1580156200199057600080fd5b505af1158015620019a5573d6000803e3d6000fd5b505050506040513d601f19601f82011682018060405250810190620019cb919062002556565b62001a0d576040517f08c379a000000000000000000000000000000000000000000000000000000000815260040162001a0490620031d9565b60405180910390fd5b62001b35565b8060030160009054906101000a900473ffffffffffffffffffffffffffffffffffffffff1673ffffffffffffffffffffffffffffffffffffffff1663a9059cbb8260040160009054906101000a900473ffffffffffffffffffffffffffffffffffffffff1683600601546040518363ffffffff1660e01b815260040162001a9c92919062002e80565b602060405180830381600087803b15801562001ab757600080fd5b505af115801562001acc573d6000803e3d6000fd5b505050506040513d601f19601f8201168201806040525081019062001af2919062002556565b62001b34576040517f08c379a000000000000000000000000000000000000000000000000000000000815260040162001b2b90620030eb565b60405180910390fd5b5b7f72bd658852abad871726c183c8b61abc4c3db69311f3c7c650cc775d129aee4f878760405162001b6892919062002f2f565b60405180910390a150505050505050565b62001b836200221d565b73ffffffffffffffffffffffffffffffffffffffff1662001ba362001653565b73ffffffffffffffffffffffffffffffffffffffff161462001bfc576040517f08c379a000000000000000000000000000000000000000000000000000000000815260040162001bf390620030c9565b60405180910390fd5b600073ffffffffffffffffffffffffffffffffffffffff168173ffffffffffffffffffffffffffffffffffffffff16141562001c6f576040517f08c379a000000000000000000000000000000000000000000000000000000000815260040162001c669062002fdb565b60405180910390fd5b62001c7a816200226c565b50565b6000821162001cc3576040517f08c379a000000000000000000000000000000000000000000000000000000000815260040162001cba9062003195565b60405180910390fd5b6000334260405160200162001cda92919062002dac565b60405160208183030381529060405280519060200120905062001cfd8162002225565b1562001d40576040517f08c379a000000000000000000000000000000000000000000000000000000000815260040162001d379062002fb9565b60405180910390fd5b60028190806001815401808255809150506001900390600052602060002001600090919091909150556040518061012001604052808281526020018381526020016000801b81526020018673ffffffffffffffffffffffffffffffffffffffff1681526020013373ffffffffffffffffffffffffffffffffffffffff1681526020018573ffffffffffffffffffffffffffffffffffffffff168152602001848152602001600115158152602001600115158152506003600083815260200190815260200160002060008201518160000155602082015181600101556040820151816002015560608201518160030160006101000a81548173ffffffffffffffffffffffffffffffffffffffff021916908373ffffffffffffffffffffffffffffffffffffffff16021790555060808201518160040160006101000a81548173ffffffffffffffffffffffffffffffffffffffff021916908373ffffffffffffffffffffffffffffffffffffffff16021790555060a08201518160050160006101000a81548173ffffffffffffffffffffffffffffffffffffffff021916908373ffffffffffffffffffffffffffffffffffffffff16021790555060c0820151816006015560e08201518160070160006101000a81548160ff0219169083151502179055506101008201518160070160016101000a81548160ff021916908315150217905550905050600460008673ffffffffffffffffffffffffffffffffffffffff1673ffffffffffffffffffffffffffffffffffffffff16815260200190815260200160002060009054906101000a900460ff1662002075578473ffffffffffffffffffffffffffffffffffffffff16639dc29fac33856040518363ffffffff1660e01b815260040162001fd792919062002e80565b602060405180830381600087803b15801562001ff257600080fd5b505af115801562002007573d6000803e3d6000fd5b505050506040513d601f19601f820116820180604052508101906200202d919062002556565b6200206f576040517f08c379a0000000000000000000000000000000000000000000000000000000008152600401620020669062002f97565b60405180910390fd5b6200214d565b8473ffffffffffffffffffffffffffffffffffffffff166323b872dd3330866040518463ffffffff1660e01b8152600401620020b49392919062002e43565b602060405180830381600087803b158015620020cf57600080fd5b505af1158015620020e4573d6000803e3d6000fd5b505050506040513d601f19601f820116820180604052508101906200210a919062002556565b6200214c576040517f08c379a00000000000000000000000000000000000000000000000000000000081526004016200214390620030eb565b60405180910390fd5b5b7fb2f309809a4fc51a68e04ac2f5328b8d78a3bb74f6616e8bc5958b75e215d560816040516200217e919062002f12565b60405180910390a15050505050565b606060018054806020026020016040519081016040528092919081815260200182805480156200221357602002820191906000526020600020905b8160009054906101000a900473ffffffffffffffffffffffffffffffffffffffff1673ffffffffffffffffffffffffffffffffffffffff1681526020019060010190808311620021c8575b5050505050905090565b600033905090565b60008073ffffffffffffffffffffffffffffffffffffffff1662002249836200067d565b6080015173ffffffffffffffffffffffffffffffffffffffff1614159050919050565b60008060009054906101000a900473ffffffffffffffffffffffffffffffffffffffff169050816000806101000a81548173ffffffffffffffffffffffffffffffffffffffff021916908373ffffffffffffffffffffffffffffffffffffffff1602179055508173ffffffffffffffffffffffffffffffffffffffff168173ffffffffffffffffffffffffffffffffffffffff167f8be0079c531659141344cd1fd0a4f28419497f9722a3daafe3b4186f6b6457e060405160405180910390a35050565b604051806101200160405280600080191681526020016000801916815260200160008019168152602001600073ffffffffffffffffffffffffffffffffffffffff168152602001600073ffffffffffffffffffffffffffffffffffffffff168152602001600073ffffffffffffffffffffffffffffffffffffffff168152602001600081526020016000151581526020016000151581525090565b612263806200390a83390190565b6000620023f0620023ea8462003242565b62003219565b9050828152602081018484840111156200240957600080fd5b620024168482856200335a565b509392505050565b6000813590506200242f81620038a1565b92915050565b6000813590506200244681620038bb565b92915050565b6000815190506200245d81620038bb565b92915050565b6000813590506200247481620038d5565b92915050565b600082601f8301126200248c57600080fd5b81356200249e848260208601620023d9565b91505092915050565b600081359050620024b881620038ef565b92915050565b600060208284031215620024d157600080fd5b6000620024e1848285016200241e565b91505092915050565b600080600080608085870312156200250157600080fd5b600062002511878288016200241e565b945050602062002524878288016200241e565b93505060406200253787828801620024a7565b92505060606200254a8782880162002463565b91505092959194509250565b6000602082840312156200256957600080fd5b600062002579848285016200244c565b91505092915050565b600080600080600060a086880312156200259b57600080fd5b6000620025ab8882890162002435565b9550506020620025be888289016200241e565b9450506040620025d1888289016200241e565b935050606086013567ffffffffffffffff811115620025ef57600080fd5b620025fd888289016200247a565b925050608086013567ffffffffffffffff8111156200261b57600080fd5b62002629888289016200247a565b9150509295509295909350565b6000602082840312156200264957600080fd5b6000620026598482850162002463565b91505092915050565b60008060008060008060c087890312156200267c57600080fd5b60006200268c89828a0162002463565b96505060206200269f89828a016200241e565b9550506040620026b289828a016200241e565b9450506060620026c589828a016200241e565b9350506080620026d889828a01620024a7565b92505060a0620026eb89828a0162002463565b9150509295509295509295565b600080604083850312156200270c57600080fd5b60006200271c8582860162002463565b92505060206200272f8582860162002463565b9150509250929050565b60006200274783836200276e565b60208301905092915050565b600062002761838362002bdd565b6101208301905092915050565b620027798162003306565b82525050565b6200278a8162003306565b82525050565b620027a56200279f8262003306565b62003423565b82525050565b6000620027b88262003298565b620027c48185620032d3565b9350620027d18362003278565b8060005b8381101562002808578151620027ec888262002739565b9750620027f983620032b9565b925050600181019050620027d5565b5085935050505092915050565b60006200282282620032a3565b6200282e8185620032e4565b93506200283b8362003288565b8060005b838110156200287257815162002856888262002753565b97506200286383620032c6565b9250506001810190506200283f565b5085935050505092915050565b6200288a816200331a565b82525050565b6200289b816200331a565b82525050565b620028ac8162003326565b82525050565b620028bd8162003326565b82525050565b620028d8620028d28262003326565b62003437565b82525050565b6000620028eb82620032ae565b620028f78185620032f5565b93506200290981856020860162003369565b6200291481620034bd565b840191505092915050565b60006200292e600b83620032f5565b91506200293b82620034db565b602082019050919050565b600062002955602a83620032f5565b9150620029628262003504565b604082019050919050565b60006200297c602683620032f5565b9150620029898262003553565b604082019050919050565b6000620029a3601583620032f5565b9150620029b082620035a2565b602082019050919050565b6000620029ca602783620032f5565b9150620029d782620035cb565b604082019050919050565b6000620029f1600b83620032f5565b9150620029fe826200361a565b602082019050919050565b600062002a18603183620032f5565b915062002a258262003643565b604082019050919050565b600062002a3f601683620032f5565b915062002a4c8262003692565b602082019050919050565b600062002a66601c83620032f5565b915062002a7382620036bb565b602082019050919050565b600062002a8d602083620032f5565b915062002a9a82620036e4565b602082019050919050565b600062002ab4602283620032f5565b915062002ac1826200370d565b604082019050919050565b600062002adb600f83620032f5565b915062002ae8826200375c565b602082019050919050565b600062002b02601f83620032f5565b915062002b0f8262003785565b602082019050919050565b600062002b29602283620032f5565b915062002b3682620037ae565b604082019050919050565b600062002b50601683620032f5565b915062002b5d82620037fd565b602082019050919050565b600062002b77601883620032f5565b915062002b848262003826565b602082019050919050565b600062002b9e601c83620032f5565b915062002bab826200384f565b602082019050919050565b600062002bc5600d83620032f5565b915062002bd28262003878565b602082019050919050565b6101208201600082015162002bf66000850182620028a1565b50602082015162002c0b6020850182620028a1565b50604082015162002c206040850182620028a1565b50606082015162002c3560608501826200276e565b50608082015162002c4a60808501826200276e565b5060a082015162002c5f60a08501826200276e565b5060c082015162002c7460c085018262002d6f565b5060e082015162002c8960e08501826200287f565b5061010082015162002ca06101008501826200287f565b50505050565b6101208201600082015162002cbf6000850182620028a1565b50602082015162002cd46020850182620028a1565b50604082015162002ce96040850182620028a1565b50606082015162002cfe60608501826200276e565b50608082015162002d1360808501826200276e565b5060a082015162002d2860a08501826200276e565b5060c082015162002d3d60c085018262002d6f565b5060e082015162002d5260e08501826200287f565b5061010082015162002d696101008501826200287f565b50505050565b62002d7a8162003350565b82525050565b62002d8b8162003350565b82525050565b62002da662002da08262003350565b62003455565b82525050565b600062002dba828562002790565b60148201915062002dcc828462002d91565b6020820191508190509392505050565b600062002dea8284620028c3565b60208201915081905092915050565b600060208201905062002e1060008301846200277f565b92915050565b600060408201905062002e2d60008301856200277f565b62002e3c60208301846200277f565b9392505050565b600060608201905062002e5a60008301866200277f565b62002e6960208301856200277f565b62002e78604083018462002d80565b949350505050565b600060408201905062002e9760008301856200277f565b62002ea6602083018462002d80565b9392505050565b6000602082019050818103600083015262002ec98184620027ab565b905092915050565b6000602082019050818103600083015262002eed818462002815565b905092915050565b600060208201905062002f0c600083018462002890565b92915050565b600060208201905062002f296000830184620028b2565b92915050565b600060408201905062002f466000830185620028b2565b62002f556020830184620028b2565b9392505050565b6000604082019050818103600083015262002f788185620028de565b9050818103602083015262002f8e8184620028de565b90509392505050565b6000602082019050818103600083015262002fb2816200291f565b9050919050565b6000602082019050818103600083015262002fd48162002946565b9050919050565b6000602082019050818103600083015262002ff6816200296d565b9050919050565b60006020820190508181036000830152620030188162002994565b9050919050565b600060208201905081810360008301526200303a81620029bb565b9050919050565b600060208201905081810360008301526200305c81620029e2565b9050919050565b600060208201905081810360008301526200307e8162002a09565b9050919050565b60006020820190508181036000830152620030a08162002a30565b9050919050565b60006020820190508181036000830152620030c28162002a57565b9050919050565b60006020820190508181036000830152620030e48162002a7e565b9050919050565b60006020820190508181036000830152620031068162002aa5565b9050919050565b60006020820190508181036000830152620031288162002acc565b9050919050565b600060208201905081810360008301526200314a8162002af3565b9050919050565b600060208201905081810360008301526200316c8162002b1a565b9050919050565b600060208201905081810360008301526200318e8162002b41565b9050919050565b60006020820190508181036000830152620031b08162002b68565b9050919050565b60006020820190508181036000830152620031d28162002b8f565b9050919050565b60006020820190508181036000830152620031f48162002bb6565b9050919050565b60006101208201905062003213600083018462002ca6565b92915050565b60006200322562003238565b90506200323382826200339f565b919050565b6000604051905090565b600067ffffffffffffffff82111562003260576200325f6200348e565b5b6200326b82620034bd565b9050602081019050919050565b6000819050602082019050919050565b6000819050602082019050919050565b600081519050919050565b600081519050919050565b600081519050919050565b6000602082019050919050565b6000602082019050919050565b600082825260208201905092915050565b600082825260208201905092915050565b600082825260208201905092915050565b6000620033138262003330565b9050919050565b60008115159050919050565b6000819050919050565b600073ffffffffffffffffffffffffffffffffffffffff82169050919050565b6000819050919050565b82818337600083830152505050565b60005b83811015620033895780820151818401526020810190506200336c565b8381111562003399576000848401525b50505050565b620033aa82620034bd565b810181811067ffffffffffffffff82111715620033cc57620033cb6200348e565b5b80604052505050565b6000620033e28262003350565b91507fffffffffffffffffffffffffffffffffffffffffffffffffffffffffffffffff8214156200341857620034176200345f565b5b600182019050919050565b6000620034308262003441565b9050919050565b6000819050919050565b60006200344e82620034ce565b9050919050565b6000819050919050565b7f4e487b7100000000000000000000000000000000000000000000000000000000600052601160045260246000fd5b7f4e487b7100000000000000000000000000000000000000000000000000000000600052604160045260246000fd5b6000601f19601f8301169050919050565b60008160601b9050919050565b7f6275726e206661696c6564000000000000000000000000000000000000000000600082015250565b7f42726964676520776974682073616d6520706172616d657465727320616c726560008201527f6164792065786973747300000000000000000000000000000000000000000000602082015250565b7f4f776e61626c653a206e6577206f776e657220697320746865207a65726f206160008201527f6464726573730000000000000000000000000000000000000000000000000000602082015250565b7f62726964676520646f6573206e6f742065786973740000000000000000000000600082015250565b7f436f6e747261637420616c72656164792065786973747320666f72207468697360008201527f20736f7572636500000000000000000000000000000000000000000000000000602082015250565b7f6d696e74206661696c6564000000000000000000000000000000000000000000600082015250565b7f44657374696e6174696f6e20636f6e747261637420646f6573206e6f7420657860008201527f6973742e204465706c6f79206669727374000000000000000000000000000000602082015250565b7f52656c6561736520616c72656164792065786973747300000000000000000000600082015250565b7f726566756e6461626c653a20616c726561647920726566756e64656400000000600082015250565b7f4f776e61626c653a2063616c6c6572206973206e6f7420746865206f776e6572600082015250565b7f7472616e7366657246726f6d2073656e64657220746f2074686973206661696c60008201527f6564000000000000000000000000000000000000000000000000000000000000602082015250565b7f7472616e73666572206661696c65640000000000000000000000000000000000600082015250565b7f436f696e20616c726561647920657869737473206173206f726967696e616c00600082015250565b7f6d73672e73656e646572206e6f74206272696467656c6f636b2072656365697660008201527f6572000000000000000000000000000000000000000000000000000000000000602082015250565b7f726566756e6461626c653a206e6f742073656e64657200000000000000000000600082015250565b7f746f6b656e20616d6f756e74206d757374206265203e20300000000000000000600082015250565b7f686173686c6f636b206861736820646f6573206e6f74206d6174636800000000600082015250565b7f726566756e64206661696c656400000000000000000000000000000000000000600082015250565b620038ac8162003306565b8114620038b857600080fd5b50565b620038c6816200331a565b8114620038d257600080fd5b50565b620038e08162003326565b8114620038ec57600080fd5b50565b620038fa8162003350565b81146200390657600080fd5b5056fe60806040523480156200001157600080fd5b506040516200226338038062002263833981810160405281019062000037919062000285565b818181600390805190602001906200005192919062000163565b5080600490805190602001906200006a92919062000163565b5050506200008d620000816200009560201b60201c565b6200009d60201b60201c565b505062000468565b600033905090565b6000600560009054906101000a900473ffffffffffffffffffffffffffffffffffffffff16905081600560006101000a81548173ffffffffffffffffffffffffffffffffffffffff021916908373ffffffffffffffffffffffffffffffffffffffff1602179055508173ffffffffffffffffffffffffffffffffffffffff168173ffffffffffffffffffffffffffffffffffffffff167f8be0079c531659141344cd1fd0a4f28419497f9722a3daafe3b4186f6b6457e060405160405180910390a35050565b82805462000171906200038d565b90600052602060002090601f016020900481019282620001955760008555620001e1565b82601f10620001b057805160ff1916838001178555620001e1565b82800160010185558215620001e1579182015b82811115620001e0578251825591602001919060010190620001c3565b5b509050620001f09190620001f4565b5090565b5b808211156200020f576000816000905550600101620001f5565b5090565b60006200022a620002248462000321565b620002f8565b9050828152602081018484840111156200024357600080fd5b6200025084828562000357565b509392505050565b600082601f8301126200026a57600080fd5b81516200027c84826020860162000213565b91505092915050565b600080604083850312156200029957600080fd5b600083015167ffffffffffffffff811115620002b457600080fd5b620002c28582860162000258565b925050602083015167ffffffffffffffff811115620002e057600080fd5b620002ee8582860162000258565b9150509250929050565b60006200030462000317565b9050620003128282620003c3565b919050565b6000604051905090565b600067ffffffffffffffff8211156200033f576200033e62000428565b5b6200034a8262000457565b9050602081019050919050565b60005b83811015620003775780820151818401526020810190506200035a565b8381111562000387576000848401525b50505050565b60006002820490506001821680620003a657607f821691505b60208210811415620003bd57620003bc620003f9565b5b50919050565b620003ce8262000457565b810181811067ffffffffffffffff82111715620003f057620003ef62000428565b5b80604052505050565b7f4e487b7100000000000000000000000000000000000000000000000000000000600052602260045260246000fd5b7f4e487b7100000000000000000000000000000000000000000000000000000000600052604160045260246000fd5b6000601f19601f8301169050919050565b611deb80620004786000396000f3fe608060405234801561001057600080fd5b50600436106101005760003560e01c8063715018a611610097578063a457c2d711610066578063a457c2d7146102c5578063a9059cbb146102f5578063dd62ed3e14610325578063f2fde38b1461035557610100565b8063715018a61461024f5780638da5cb5b1461025957806395d89b41146102775780639dc29fac1461029557610100565b8063313ce567116100d3578063313ce567146101a157806339509351146101bf57806340c10f19146101ef57806370a082311461021f57610100565b806306fdde0314610105578063095ea7b31461012357806318160ddd1461015357806323b872dd14610171575b600080fd5b61010d610371565b60405161011a919061169e565b60405180910390f35b61013d60048036038101906101389190611413565b610403565b60405161014a9190611683565b60405180910390f35b61015b610426565b6040516101689190611840565b60405180910390f35b61018b600480360381019061018691906113c4565b610430565b6040516101989190611683565b60405180910390f35b6101a961045f565b6040516101b6919061185b565b60405180910390f35b6101d960048036038101906101d49190611413565b610468565b6040516101e69190611683565b60405180910390f35b61020960048036038101906102049190611413565b610512565b6040516102169190611683565b60405180910390f35b6102396004803603810190610234919061135f565b6105a4565b6040516102469190611840565b60405180910390f35b6102576105ec565b005b610261610674565b60405161026e9190611668565b60405180910390f35b61027f61069e565b60405161028c919061169e565b60405180910390f35b6102af60048036038101906102aa9190611413565b610730565b6040516102bc9190611683565b60405180910390f35b6102df60048036038101906102da9190611413565b6107c2565b6040516102ec9190611683565b60405180910390f35b61030f600480360381019061030a9190611413565b6108ac565b60405161031c9190611683565b60405180910390f35b61033f600480360381019061033a9190611388565b6108cf565b60405161034c9190611840565b60405180910390f35b61036f600480360381019061036a919061135f565b610956565b005b606060038054610380906119a4565b80601f01602080910402602001604051908101604052809291908181526020018280546103ac906119a4565b80156103f95780601f106103ce576101008083540402835291602001916103f9565b820191906000526020600020905b8154815290600101906020018083116103dc57829003601f168201915b5050505050905090565b60008061040e610a4e565b905061041b818585610a56565b600191505092915050565b6000600254905090565b60008061043b610a4e565b9050610448858285610c21565b610453858585610cad565b60019150509392505050565b60006012905090565b600080610473610a4e565b9050610507818585600160008673ffffffffffffffffffffffffffffffffffffffff1673ffffffffffffffffffffffffffffffffffffffff16815260200190815260200160002060008973ffffffffffffffffffffffffffffffffffffffff1673ffffffffffffffffffffffffffffffffffffffff168152602001908152602001600020546105029190611892565b610a56565b600191505092915050565b600061051c610a4e565b73ffffffffffffffffffffffffffffffffffffffff1661053a610674565b73ffffffffffffffffffffffffffffffffffffffff1614610590576040517f08c379a000000000000000000000000000000000000000000000000000000000815260040161058790611780565b60405180910390fd5b61059a8383610f2e565b6001905092915050565b60008060008373ffffffffffffffffffffffffffffffffffffffff1673ffffffffffffffffffffffffffffffffffffffff168152602001908152602001600020549050919050565b6105f4610a4e565b73ffffffffffffffffffffffffffffffffffffffff16610612610674565b73ffffffffffffffffffffffffffffffffffffffff1614610668576040517f08c379a000000000000000000000000000000000000000000000000000000000815260040161065f90611780565b60405180910390fd5b610672600061108e565b565b6000600560009054906101000a900473ffffffffffffffffffffffffffffffffffffffff16905090565b6060600480546106ad906119a4565b80601f01602080910402602001604051908101604052809291908181526020018280546106d9906119a4565b80156107265780601f106106fb57610100808354040283529160200191610726565b820191906000526020600020905b81548152906001019060200180831161070957829003601f168201915b5050505050905090565b600061073a610a4e565b73ffffffffffffffffffffffffffffffffffffffff16610758610674565b73ffffffffffffffffffffffffffffffffffffffff16146107ae576040517f08c379a00000000000000000000000000000000000000000000000000000000081526004016107a590611780565b60405180910390fd5b6107b88383611154565b6001905092915050565b6000806107cd610a4e565b90506000600160008373ffffffffffffffffffffffffffffffffffffffff1673ffffffffffffffffffffffffffffffffffffffff16815260200190815260200160002060008673ffffffffffffffffffffffffffffffffffffffff1673ffffffffffffffffffffffffffffffffffffffff16815260200190815260200160002054905083811015610893576040517f08c379a000000000000000000000000000000000000000000000000000000000815260040161088a90611800565b60405180910390fd5b6108a08286868403610a56565b60019250505092915050565b6000806108b7610a4e565b90506108c4818585610cad565b600191505092915050565b6000600160008473ffffffffffffffffffffffffffffffffffffffff1673ffffffffffffffffffffffffffffffffffffffff16815260200190815260200160002060008373ffffffffffffffffffffffffffffffffffffffff1673ffffffffffffffffffffffffffffffffffffffff16815260200190815260200160002054905092915050565b61095e610a4e565b73ffffffffffffffffffffffffffffffffffffffff1661097c610674565b73ffffffffffffffffffffffffffffffffffffffff16146109d2576040517f08c379a00000000000000000000000000000000000000000000000000000000081526004016109c990611780565b60405180910390fd5b600073ffffffffffffffffffffffffffffffffffffffff168173ffffffffffffffffffffffffffffffffffffffff161415610a42576040517f08c379a0000000000000000000000000000000000000000000000000000000008152600401610a3990611700565b60405180910390fd5b610a4b8161108e565b50565b600033905090565b600073ffffffffffffffffffffffffffffffffffffffff168373ffffffffffffffffffffffffffffffffffffffff161415610ac6576040517f08c379a0000000000000000000000000000000000000000000000000000000008152600401610abd906117e0565b60405180910390fd5b600073ffffffffffffffffffffffffffffffffffffffff168273ffffffffffffffffffffffffffffffffffffffff161415610b36576040517f08c379a0000000000000000000000000000000000000000000000000000000008152600401610b2d90611720565b60405180910390fd5b80600160008573ffffffffffffffffffffffffffffffffffffffff1673ffffffffffffffffffffffffffffffffffffffff16815260200190815260200160002060008473ffffffffffffffffffffffffffffffffffffffff1673ffffffffffffffffffffffffffffffffffffffff168152602001908152602001600020819055508173ffffffffffffffffffffffffffffffffffffffff168373ffffffffffffffffffffffffffffffffffffffff167f8c5be1e5ebec7d5bd14f71427d1e84f3dd0314c0f7b2291e5b200ac8c7c3b92583604051610c149190611840565b60405180910390a3505050565b6000610c2d84846108cf565b90507fffffffffffffffffffffffffffffffffffffffffffffffffffffffffffffffff8114610ca75781811015610c99576040517f08c379a0000000000000000000000000000000000000000000000000000000008152600401610c9090611740565b60405180910390fd5b610ca68484848403610a56565b5b50505050565b600073ffffffffffffffffffffffffffffffffffffffff168373ffffffffffffffffffffffffffffffffffffffff161415610d1d576040517f08c379a0000000000000000000000000000000000000000000000000000000008152600401610d14906117c0565b60405180910390fd5b600073ffffffffffffffffffffffffffffffffffffffff168273ffffffffffffffffffffffffffffffffffffffff161415610d8d576040517f08c379a0000000000000000000000000000000000000000000000000000000008152600401610d84906116c0565b60405180910390fd5b610d9883838361132b565b60008060008573ffffffffffffffffffffffffffffffffffffffff1673ffffffffffffffffffffffffffffffffffffffff16815260200190815260200160002054905081811015610e1e576040517f08c379a0000000000000000000000000000000000000000000000000000000008152600401610e1590611760565b60405180910390fd5b8181036000808673ffffffffffffffffffffffffffffffffffffffff1673ffffffffffffffffffffffffffffffffffffffff16815260200190815260200160002081905550816000808573ffffffffffffffffffffffffffffffffffffffff1673ffffffffffffffffffffffffffffffffffffffff1681526020019081526020016000206000828254610eb19190611892565b925050819055508273ffffffffffffffffffffffffffffffffffffffff168473ffffffffffffffffffffffffffffffffffffffff167fddf252ad1be2c89b69c2b068fc378daa952ba7f163c4a11628f55a4df523b3ef84604051610f159190611840565b60405180910390a3610f28848484611330565b50505050565b600073ffffffffffffffffffffffffffffffffffffffff168273ffffffffffffffffffffffffffffffffffffffff161415610f9e576040517f08c379a0000000000000000000000000000000000000000000000000000000008152600401610f9590611820565b60405180910390fd5b610faa6000838361132b565b8060026000828254610fbc9190611892565b92505081905550806000808473ffffffffffffffffffffffffffffffffffffffff1673ffffffffffffffffffffffffffffffffffffffff16815260200190815260200160002060008282546110119190611892565b925050819055508173ffffffffffffffffffffffffffffffffffffffff16600073ffffffffffffffffffffffffffffffffffffffff167fddf252ad1be2c89b69c2b068fc378daa952ba7f163c4a11628f55a4df523b3ef836040516110769190611840565b60405180910390a361108a60008383611330565b5050565b6000600560009054906101000a900473ffffffffffffffffffffffffffffffffffffffff16905081600560006101000a81548173ffffffffffffffffffffffffffffffffffffffff021916908373ffffffffffffffffffffffffffffffffffffffff1602179055508173ffffffffffffffffffffffffffffffffffffffff168173ffffffffffffffffffffffffffffffffffffffff167f8be0079c531659141344cd1fd0a4f28419497f9722a3daafe3b4186f6b6457e060405160405180910390a35050565b600073ffffffffffffffffffffffffffffffffffffffff168273ffffffffffffffffffffffffffffffffffffffff1614156111c4576040517f08c379a00000000000000000000000000000000000000000000000000000000081526004016111bb906117a0565b60405180910390fd5b6111d08260008361132b565b60008060008473ffffffffffffffffffffffffffffffffffffffff1673ffffffffffffffffffffffffffffffffffffffff16815260200190815260200160002054905081811015611256576040517f08c379a000000000000000000000000000000000000000000000000000000000815260040161124d906116e0565b60405180910390fd5b8181036000808573ffffffffffffffffffffffffffffffffffffffff1673ffffffffffffffffffffffffffffffffffffffff1681526020019081526020016000208190555081600260008282546112ad91906118e8565b92505081905550600073ffffffffffffffffffffffffffffffffffffffff168373ffffffffffffffffffffffffffffffffffffffff167fddf252ad1be2c89b69c2b068fc378daa952ba7f163c4a11628f55a4df523b3ef846040516113129190611840565b60405180910390a361132683600084611330565b505050565b505050565b505050565b60008135905061134481611d87565b92915050565b60008135905061135981611d9e565b92915050565b60006020828403121561137157600080fd5b600061137f84828501611335565b91505092915050565b6000806040838503121561139b57600080fd5b60006113a985828601611335565b92505060206113ba85828601611335565b9150509250929050565b6000806000606084860312156113d957600080fd5b60006113e786828701611335565b93505060206113f886828701611335565b92505060406114098682870161134a565b9150509250925092565b6000806040838503121561142657600080fd5b600061143485828601611335565b92505060206114458582860161134a565b9150509250929050565b6114588161191c565b82525050565b6114678161192e565b82525050565b600061147882611876565b6114828185611881565b9350611492818560208601611971565b61149b81611a34565b840191505092915050565b60006114b3602383611881565b91506114be82611a45565b604082019050919050565b60006114d6602283611881565b91506114e182611a94565b604082019050919050565b60006114f9602683611881565b915061150482611ae3565b604082019050919050565b600061151c602283611881565b915061152782611b32565b604082019050919050565b600061153f601d83611881565b915061154a82611b81565b602082019050919050565b6000611562602683611881565b915061156d82611baa565b604082019050919050565b6000611585602083611881565b915061159082611bf9565b602082019050919050565b60006115a8602183611881565b91506115b382611c22565b604082019050919050565b60006115cb602583611881565b91506115d682611c71565b604082019050919050565b60006115ee602483611881565b91506115f982611cc0565b604082019050919050565b6000611611602583611881565b915061161c82611d0f565b604082019050919050565b6000611634601f83611881565b915061163f82611d5e565b602082019050919050565b6116538161195a565b82525050565b61166281611964565b82525050565b600060208201905061167d600083018461144f565b92915050565b6000602082019050611698600083018461145e565b92915050565b600060208201905081810360008301526116b8818461146d565b905092915050565b600060208201905081810360008301526116d9816114a6565b9050919050565b600060208201905081810360008301526116f9816114c9565b9050919050565b60006020820190508181036000830152611719816114ec565b9050919050565b600060208201905081810360008301526117398161150f565b9050919050565b6000602082019050818103600083015261175981611532565b9050919050565b6000602082019050818103600083015261177981611555565b9050919050565b6000602082019050818103600083015261179981611578565b9050919050565b600060208201905081810360008301526117b98161159b565b9050919050565b600060208201905081810360008301526117d9816115be565b9050919050565b600060208201905081810360008301526117f9816115e1565b9050919050565b6000602082019050818103600083015261181981611604565b9050919050565b6000602082019050818103600083015261183981611627565b9050919050565b6000602082019050611855600083018461164a565b92915050565b60006020820190506118706000830184611659565b92915050565b600081519050919050565b600082825260208201905092915050565b600061189d8261195a565b91506118a88361195a565b9250827fffffffffffffffffffffffffffffffffffffffffffffffffffffffffffffffff038211156118dd576118dc6119d6565b5b828201905092915050565b60006118f38261195a565b91506118fe8361195a565b925082821015611911576119106119d6565b5b828203905092915050565b60006119278261193a565b9050919050565b60008115159050919050565b600073ffffffffffffffffffffffffffffffffffffffff82169050919050565b6000819050919050565b600060ff82169050919050565b60005b8381101561198f578082015181840152602081019050611974565b8381111561199e576000848401525b50505050565b600060028204905060018216806119bc57607f821691505b602082108114156119d0576119cf611a05565b5b50919050565b7f4e487b7100000000000000000000000000000000000000000000000000000000600052601160045260246000fd5b7f4e487b7100000000000000000000000000000000000000000000000000000000600052602260045260246000fd5b6000601f19601f8301169050919050565b7f45524332303a207472616e7366657220746f20746865207a65726f206164647260008201527f6573730000000000000000000000000000000000000000000000000000000000602082015250565b7f45524332303a206275726e20616d6f756e7420657863656564732062616c616e60008201527f6365000000000000000000000000000000000000000000000000000000000000602082015250565b7f4f776e61626c653a206e6577206f776e657220697320746865207a65726f206160008201527f6464726573730000000000000000000000000000000000000000000000000000602082015250565b7f45524332303a20617070726f766520746f20746865207a65726f20616464726560008201527f7373000000000000000000000000000000000000000000000000000000000000602082015250565b7f45524332303a20696e73756666696369656e7420616c6c6f77616e6365000000600082015250565b7f45524332303a207472616e7366657220616d6f756e742065786365656473206260008201527f616c616e63650000000000000000000000000000000000000000000000000000602082015250565b7f4f776e61626c653a2063616c6c6572206973206e6f7420746865206f776e6572600082015250565b7f45524332303a206275726e2066726f6d20746865207a65726f2061646472657360008201527f7300000000000000000000000000000000000000000000000000000000000000602082015250565b7f45524332303a207472616e736665722066726f6d20746865207a65726f20616460008201527f6472657373000000000000000000000000000000000000000000000000000000602082015250565b7f45524332303a20617070726f76652066726f6d20746865207a65726f2061646460008201527f7265737300000000000000000000000000000000000000000000000000000000602082015250565b7f45524332303a2064656372656173656420616c6c6f77616e63652062656c6f7760008201527f207a65726f000000000000000000000000000000000000000000000000000000602082015250565b7f45524332303a206d696e7420746f20746865207a65726f206164647265737300600082015250565b611d908161191c565b8114611d9b57600080fd5b50565b611da78161195a565b8114611db257600080fd5b5056fea264697066735822122066545f6a94dc0f3aa765ff1737b4c22a901a067587ce851c85b42b1e5166175d64736f6c63430008040033a26469706673582212207c6b201a7bd03e6be37046777710d9f1da6463dc879621801c5b6aaaa1d1208564736f6c63430008040033",
  "linkReferences": {},
  "deployedLinkReferences": {}
}