{
  "_format": "hh-sol-artifact-1",
  "contractName": "ERC20Bridge",
  "sourceName": "contracts/Bridge.sol",
  "abi": [
    {
      "inputs": [
        {
          "internalType": "uint8",
          "name": "_chainId",
          "type": "uint8"
        }
      ],
      "stateMutability": "nonpayable",
      "type": "constructor"
    },
    {
      "anonymous": false,
      "inputs": [
        {
          "indexed": false,
          "internalType": "bytes32",
          "name": "bridgeId",
          "type": "bytes32"
        }
      ],
      "name": "CoinBridged",
      "type": "event"
    },
    {
      "anonymous": false,
      "inputs": [
        {
          "indexed": false,
          "internalType": "bytes32",
          "name": "bridgeId",
          "type": "bytes32"
        }
      ],
      "name": "CoinRefundLocked",
      "type": "event"
    },
    {
      "anonymous": false,
      "inputs": [
        {
          "indexed": false,
          "internalType": "bytes32",
          "name": "bridgeId",
          "type": "bytes32"
        },
        {
          "indexed": false,
          "internalType": "bytes32",
          "name": "preimage",
          "type": "bytes32"
        }
      ],
      "name": "CoinRefunded",
      "type": "event"
    },
    {
      "anonymous": false,
      "inputs": [
        {
          "indexed": false,
          "internalType": "bytes32",
          "name": "bridgeId",
          "type": "bytes32"
        }
      ],
      "name": "CoinReleaseLocked",
      "type": "event"
    },
    {
      "anonymous": false,
      "inputs": [
        {
          "indexed": false,
          "internalType": "bytes32",
          "name": "bridgeId",
          "type": "bytes32"
        },
        {
          "indexed": false,
          "internalType": "bytes32",
          "name": "preimage",
          "type": "bytes32"
        }
      ],
      "name": "CoinReleased",
      "type": "event"
    },
    {
      "anonymous": false,
      "inputs": [
        {
          "indexed": true,
          "internalType": "address",
          "name": "previousOwner",
          "type": "address"
        },
        {
          "indexed": true,
          "internalType": "address",
          "name": "newOwner",
          "type": "address"
        }
      ],
      "name": "OwnershipTransferred",
      "type": "event"
    },
    {
      "anonymous": false,
      "inputs": [
        {
          "indexed": false,
          "internalType": "bytes32",
          "name": "bridgeId",
          "type": "bytes32"
        }
      ],
      "name": "ReleaseAdded",
      "type": "event"
    },
    {
      "inputs": [
        {
          "internalType": "address",
          "name": "_coin",
          "type": "address"
        }
      ],
      "name": "addCoin",
      "outputs": [],
      "stateMutability": "nonpayable",
      "type": "function"
    },
    {
      "inputs": [
        {
          "internalType": "bool",
          "name": "_shouldDeploy",
          "type": "bool"
        },
        {
          "internalType": "uint8",
          "name": "_srcChainId",
          "type": "uint8"
        },
        {
          "internalType": "address",
          "name": "_dstCoin",
          "type": "address"
        },
        {
          "internalType": "address",
          "name": "_srcCoin",
          "type": "address"
        },
        {
          "internalType": "string",
          "name": "_coinName",
          "type": "string"
        },
        {
          "internalType": "string",
          "name": "_coinDenom",
          "type": "string"
        }
      ],
      "name": "addMissingDestination",
      "outputs": [],
      "stateMutability": "nonpayable",
      "type": "function"
    },
    {
      "inputs": [
        {
          "internalType": "bytes32",
          "name": "_Id",
          "type": "bytes32"
        },
        {
          "internalType": "uint8",
          "name": "_srcChainId",
          "type": "uint8"
        },
        {
          "internalType": "address",
          "name": "_srcCoin",
          "type": "address"
        },
        {
          "internalType": "address",
          "name": "_sender",
          "type": "address"
        },
        {
          "internalType": "address",
          "name": "_receiver",
          "type": "address"
        },
        {
          "internalType": "uint256",
          "name": "_amount",
          "type": "uint256"
        },
        {
          "internalType": "bytes32",
          "name": "_hashlock",
          "type": "bytes32"
        }
      ],
      "name": "addRelease",
      "outputs": [],
      "stateMutability": "nonpayable",
      "type": "function"
    },
    {
      "inputs": [
        {
          "internalType": "address",
          "name": "_srcCoin",
          "type": "address"
        },
        {
          "internalType": "address",
          "name": "_receiver",
          "type": "address"
        },
        {
          "internalType": "uint256",
          "name": "_amount",
          "type": "uint256"
        },
        {
          "internalType": "bytes32",
          "name": "_hashlock",
          "type": "bytes32"
        },
        {
          "internalType": "uint8",
          "name": "_dstChainId",
          "type": "uint8"
        }
      ],
      "name": "bridgeCoin",
      "outputs": [],
      "stateMutability": "nonpayable",
      "type": "function"
    },
    {
      "inputs": [
        {
          "internalType": "address",
          "name": "_srcCoin",
          "type": "address"
        }
      ],
      "name": "destinationExists",
      "outputs": [
        {
          "internalType": "bool",
          "name": "",
          "type": "bool"
        }
      ],
      "stateMutability": "view",
      "type": "function"
    },
    {
      "inputs": [],
      "name": "getAvailableCoins",
      "outputs": [
        {
          "internalType": "address[]",
          "name": "",
          "type": "address[]"
        }
      ],
      "stateMutability": "view",
      "type": "function"
    },
    {
      "inputs": [],
      "name": "getBridges",
      "outputs": [
        {
          "components": [
            {
              "internalType": "bytes32",
              "name": "id",
              "type": "bytes32"
            },
            {
              "internalType": "bytes32",
              "name": "hashlock",
              "type": "bytes32"
            },
            {
              "internalType": "bytes32",
              "name": "preimage",
              "type": "bytes32"
            },
            {
              "internalType": "uint8",
              "name": "srcChainId",
              "type": "uint8"
            },
            {
              "internalType": "uint8",
              "name": "dstChainId",
              "type": "uint8"
            },
            {
              "internalType": "address",
              "name": "coin",
              "type": "address"
            },
            {
              "internalType": "address",
              "name": "sender",
              "type": "address"
            },
            {
              "internalType": "address",
              "name": "receiver",
              "type": "address"
            },
            {
              "internalType": "uint256",
              "name": "amount",
              "type": "uint256"
            },
            {
              "internalType": "bool",
              "name": "active",
              "type": "bool"
            },
            {
              "internalType": "bool",
              "name": "isThisSrc",
              "type": "bool"
            }
          ],
          "internalType": "struct BridgeUtils.Bridge[]",
          "name": "",
          "type": "tuple[]"
        }
      ],
      "stateMutability": "view",
      "type": "function"
    },
    {
      "inputs": [
        {
          "internalType": "address",
          "name": "_coin",
          "type": "address"
        }
      ],
      "name": "getDestToOriginChainId",
      "outputs": [
        {
          "internalType": "uint8",
          "name": "",
          "type": "uint8"
        }
      ],
      "stateMutability": "view",
      "type": "function"
    },
    {
      "inputs": [
        {
          "internalType": "address",
          "name": "_coin",
          "type": "address"
        }
      ],
      "name": "getDstCoin",
      "outputs": [
        {
          "internalType": "address",
          "name": "",
          "type": "address"
        }
      ],
      "stateMutability": "view",
      "type": "function"
    },
    {
      "inputs": [
        {
          "internalType": "address",
          "name": "_coinContract",
          "type": "address"
        }
      ],
      "name": "isCoinOriginal",
      "outputs": [
        {
          "internalType": "bool",
          "name": "",
          "type": "bool"
        }
      ],
      "stateMutability": "view",
      "type": "function"
    },
    {
      "inputs": [
        {
          "internalType": "bytes32",
          "name": "_Id",
          "type": "bytes32"
        },
        {
          "internalType": "bytes32",
          "name": "_preimage",
          "type": "bytes32"
        }
      ],
      "name": "lockBridge",
      "outputs": [],
      "stateMutability": "nonpayable",
      "type": "function"
    },
    {
      "inputs": [],
      "name": "owner",
      "outputs": [
        {
          "internalType": "address",
          "name": "",
          "type": "address"
        }
      ],
      "stateMutability": "view",
      "type": "function"
    },
    {
      "inputs": [
        {
          "internalType": "bytes32",
          "name": "_Id",
          "type": "bytes32"
        },
        {
          "internalType": "bytes32",
          "name": "_preimage",
          "type": "bytes32"
        }
      ],
      "name": "refund",
      "outputs": [],
      "stateMutability": "nonpayable",
      "type": "function"
    },
    {
      "inputs": [
        {
          "internalType": "bytes32",
          "name": "_Id",
          "type": "bytes32"
        },
        {
          "internalType": "bytes32",
          "name": "_preimage",
          "type": "bytes32"
        }
      ],
      "name": "releaseCoin",
      "outputs": [],
      "stateMutability": "nonpayable",
      "type": "function"
    },
    {
      "inputs": [],
      "name": "renounceOwnership",
      "outputs": [],
      "stateMutability": "nonpayable",
      "type": "function"
    },
    {
      "inputs": [
        {
          "internalType": "address",
          "name": "newOwner",
          "type": "address"
        }
      ],
      "name": "transferOwnership",
      "outputs": [],
      "stateMutability": "nonpayable",
      "type": "function"
    }
  ],
  "bytecode": "0x60806040523480156200001157600080fd5b50604051620061893803806200618983398181016040528101906200003791906200015c565b620000576200004b6200007960201b60201c565b6200008160201b60201c565b80600060146101000a81548160ff021916908360ff16021790555050620001af565b600033905090565b60008060009054906101000a900473ffffffffffffffffffffffffffffffffffffffff169050816000806101000a81548173ffffffffffffffffffffffffffffffffffffffff021916908373ffffffffffffffffffffffffffffffffffffffff1602179055508173ffffffffffffffffffffffffffffffffffffffff168173ffffffffffffffffffffffffffffffffffffffff167f8be0079c531659141344cd1fd0a4f28419497f9722a3daafe3b4186f6b6457e060405160405180910390a35050565b600081519050620001568162000195565b92915050565b6000602082840312156200016f57600080fd5b60006200017f8482850162000145565b91505092915050565b600060ff82169050919050565b620001a08162000188565b8114620001ac57600080fd5b50565b615fca80620001bf6000396000f3fe60806040523480156200001157600080fd5b5060043610620001185760003560e01c8063715018a611620000a5578063b9bfaf25116200006f578063b9bfaf2514620002cf578063e4683a791462000305578063f2fde38b1462000325578063ff40309f14620003455762000118565b8063715018a6146200024b578063846b91e314620002575780638bc56e05146200028d5780638da5cb5b14620002ad5762000118565b8063559cf36f11620000e7578063559cf36f14620001b55780635daaa71014620001d5578063671f89b2146200020b57806369c7e725146200022b5762000118565b80630387c17d146200011d57806316da863214620001535780632dce0a6b14620001735780634633b8211462000195575b600080fd5b6200013b6004803603810190620001359190620028df565b62000367565b6040516200014a9190620032d3565b60405180910390f35b6200017160048036038101906200016b9190620028df565b620003bd565b005b6200017d6200054c565b6040516200018c9190620032af565b60405180910390f35b620001b36004803603810190620001ad919062002ac2565b62000848565b005b620001d36004803603810190620001cd91906200290b565b62000c6f565b005b620001f36004803603810190620001ed9190620028df565b620012e5565b60405162000202919062003204565b60405180910390f35b620002296004803603810190620002239190620029b9565b6200134e565b005b62000249600480360381019062000243919062002a81565b6200162f565b005b6200025562001b2d565b005b6200027560048036038101906200026f9190620028df565b62001bbe565b604051620002849190620032d3565b60405180910390f35b620002ab6004803603810190620002a5919062002a81565b62001c56565b005b620002b762001eee565b604051620002c6919062003204565b60405180910390f35b620002ed6004803603810190620002e79190620028df565b62001f17565b604051620002fc91906200361d565b60405180910390f35b6200032360048036038101906200031d919062002a81565b62001f6d565b005b6200034360048036038101906200033d9190620028df565b620024c6565b005b6200034f620025ca565b6040516200035e91906200328b565b60405180910390f35b6000600460008373ffffffffffffffffffffffffffffffffffffffff1673ffffffffffffffffffffffffffffffffffffffff16815260200190815260200160002060009054906101000a900460ff169050919050565b620003c76200265a565b73ffffffffffffffffffffffffffffffffffffffff16620003e762001eee565b73ffffffffffffffffffffffffffffffffffffffff161462000440576040517f08c379a00000000000000000000000000000000000000000000000000000000081526004016200043790620034a7565b60405180910390fd5b6200044b8162000367565b156200048e576040517f08c379a0000000000000000000000000000000000000000000000000000000008152600401620004859062003573565b60405180910390fd5b6001819080600181540180825580915050600190039060005260206000200160009091909190916101000a81548173ffffffffffffffffffffffffffffffffffffffff021916908373ffffffffffffffffffffffffffffffffffffffff1602179055506001600460008373ffffffffffffffffffffffffffffffffffffffff1673ffffffffffffffffffffffffffffffffffffffff16815260200190815260200160002060006101000a81548160ff02191690831515021790555050565b6060600060028054905067ffffffffffffffff81111562000596577f4e487b7100000000000000000000000000000000000000000000000000000000600052604160045260246000fd5b604051908082528060200260200182016040528015620005d357816020015b620005bf62002726565b815260200190600190039081620005b55790505b50905060005b6002805490508110156200084057600360006002838154811062000626577f4e487b7100000000000000000000000000000000000000000000000000000000600052603260045260246000fd5b90600052602060002001548152602001908152602001600020604051806101600160405290816000820154815260200160018201548152602001600282015481526020016003820160009054906101000a900460ff1660ff1660ff1681526020016003820160019054906101000a900460ff1660ff1660ff1681526020016003820160029054906101000a900473ffffffffffffffffffffffffffffffffffffffff1673ffffffffffffffffffffffffffffffffffffffff1673ffffffffffffffffffffffffffffffffffffffff1681526020016004820160009054906101000a900473ffffffffffffffffffffffffffffffffffffffff1673ffffffffffffffffffffffffffffffffffffffff1673ffffffffffffffffffffffffffffffffffffffff1681526020016005820160009054906101000a900473ffffffffffffffffffffffffffffffffffffffff1673ffffffffffffffffffffffffffffffffffffffff1673ffffffffffffffffffffffffffffffffffffffff168152602001600682015481526020016007820160009054906101000a900460ff161515151581526020016007820160019054906101000a900460ff1615151515815250508282815181106200081f577f4e487b7100000000000000000000000000000000000000000000000000000000600052603260045260246000fd5b60200260200101819052508080620008379062003803565b915050620005d9565b508091505090565b620008526200265a565b73ffffffffffffffffffffffffffffffffffffffff166200087262001eee565b73ffffffffffffffffffffffffffffffffffffffff1614620008cb576040517f08c379a0000000000000000000000000000000000000000000000000000000008152600401620008c290620034a7565b60405180910390fd5b600073ffffffffffffffffffffffffffffffffffffffff166003600089815260200190815260200160002060040160009054906101000a900473ffffffffffffffffffffffffffffffffffffffff1673ffffffffffffffffffffffffffffffffffffffff161462000973576040517f08c379a00000000000000000000000000000000000000000000000000000000081526004016200096a9062003485565b60405180910390fd5b6200097e8562001bbe565b620009c0576040517f08c379a0000000000000000000000000000000000000000000000000000000008152600401620009b79062003441565b60405180910390fd5b60028790806001815401808255809150506001900390600052602060002001600090919091909150556040518061016001604052808881526020018281526020016000801b81526020018760ff168152602001600060149054906101000a900460ff1660ff1681526020018673ffffffffffffffffffffffffffffffffffffffff1681526020018573ffffffffffffffffffffffffffffffffffffffff1681526020018473ffffffffffffffffffffffffffffffffffffffff168152602001838152602001600115158152602001600015158152506003600089815260200190815260200160002060008201518160000155602082015181600101556040820151816002015560608201518160030160006101000a81548160ff021916908360ff16021790555060808201518160030160016101000a81548160ff021916908360ff16021790555060a08201518160030160026101000a81548173ffffffffffffffffffffffffffffffffffffffff021916908373ffffffffffffffffffffffffffffffffffffffff16021790555060c08201518160040160006101000a81548173ffffffffffffffffffffffffffffffffffffffff021916908373ffffffffffffffffffffffffffffffffffffffff16021790555060e08201518160050160006101000a81548173ffffffffffffffffffffffffffffffffffffffff021916908373ffffffffffffffffffffffffffffffffffffffff16021790555061010082015181600601556101208201518160070160006101000a81548160ff0219169083151502179055506101408201518160070160016101000a81548160ff0219169083151502179055509050507f7d8b50eea1361e487a491b69353f2bb3d3d5f871c083c39424819c8f15c92c6f8760405162000c5e9190620032f0565b60405180910390a150505050505050565b6000831162000cb5576040517f08c379a000000000000000000000000000000000000000000000000000000000815260040162000cac90620035b7565b60405180910390fd5b6000334260405160200162000ccc929190620031b7565b604051602081830303815290604052805190602001209050600073ffffffffffffffffffffffffffffffffffffffff166003600083815260200190815260200160002060040160009054906101000a900473ffffffffffffffffffffffffffffffffffffffff1673ffffffffffffffffffffffffffffffffffffffff161462000d8c576040517f08c379a000000000000000000000000000000000000000000000000000000000815260040162000d839062003551565b60405180910390fd5b6000600460008873ffffffffffffffffffffffffffffffffffffffff1673ffffffffffffffffffffffffffffffffffffffff16815260200190815260200160002060009054906101000a900460ff169050808062000e3b57508260ff16600560008973ffffffffffffffffffffffffffffffffffffffff1673ffffffffffffffffffffffffffffffffffffffff16815260200190815260200160002060009054906101000a900460ff1660ff16145b62000e7d576040517f08c379a000000000000000000000000000000000000000000000000000000000815260040162000e7490620034eb565b60405180910390fd5b60028290806001815401808255809150506001900390600052602060002001600090919091909150556040518061016001604052808381526020018581526020016000801b8152602001600060149054906101000a900460ff1660ff1681526020018460ff1681526020018873ffffffffffffffffffffffffffffffffffffffff1681526020013373ffffffffffffffffffffffffffffffffffffffff1681526020018773ffffffffffffffffffffffffffffffffffffffff168152602001868152602001600115158152602001600115158152506003600084815260200190815260200160002060008201518160000155602082015181600101556040820151816002015560608201518160030160006101000a81548160ff021916908360ff16021790555060808201518160030160016101000a81548160ff021916908360ff16021790555060a08201518160030160026101000a81548173ffffffffffffffffffffffffffffffffffffffff021916908373ffffffffffffffffffffffffffffffffffffffff16021790555060c08201518160040160006101000a81548173ffffffffffffffffffffffffffffffffffffffff021916908373ffffffffffffffffffffffffffffffffffffffff16021790555060e08201518160050160006101000a81548173ffffffffffffffffffffffffffffffffffffffff021916908373ffffffffffffffffffffffffffffffffffffffff16021790555061010082015181600601556101208201518160070160006101000a81548160ff0219169083151502179055506101408201518160070160016101000a81548160ff02191690831515021790555090505080620011cb578673ffffffffffffffffffffffffffffffffffffffff16639dc29fac33876040518363ffffffff1660e01b81526004016200112d9291906200325e565b602060405180830381600087803b1580156200114857600080fd5b505af11580156200115d573d6000803e3d6000fd5b505050506040513d601f19601f820116820180604052508101906200118391906200298d565b620011c5576040517f08c379a0000000000000000000000000000000000000000000000000000000008152600401620011bc9062003375565b60405180910390fd5b620012a3565b8673ffffffffffffffffffffffffffffffffffffffff166323b872dd3330886040518463ffffffff1660e01b81526004016200120a9392919062003221565b602060405180830381600087803b1580156200122557600080fd5b505af11580156200123a573d6000803e3d6000fd5b505050506040513d601f19601f820116820180604052508101906200126091906200298d565b620012a2576040517f08c379a00000000000000000000000000000000000000000000000000000000081526004016200129990620034c9565b60405180910390fd5b5b7fb2f309809a4fc51a68e04ac2f5328b8d78a3bb74f6616e8bc5958b75e215d56082604051620012d49190620032f0565b60405180910390a150505050505050565b6000600660008373ffffffffffffffffffffffffffffffffffffffff1673ffffffffffffffffffffffffffffffffffffffff16815260200190815260200160002060009054906101000a900473ffffffffffffffffffffffffffffffffffffffff169050919050565b620013586200265a565b73ffffffffffffffffffffffffffffffffffffffff166200137862001eee565b73ffffffffffffffffffffffffffffffffffffffff1614620013d1576040517f08c379a0000000000000000000000000000000000000000000000000000000008152600401620013c890620034a7565b60405180910390fd5b620013dc8362001bbe565b156200141f576040517f08c379a00000000000000000000000000000000000000000000000000000000081526004016200141690620033db565b60405180910390fd5b8515620015a857600082826040516200143890620027d5565b620014459291906200333a565b604051809103906000f08015801562001462573d6000803e3d6000fd5b50905080945085600560008773ffffffffffffffffffffffffffffffffffffffff1673ffffffffffffffffffffffffffffffffffffffff16815260200190815260200160002060006101000a81548160ff021916908360ff16021790555084600660008673ffffffffffffffffffffffffffffffffffffffff1673ffffffffffffffffffffffffffffffffffffffff16815260200190815260200160002060006101000a81548173ffffffffffffffffffffffffffffffffffffffff021916908373ffffffffffffffffffffffffffffffffffffffff1602179055506001859080600181540180825580915050600190039060005260206000200160009091909190916101000a81548173ffffffffffffffffffffffffffffffffffffffff021916908373ffffffffffffffffffffffffffffffffffffffff1602179055505062001627565b82600660008673ffffffffffffffffffffffffffffffffffffffff1673ffffffffffffffffffffffffffffffffffffffff16815260200190815260200160002060006101000a81548173ffffffffffffffffffffffffffffffffffffffff021916908373ffffffffffffffffffffffffffffffffffffffff1602179055505b505050505050565b81600073ffffffffffffffffffffffffffffffffffffffff166003600083815260200190815260200160002060040160009054906101000a900473ffffffffffffffffffffffffffffffffffffffff1673ffffffffffffffffffffffffffffffffffffffff161415620016d9576040517f08c379a0000000000000000000000000000000000000000000000000000000008152600401620016d090620033b9565b60405180910390fd5b60036000848152602001908152602001600020600101548280604051602001620017049190620031e7565b6040516020818303038152906040528051906020012082146200175e576040517f08c379a00000000000000000000000000000000000000000000000000000000081526004016200175590620035d9565b60405180910390fd5b846003600082815260200190815260200160002060070160009054906101000a900460ff16620017c5576040517f08c379a0000000000000000000000000000000000000000000000000000000008152600401620017bc906200341f565b60405180910390fd5b60006003600088815260200190815260200160002090503373ffffffffffffffffffffffffffffffffffffffff168160050160009054906101000a900473ffffffffffffffffffffffffffffffffffffffff1673ffffffffffffffffffffffffffffffffffffffff161462001871576040517f08c379a0000000000000000000000000000000000000000000000000000000008152600401620018689062003463565b60405180910390fd5b60008160070160006101000a81548160ff0219169083151502179055508581600201819055506000600660008360030160029054906101000a900473ffffffffffffffffffffffffffffffffffffffff1673ffffffffffffffffffffffffffffffffffffffff1673ffffffffffffffffffffffffffffffffffffffff16815260200190815260200160002060009054906101000a900473ffffffffffffffffffffffffffffffffffffffff1690506200192a8162000367565b62001a0e578073ffffffffffffffffffffffffffffffffffffffff166340c10f193384600601546040518363ffffffff1660e01b8152600401620019709291906200325e565b602060405180830381600087803b1580156200198b57600080fd5b505af1158015620019a0573d6000803e3d6000fd5b505050506040513d601f19601f82011682018060405250810190620019c691906200298d565b62001a08576040517f08c379a0000000000000000000000000000000000000000000000000000000008152600401620019ff90620033fd565b60405180910390fd5b62001ae8565b8073ffffffffffffffffffffffffffffffffffffffff1663a9059cbb3384600601546040518363ffffffff1660e01b815260040162001a4f9291906200325e565b602060405180830381600087803b15801562001a6a57600080fd5b505af115801562001a7f573d6000803e3d6000fd5b505050506040513d601f19601f8201168201806040525081019062001aa591906200298d565b62001ae7576040517f08c379a000000000000000000000000000000000000000000000000000000000815260040162001ade906200352f565b60405180910390fd5b5b7fae13508b7012afb645b5a3fc272161302ae08fb5ed9cf02090c6c06bdc515ef3888860405162001b1b9291906200330d565b60405180910390a15050505050505050565b62001b376200265a565b73ffffffffffffffffffffffffffffffffffffffff1662001b5762001eee565b73ffffffffffffffffffffffffffffffffffffffff161462001bb0576040517f08c379a000000000000000000000000000000000000000000000000000000000815260040162001ba790620034a7565b60405180910390fd5b62001bbc600062002662565b565b60008073ffffffffffffffffffffffffffffffffffffffff16600660008473ffffffffffffffffffffffffffffffffffffffff1673ffffffffffffffffffffffffffffffffffffffff16815260200190815260200160002060009054906101000a900473ffffffffffffffffffffffffffffffffffffffff1673ffffffffffffffffffffffffffffffffffffffff1614159050919050565b62001c606200265a565b73ffffffffffffffffffffffffffffffffffffffff1662001c8062001eee565b73ffffffffffffffffffffffffffffffffffffffff161462001cd9576040517f08c379a000000000000000000000000000000000000000000000000000000000815260040162001cd090620034a7565b60405180910390fd5b81600073ffffffffffffffffffffffffffffffffffffffff166003600083815260200190815260200160002060040160009054906101000a900473ffffffffffffffffffffffffffffffffffffffff1673ffffffffffffffffffffffffffffffffffffffff16141562001d83576040517f08c379a000000000000000000000000000000000000000000000000000000000815260040162001d7a90620033b9565b60405180910390fd5b826003600082815260200190815260200160002060070160009054906101000a900460ff1662001dea576040517f08c379a000000000000000000000000000000000000000000000000000000000815260040162001de1906200341f565b60405180910390fd5b6003600085815260200190815260200160002060010154838060405160200162001e159190620031e7565b60405160208183030381529060405280519060200120821462001e6f576040517f08c379a000000000000000000000000000000000000000000000000000000000815260040162001e6690620035d9565b60405180910390fd5b600060036000888152602001908152602001600020905060008160070160006101000a81548160ff0219169083151502179055508581600201819055507f1f4f67c737eeba13476cae0a3f4c79312ea1ba6d1b58cb0b4f10c87354a461c78760405162001edd9190620032f0565b60405180910390a150505050505050565b60008060009054906101000a900473ffffffffffffffffffffffffffffffffffffffff16905090565b6000600560008373ffffffffffffffffffffffffffffffffffffffff1673ffffffffffffffffffffffffffffffffffffffff16815260200190815260200160002060009054906101000a900460ff169050919050565b81600073ffffffffffffffffffffffffffffffffffffffff166003600083815260200190815260200160002060040160009054906101000a900473ffffffffffffffffffffffffffffffffffffffff1673ffffffffffffffffffffffffffffffffffffffff16141562002017576040517f08c379a00000000000000000000000000000000000000000000000000000000081526004016200200e90620033b9565b60405180910390fd5b826003600082815260200190815260200160002060070160009054906101000a900460ff166200207e576040517f08c379a000000000000000000000000000000000000000000000000000000000815260040162002075906200341f565b60405180910390fd5b60036000858152602001908152602001600020600101548380604051602001620020a99190620031e7565b60405160208183030381529060405280519060200120821462002103576040517f08c379a0000000000000000000000000000000000000000000000000000000008152600401620020fa90620035d9565b60405180910390fd5b3373ffffffffffffffffffffffffffffffffffffffff166003600088815260200190815260200160002060040160009054906101000a900473ffffffffffffffffffffffffffffffffffffffff1673ffffffffffffffffffffffffffffffffffffffff1614620021aa576040517f08c379a0000000000000000000000000000000000000000000000000000000008152600401620021a19062003595565b60405180910390fd5b600060036000888152602001908152602001600020905060008160070160006101000a81548160ff021916908315150217905550858160020181905550600460008260030160029054906101000a900473ffffffffffffffffffffffffffffffffffffffff1673ffffffffffffffffffffffffffffffffffffffff1673ffffffffffffffffffffffffffffffffffffffff16815260200190815260200160002060009054906101000a900460ff1662002360578060030160029054906101000a900473ffffffffffffffffffffffffffffffffffffffff1673ffffffffffffffffffffffffffffffffffffffff166340c10f193383600601546040518363ffffffff1660e01b8152600401620022c29291906200325e565b602060405180830381600087803b158015620022dd57600080fd5b505af1158015620022f2573d6000803e3d6000fd5b505050506040513d601f19601f820116820180604052508101906200231891906200298d565b6200235a576040517f08c379a00000000000000000000000000000000000000000000000000000000081526004016200235190620035fb565b60405180910390fd5b62002482565b8060030160029054906101000a900473ffffffffffffffffffffffffffffffffffffffff1673ffffffffffffffffffffffffffffffffffffffff1663a9059cbb8260040160009054906101000a900473ffffffffffffffffffffffffffffffffffffffff1683600601546040518363ffffffff1660e01b8152600401620023e99291906200325e565b602060405180830381600087803b1580156200240457600080fd5b505af115801562002419573d6000803e3d6000fd5b505050506040513d601f19601f820116820180604052508101906200243f91906200298d565b62002481576040517f08c379a000000000000000000000000000000000000000000000000000000000815260040162002478906200350d565b60405180910390fd5b5b7f72bd658852abad871726c183c8b61abc4c3db69311f3c7c650cc775d129aee4f8787604051620024b59291906200330d565b60405180910390a150505050505050565b620024d06200265a565b73ffffffffffffffffffffffffffffffffffffffff16620024f062001eee565b73ffffffffffffffffffffffffffffffffffffffff161462002549576040517f08c379a00000000000000000000000000000000000000000000000000000000081526004016200254090620034a7565b60405180910390fd5b600073ffffffffffffffffffffffffffffffffffffffff168173ffffffffffffffffffffffffffffffffffffffff161415620025bc576040517f08c379a0000000000000000000000000000000000000000000000000000000008152600401620025b39062003397565b60405180910390fd5b620025c78162002662565b50565b606060018054806020026020016040519081016040528092919081815260200182805480156200265057602002820191906000526020600020905b8160009054906101000a900473ffffffffffffffffffffffffffffffffffffffff1673ffffffffffffffffffffffffffffffffffffffff168152602001906001019080831162002605575b5050505050905090565b600033905090565b60008060009054906101000a900473ffffffffffffffffffffffffffffffffffffffff169050816000806101000a81548173ffffffffffffffffffffffffffffffffffffffff021916908373ffffffffffffffffffffffffffffffffffffffff1602179055508173ffffffffffffffffffffffffffffffffffffffff168173ffffffffffffffffffffffffffffffffffffffff167f8be0079c531659141344cd1fd0a4f28419497f9722a3daafe3b4186f6b6457e060405160405180910390a35050565b604051806101600160405280600080191681526020016000801916815260200160008019168152602001600060ff168152602001600060ff168152602001600073ffffffffffffffffffffffffffffffffffffffff168152602001600073ffffffffffffffffffffffffffffffffffffffff168152602001600073ffffffffffffffffffffffffffffffffffffffff168152602001600081526020016000151581526020016000151581525090565b6122638062003d3283390190565b6000620027fa620027f48462003663565b6200363a565b9050828152602081018484840111156200281357600080fd5b6200282084828562003788565b509392505050565b600081359050620028398162003caf565b92915050565b600081359050620028508162003cc9565b92915050565b600081519050620028678162003cc9565b92915050565b6000813590506200287e8162003ce3565b92915050565b600082601f8301126200289657600080fd5b8135620028a8848260208601620027e3565b91505092915050565b600081359050620028c28162003cfd565b92915050565b600081359050620028d98162003d17565b92915050565b600060208284031215620028f257600080fd5b6000620029028482850162002828565b91505092915050565b600080600080600060a086880312156200292457600080fd5b6000620029348882890162002828565b9550506020620029478882890162002828565b94505060406200295a88828901620028b1565b93505060606200296d888289016200286d565b92505060806200298088828901620028c8565b9150509295509295909350565b600060208284031215620029a057600080fd5b6000620029b08482850162002856565b91505092915050565b60008060008060008060c08789031215620029d357600080fd5b6000620029e389828a016200283f565b9650506020620029f689828a01620028c8565b955050604062002a0989828a0162002828565b945050606062002a1c89828a0162002828565b935050608087013567ffffffffffffffff81111562002a3a57600080fd5b62002a4889828a0162002884565b92505060a087013567ffffffffffffffff81111562002a6657600080fd5b62002a7489828a0162002884565b9150509295509295509295565b6000806040838503121562002a9557600080fd5b600062002aa5858286016200286d565b925050602062002ab8858286016200286d565b9150509250929050565b600080600080600080600060e0888a03121562002ade57600080fd5b600062002aee8a828b016200286d565b975050602062002b018a828b01620028c8565b965050604062002b148a828b0162002828565b955050606062002b278a828b0162002828565b945050608062002b3a8a828b0162002828565b93505060a062002b4d8a828b01620028b1565b92505060c062002b608a828b016200286d565b91505092959891949750929550565b600062002b7d838362002ba4565b60208301905092915050565b600062002b97838362003061565b6101608301905092915050565b62002baf8162003727565b82525050565b62002bc08162003727565b82525050565b62002bdb62002bd58262003727565b62003851565b82525050565b600062002bee82620036b9565b62002bfa8185620036f4565b935062002c078362003699565b8060005b8381101562002c3e57815162002c22888262002b6f565b975062002c2f83620036da565b92505060018101905062002c0b565b5085935050505092915050565b600062002c5882620036c4565b62002c64818562003705565b935062002c7183620036a9565b8060005b8381101562002ca857815162002c8c888262002b89565b975062002c9983620036e7565b92505060018101905062002c75565b5085935050505092915050565b62002cc0816200373b565b82525050565b62002cd1816200373b565b82525050565b62002ce28162003747565b82525050565b62002cf38162003747565b82525050565b62002d0e62002d088262003747565b62003865565b82525050565b600062002d2182620036cf565b62002d2d818562003716565b935062002d3f81856020860162003797565b62002d4a81620038eb565b840191505092915050565b600062002d64600b8362003716565b915062002d718262003909565b602082019050919050565b600062002d8b60268362003716565b915062002d988262003932565b604082019050919050565b600062002db260158362003716565b915062002dbf8262003981565b602082019050919050565b600062002dd960278362003716565b915062002de682620039aa565b604082019050919050565b600062002e00600b8362003716565b915062002e0d82620039f9565b602082019050919050565b600062002e27601c8362003716565b915062002e348262003a22565b602082019050919050565b600062002e4e601a8362003716565b915062002e5b8262003a4b565b602082019050919050565b600062002e7560168362003716565b915062002e828262003a74565b602082019050919050565b600062002e9c600e8362003716565b915062002ea98262003a9d565b602082019050919050565b600062002ec360208362003716565b915062002ed08262003ac6565b602082019050919050565b600062002eea60138362003716565b915062002ef78262003aef565b602082019050919050565b600062002f1160188362003716565b915062002f1e8262003b18565b602082019050919050565b600062002f3860228362003716565b915062002f458262003b41565b604082019050919050565b600062002f5f600f8362003716565b915062002f6c8262003b90565b602082019050919050565b600062002f86600d8362003716565b915062002f938262003bb9565b602082019050919050565b600062002fad601f8362003716565b915062002fba8262003be2565b602082019050919050565b600062002fd460168362003716565b915062002fe18262003c0b565b602082019050919050565b600062002ffb60188362003716565b9150620030088262003c34565b602082019050919050565b600062003022601c8362003716565b91506200302f8262003c5d565b602082019050919050565b600062003049600d8362003716565b9150620030568262003c86565b602082019050919050565b610160820160008201516200307a600085018262002cd7565b5060208201516200308f602085018262002cd7565b506040820151620030a4604085018262002cd7565b506060820151620030b9606085018262003195565b506080820151620030ce608085018262003195565b5060a0820151620030e360a085018262002ba4565b5060c0820151620030f860c085018262002ba4565b5060e08201516200310d60e085018262002ba4565b506101008201516200312461010085018262003158565b506101208201516200313b61012085018262002cb5565b506101408201516200315261014085018262002cb5565b50505050565b620031638162003771565b82525050565b620031748162003771565b82525050565b6200318f620031898262003771565b62003883565b82525050565b620031a0816200377b565b82525050565b620031b1816200377b565b82525050565b6000620031c5828562002bc6565b601482019150620031d782846200317a565b6020820191508190509392505050565b6000620031f5828462002cf9565b60208201915081905092915050565b60006020820190506200321b600083018462002bb5565b92915050565b600060608201905062003238600083018662002bb5565b62003247602083018562002bb5565b62003256604083018462003169565b949350505050565b600060408201905062003275600083018562002bb5565b62003284602083018462003169565b9392505050565b60006020820190508181036000830152620032a7818462002be1565b905092915050565b60006020820190508181036000830152620032cb818462002c4b565b905092915050565b6000602082019050620032ea600083018462002cc6565b92915050565b600060208201905062003307600083018462002ce8565b92915050565b600060408201905062003324600083018562002ce8565b62003333602083018462002ce8565b9392505050565b6000604082019050818103600083015262003356818562002d14565b905081810360208301526200336c818462002d14565b90509392505050565b60006020820190508181036000830152620033908162002d55565b9050919050565b60006020820190508181036000830152620033b28162002d7c565b9050919050565b60006020820190508181036000830152620033d48162002da3565b9050919050565b60006020820190508181036000830152620033f68162002dca565b9050919050565b60006020820190508181036000830152620034188162002df1565b9050919050565b600060208201905081810360008301526200343a8162002e18565b9050919050565b600060208201905081810360008301526200345c8162002e3f565b9050919050565b600060208201905081810360008301526200347e8162002e66565b9050919050565b60006020820190508181036000830152620034a08162002e8d565b9050919050565b60006020820190508181036000830152620034c28162002eb4565b9050919050565b60006020820190508181036000830152620034e48162002edb565b9050919050565b60006020820190508181036000830152620035068162002f02565b9050919050565b60006020820190508181036000830152620035288162002f29565b9050919050565b600060208201905081810360008301526200354a8162002f50565b9050919050565b600060208201905081810360008301526200356c8162002f77565b9050919050565b600060208201905081810360008301526200358e8162002f9e565b9050919050565b60006020820190508181036000830152620035b08162002fc5565b9050919050565b60006020820190508181036000830152620035d28162002fec565b9050919050565b60006020820190508181036000830152620035f48162003013565b9050919050565b6000602082019050818103600083015262003616816200303a565b9050919050565b6000602082019050620036346000830184620031a6565b92915050565b60006200364662003659565b9050620036548282620037cd565b919050565b6000604051905090565b600067ffffffffffffffff821115620036815762003680620038bc565b5b6200368c82620038eb565b9050602081019050919050565b6000819050602082019050919050565b6000819050602082019050919050565b600081519050919050565b600081519050919050565b600081519050919050565b6000602082019050919050565b6000602082019050919050565b600082825260208201905092915050565b600082825260208201905092915050565b600082825260208201905092915050565b6000620037348262003751565b9050919050565b60008115159050919050565b6000819050919050565b600073ffffffffffffffffffffffffffffffffffffffff82169050919050565b6000819050919050565b600060ff82169050919050565b82818337600083830152505050565b60005b83811015620037b75780820151818401526020810190506200379a565b83811115620037c7576000848401525b50505050565b620037d882620038eb565b810181811067ffffffffffffffff82111715620037fa57620037f9620038bc565b5b80604052505050565b6000620038108262003771565b91507fffffffffffffffffffffffffffffffffffffffffffffffffffffffffffffffff8214156200384657620038456200388d565b5b600182019050919050565b60006200385e826200386f565b9050919050565b6000819050919050565b60006200387c82620038fc565b9050919050565b6000819050919050565b7f4e487b7100000000000000000000000000000000000000000000000000000000600052601160045260246000fd5b7f4e487b7100000000000000000000000000000000000000000000000000000000600052604160045260246000fd5b6000601f19601f8301169050919050565b60008160601b9050919050565b7f6275726e206661696c6564000000000000000000000000000000000000000000600082015250565b7f4f776e61626c653a206e6577206f776e657220697320746865207a65726f206160008201527f6464726573730000000000000000000000000000000000000000000000000000602082015250565b7f62726964676520646f6573206e6f742065786973740000000000000000000000600082015250565b7f436f6e747261637420616c72656164792065786973747320666f72207468697360008201527f20736f7572636500000000000000000000000000000000000000000000000000602082015250565b7f6d696e74206661696c6564000000000000000000000000000000000000000000600082015250565b7f726566756e6461626c653a20616c726561647920726566756e64656400000000600082015250565b7f44657374696e6174696f6e20646f6573206e6f74206578697374000000000000600082015250565b7f6d73672e73656e64657220213d20726563656976657200000000000000000000600082015250565b7f52656c6561736520657869737473000000000000000000000000000000000000600082015250565b7f4f776e61626c653a2063616c6c6572206973206e6f7420746865206f776e6572600082015250565b7f7472616e7366657246726f6d206661696c656400000000000000000000000000600082015250565b7f647374436861696e496420213d20737263436861696e49640000000000000000600082015250565b7f7472616e7366657246726f6d2073656e64657220746f2074686973206661696c60008201527f6564000000000000000000000000000000000000000000000000000000000000602082015250565b7f7472616e73666572206661696c65640000000000000000000000000000000000600082015250565b7f4272696467652065786973747300000000000000000000000000000000000000600082015250565b7f436f696e20616c726561647920657869737473206173206f726967696e616c00600082015250565b7f726566756e6461626c653a206e6f742073656e64657200000000000000000000600082015250565b7f746f6b656e20616d6f756e74206d757374206265203e20300000000000000000600082015250565b7f686173686c6f636b206861736820646f6573206e6f74206d6174636800000000600082015250565b7f726566756e64206661696c656400000000000000000000000000000000000000600082015250565b62003cba8162003727565b811462003cc657600080fd5b50565b62003cd4816200373b565b811462003ce057600080fd5b50565b62003cee8162003747565b811462003cfa57600080fd5b50565b62003d088162003771565b811462003d1457600080fd5b50565b62003d22816200377b565b811462003d2e57600080fd5b5056fe60806040523480156200001157600080fd5b506040516200226338038062002263833981810160405281019062000037919062000285565b818181600390805190602001906200005192919062000163565b5080600490805190602001906200006a92919062000163565b5050506200008d620000816200009560201b60201c565b6200009d60201b60201c565b505062000468565b600033905090565b6000600560009054906101000a900473ffffffffffffffffffffffffffffffffffffffff16905081600560006101000a81548173ffffffffffffffffffffffffffffffffffffffff021916908373ffffffffffffffffffffffffffffffffffffffff1602179055508173ffffffffffffffffffffffffffffffffffffffff168173ffffffffffffffffffffffffffffffffffffffff167f8be0079c531659141344cd1fd0a4f28419497f9722a3daafe3b4186f6b6457e060405160405180910390a35050565b82805462000171906200038d565b90600052602060002090601f016020900481019282620001955760008555620001e1565b82601f10620001b057805160ff1916838001178555620001e1565b82800160010185558215620001e1579182015b82811115620001e0578251825591602001919060010190620001c3565b5b509050620001f09190620001f4565b5090565b5b808211156200020f576000816000905550600101620001f5565b5090565b60006200022a620002248462000321565b620002f8565b9050828152602081018484840111156200024357600080fd5b6200025084828562000357565b509392505050565b600082601f8301126200026a57600080fd5b81516200027c84826020860162000213565b91505092915050565b600080604083850312156200029957600080fd5b600083015167ffffffffffffffff811115620002b457600080fd5b620002c28582860162000258565b925050602083015167ffffffffffffffff811115620002e057600080fd5b620002ee8582860162000258565b9150509250929050565b60006200030462000317565b9050620003128282620003c3565b919050565b6000604051905090565b600067ffffffffffffffff8211156200033f576200033e62000428565b5b6200034a8262000457565b9050602081019050919050565b60005b83811015620003775780820151818401526020810190506200035a565b8381111562000387576000848401525b50505050565b60006002820490506001821680620003a657607f821691505b60208210811415620003bd57620003bc620003f9565b5b50919050565b620003ce8262000457565b810181811067ffffffffffffffff82111715620003f057620003ef62000428565b5b80604052505050565b7f4e487b7100000000000000000000000000000000000000000000000000000000600052602260045260246000fd5b7f4e487b7100000000000000000000000000000000000000000000000000000000600052604160045260246000fd5b6000601f19601f8301169050919050565b611deb80620004786000396000f3fe608060405234801561001057600080fd5b50600436106101005760003560e01c8063715018a611610097578063a457c2d711610066578063a457c2d7146102c5578063a9059cbb146102f5578063dd62ed3e14610325578063f2fde38b1461035557610100565b8063715018a61461024f5780638da5cb5b1461025957806395d89b41146102775780639dc29fac1461029557610100565b8063313ce567116100d3578063313ce567146101a157806339509351146101bf57806340c10f19146101ef57806370a082311461021f57610100565b806306fdde0314610105578063095ea7b31461012357806318160ddd1461015357806323b872dd14610171575b600080fd5b61010d610371565b60405161011a919061169e565b60405180910390f35b61013d60048036038101906101389190611413565b610403565b60405161014a9190611683565b60405180910390f35b61015b610426565b6040516101689190611840565b60405180910390f35b61018b600480360381019061018691906113c4565b610430565b6040516101989190611683565b60405180910390f35b6101a961045f565b6040516101b6919061185b565b60405180910390f35b6101d960048036038101906101d49190611413565b610468565b6040516101e69190611683565b60405180910390f35b61020960048036038101906102049190611413565b610512565b6040516102169190611683565b60405180910390f35b6102396004803603810190610234919061135f565b6105a4565b6040516102469190611840565b60405180910390f35b6102576105ec565b005b610261610674565b60405161026e9190611668565b60405180910390f35b61027f61069e565b60405161028c919061169e565b60405180910390f35b6102af60048036038101906102aa9190611413565b610730565b6040516102bc9190611683565b60405180910390f35b6102df60048036038101906102da9190611413565b6107c2565b6040516102ec9190611683565b60405180910390f35b61030f600480360381019061030a9190611413565b6108ac565b60405161031c9190611683565b60405180910390f35b61033f600480360381019061033a9190611388565b6108cf565b60405161034c9190611840565b60405180910390f35b61036f600480360381019061036a919061135f565b610956565b005b606060038054610380906119a4565b80601f01602080910402602001604051908101604052809291908181526020018280546103ac906119a4565b80156103f95780601f106103ce576101008083540402835291602001916103f9565b820191906000526020600020905b8154815290600101906020018083116103dc57829003601f168201915b5050505050905090565b60008061040e610a4e565b905061041b818585610a56565b600191505092915050565b6000600254905090565b60008061043b610a4e565b9050610448858285610c21565b610453858585610cad565b60019150509392505050565b60006012905090565b600080610473610a4e565b9050610507818585600160008673ffffffffffffffffffffffffffffffffffffffff1673ffffffffffffffffffffffffffffffffffffffff16815260200190815260200160002060008973ffffffffffffffffffffffffffffffffffffffff1673ffffffffffffffffffffffffffffffffffffffff168152602001908152602001600020546105029190611892565b610a56565b600191505092915050565b600061051c610a4e565b73ffffffffffffffffffffffffffffffffffffffff1661053a610674565b73ffffffffffffffffffffffffffffffffffffffff1614610590576040517f08c379a000000000000000000000000000000000000000000000000000000000815260040161058790611780565b60405180910390fd5b61059a8383610f2e565b6001905092915050565b60008060008373ffffffffffffffffffffffffffffffffffffffff1673ffffffffffffffffffffffffffffffffffffffff168152602001908152602001600020549050919050565b6105f4610a4e565b73ffffffffffffffffffffffffffffffffffffffff16610612610674565b73ffffffffffffffffffffffffffffffffffffffff1614610668576040517f08c379a000000000000000000000000000000000000000000000000000000000815260040161065f90611780565b60405180910390fd5b610672600061108e565b565b6000600560009054906101000a900473ffffffffffffffffffffffffffffffffffffffff16905090565b6060600480546106ad906119a4565b80601f01602080910402602001604051908101604052809291908181526020018280546106d9906119a4565b80156107265780601f106106fb57610100808354040283529160200191610726565b820191906000526020600020905b81548152906001019060200180831161070957829003601f168201915b5050505050905090565b600061073a610a4e565b73ffffffffffffffffffffffffffffffffffffffff16610758610674565b73ffffffffffffffffffffffffffffffffffffffff16146107ae576040517f08c379a00000000000000000000000000000000000000000000000000000000081526004016107a590611780565b60405180910390fd5b6107b88383611154565b6001905092915050565b6000806107cd610a4e565b90506000600160008373ffffffffffffffffffffffffffffffffffffffff1673ffffffffffffffffffffffffffffffffffffffff16815260200190815260200160002060008673ffffffffffffffffffffffffffffffffffffffff1673ffffffffffffffffffffffffffffffffffffffff16815260200190815260200160002054905083811015610893576040517f08c379a000000000000000000000000000000000000000000000000000000000815260040161088a90611800565b60405180910390fd5b6108a08286868403610a56565b60019250505092915050565b6000806108b7610a4e565b90506108c4818585610cad565b600191505092915050565b6000600160008473ffffffffffffffffffffffffffffffffffffffff1673ffffffffffffffffffffffffffffffffffffffff16815260200190815260200160002060008373ffffffffffffffffffffffffffffffffffffffff1673ffffffffffffffffffffffffffffffffffffffff16815260200190815260200160002054905092915050565b61095e610a4e565b73ffffffffffffffffffffffffffffffffffffffff1661097c610674565b73ffffffffffffffffffffffffffffffffffffffff16146109d2576040517f08c379a00000000000000000000000000000000000000000000000000000000081526004016109c990611780565b60405180910390fd5b600073ffffffffffffffffffffffffffffffffffffffff168173ffffffffffffffffffffffffffffffffffffffff161415610a42576040517f08c379a0000000000000000000000000000000000000000000000000000000008152600401610a3990611700565b60405180910390fd5b610a4b8161108e565b50565b600033905090565b600073ffffffffffffffffffffffffffffffffffffffff168373ffffffffffffffffffffffffffffffffffffffff161415610ac6576040517f08c379a0000000000000000000000000000000000000000000000000000000008152600401610abd906117e0565b60405180910390fd5b600073ffffffffffffffffffffffffffffffffffffffff168273ffffffffffffffffffffffffffffffffffffffff161415610b36576040517f08c379a0000000000000000000000000000000000000000000000000000000008152600401610b2d90611720565b60405180910390fd5b80600160008573ffffffffffffffffffffffffffffffffffffffff1673ffffffffffffffffffffffffffffffffffffffff16815260200190815260200160002060008473ffffffffffffffffffffffffffffffffffffffff1673ffffffffffffffffffffffffffffffffffffffff168152602001908152602001600020819055508173ffffffffffffffffffffffffffffffffffffffff168373ffffffffffffffffffffffffffffffffffffffff167f8c5be1e5ebec7d5bd14f71427d1e84f3dd0314c0f7b2291e5b200ac8c7c3b92583604051610c149190611840565b60405180910390a3505050565b6000610c2d84846108cf565b90507fffffffffffffffffffffffffffffffffffffffffffffffffffffffffffffffff8114610ca75781811015610c99576040517f08c379a0000000000000000000000000000000000000000000000000000000008152600401610c9090611740565b60405180910390fd5b610ca68484848403610a56565b5b50505050565b600073ffffffffffffffffffffffffffffffffffffffff168373ffffffffffffffffffffffffffffffffffffffff161415610d1d576040517f08c379a0000000000000000000000000000000000000000000000000000000008152600401610d14906117c0565b60405180910390fd5b600073ffffffffffffffffffffffffffffffffffffffff168273ffffffffffffffffffffffffffffffffffffffff161415610d8d576040517f08c379a0000000000000000000000000000000000000000000000000000000008152600401610d84906116c0565b60405180910390fd5b610d9883838361132b565b60008060008573ffffffffffffffffffffffffffffffffffffffff1673ffffffffffffffffffffffffffffffffffffffff16815260200190815260200160002054905081811015610e1e576040517f08c379a0000000000000000000000000000000000000000000000000000000008152600401610e1590611760565b60405180910390fd5b8181036000808673ffffffffffffffffffffffffffffffffffffffff1673ffffffffffffffffffffffffffffffffffffffff16815260200190815260200160002081905550816000808573ffffffffffffffffffffffffffffffffffffffff1673ffffffffffffffffffffffffffffffffffffffff1681526020019081526020016000206000828254610eb19190611892565b925050819055508273ffffffffffffffffffffffffffffffffffffffff168473ffffffffffffffffffffffffffffffffffffffff167fddf252ad1be2c89b69c2b068fc378daa952ba7f163c4a11628f55a4df523b3ef84604051610f159190611840565b60405180910390a3610f28848484611330565b50505050565b600073ffffffffffffffffffffffffffffffffffffffff168273ffffffffffffffffffffffffffffffffffffffff161415610f9e576040517f08c379a0000000000000000000000000000000000000000000000000000000008152600401610f9590611820565b60405180910390fd5b610faa6000838361132b565b8060026000828254610fbc9190611892565b92505081905550806000808473ffffffffffffffffffffffffffffffffffffffff1673ffffffffffffffffffffffffffffffffffffffff16815260200190815260200160002060008282546110119190611892565b925050819055508173ffffffffffffffffffffffffffffffffffffffff16600073ffffffffffffffffffffffffffffffffffffffff167fddf252ad1be2c89b69c2b068fc378daa952ba7f163c4a11628f55a4df523b3ef836040516110769190611840565b60405180910390a361108a60008383611330565b5050565b6000600560009054906101000a900473ffffffffffffffffffffffffffffffffffffffff16905081600560006101000a81548173ffffffffffffffffffffffffffffffffffffffff021916908373ffffffffffffffffffffffffffffffffffffffff1602179055508173ffffffffffffffffffffffffffffffffffffffff168173ffffffffffffffffffffffffffffffffffffffff167f8be0079c531659141344cd1fd0a4f28419497f9722a3daafe3b4186f6b6457e060405160405180910390a35050565b600073ffffffffffffffffffffffffffffffffffffffff168273ffffffffffffffffffffffffffffffffffffffff1614156111c4576040517f08c379a00000000000000000000000000000000000000000000000000000000081526004016111bb906117a0565b60405180910390fd5b6111d08260008361132b565b60008060008473ffffffffffffffffffffffffffffffffffffffff1673ffffffffffffffffffffffffffffffffffffffff16815260200190815260200160002054905081811015611256576040517f08c379a000000000000000000000000000000000000000000000000000000000815260040161124d906116e0565b60405180910390fd5b8181036000808573ffffffffffffffffffffffffffffffffffffffff1673ffffffffffffffffffffffffffffffffffffffff1681526020019081526020016000208190555081600260008282546112ad91906118e8565b92505081905550600073ffffffffffffffffffffffffffffffffffffffff168373ffffffffffffffffffffffffffffffffffffffff167fddf252ad1be2c89b69c2b068fc378daa952ba7f163c4a11628f55a4df523b3ef846040516113129190611840565b60405180910390a361132683600084611330565b505050565b505050565b505050565b60008135905061134481611d87565b92915050565b60008135905061135981611d9e565b92915050565b60006020828403121561137157600080fd5b600061137f84828501611335565b91505092915050565b6000806040838503121561139b57600080fd5b60006113a985828601611335565b92505060206113ba85828601611335565b9150509250929050565b6000806000606084860312156113d957600080fd5b60006113e786828701611335565b93505060206113f886828701611335565b92505060406114098682870161134a565b9150509250925092565b6000806040838503121561142657600080fd5b600061143485828601611335565b92505060206114458582860161134a565b9150509250929050565b6114588161191c565b82525050565b6114678161192e565b82525050565b600061147882611876565b6114828185611881565b9350611492818560208601611971565b61149b81611a34565b840191505092915050565b60006114b3602383611881565b91506114be82611a45565b604082019050919050565b60006114d6602283611881565b91506114e182611a94565b604082019050919050565b60006114f9602683611881565b915061150482611ae3565b604082019050919050565b600061151c602283611881565b915061152782611b32565b604082019050919050565b600061153f601d83611881565b915061154a82611b81565b602082019050919050565b6000611562602683611881565b915061156d82611baa565b604082019050919050565b6000611585602083611881565b915061159082611bf9565b602082019050919050565b60006115a8602183611881565b91506115b382611c22565b604082019050919050565b60006115cb602583611881565b91506115d682611c71565b604082019050919050565b60006115ee602483611881565b91506115f982611cc0565b604082019050919050565b6000611611602583611881565b915061161c82611d0f565b604082019050919050565b6000611634601f83611881565b915061163f82611d5e565b602082019050919050565b6116538161195a565b82525050565b61166281611964565b82525050565b600060208201905061167d600083018461144f565b92915050565b6000602082019050611698600083018461145e565b92915050565b600060208201905081810360008301526116b8818461146d565b905092915050565b600060208201905081810360008301526116d9816114a6565b9050919050565b600060208201905081810360008301526116f9816114c9565b9050919050565b60006020820190508181036000830152611719816114ec565b9050919050565b600060208201905081810360008301526117398161150f565b9050919050565b6000602082019050818103600083015261175981611532565b9050919050565b6000602082019050818103600083015261177981611555565b9050919050565b6000602082019050818103600083015261179981611578565b9050919050565b600060208201905081810360008301526117b98161159b565b9050919050565b600060208201905081810360008301526117d9816115be565b9050919050565b600060208201905081810360008301526117f9816115e1565b9050919050565b6000602082019050818103600083015261181981611604565b9050919050565b6000602082019050818103600083015261183981611627565b9050919050565b6000602082019050611855600083018461164a565b92915050565b60006020820190506118706000830184611659565b92915050565b600081519050919050565b600082825260208201905092915050565b600061189d8261195a565b91506118a88361195a565b9250827fffffffffffffffffffffffffffffffffffffffffffffffffffffffffffffffff038211156118dd576118dc6119d6565b5b828201905092915050565b60006118f38261195a565b91506118fe8361195a565b925082821015611911576119106119d6565b5b828203905092915050565b60006119278261193a565b9050919050565b60008115159050919050565b600073ffffffffffffffffffffffffffffffffffffffff82169050919050565b6000819050919050565b600060ff82169050919050565b60005b8381101561198f578082015181840152602081019050611974565b8381111561199e576000848401525b50505050565b600060028204905060018216806119bc57607f821691505b602082108114156119d0576119cf611a05565b5b50919050565b7f4e487b7100000000000000000000000000000000000000000000000000000000600052601160045260246000fd5b7f4e487b7100000000000000000000000000000000000000000000000000000000600052602260045260246000fd5b6000601f19601f8301169050919050565b7f45524332303a207472616e7366657220746f20746865207a65726f206164647260008201527f6573730000000000000000000000000000000000000000000000000000000000602082015250565b7f45524332303a206275726e20616d6f756e7420657863656564732062616c616e60008201527f6365000000000000000000000000000000000000000000000000000000000000602082015250565b7f4f776e61626c653a206e6577206f776e657220697320746865207a65726f206160008201527f6464726573730000000000000000000000000000000000000000000000000000602082015250565b7f45524332303a20617070726f766520746f20746865207a65726f20616464726560008201527f7373000000000000000000000000000000000000000000000000000000000000602082015250565b7f45524332303a20696e73756666696369656e7420616c6c6f77616e6365000000600082015250565b7f45524332303a207472616e7366657220616d6f756e742065786365656473206260008201527f616c616e63650000000000000000000000000000000000000000000000000000602082015250565b7f4f776e61626c653a2063616c6c6572206973206e6f7420746865206f776e6572600082015250565b7f45524332303a206275726e2066726f6d20746865207a65726f2061646472657360008201527f7300000000000000000000000000000000000000000000000000000000000000602082015250565b7f45524332303a207472616e736665722066726f6d20746865207a65726f20616460008201527f6472657373000000000000000000000000000000000000000000000000000000602082015250565b7f45524332303a20617070726f76652066726f6d20746865207a65726f2061646460008201527f7265737300000000000000000000000000000000000000000000000000000000602082015250565b7f45524332303a2064656372656173656420616c6c6f77616e63652062656c6f7760008201527f207a65726f000000000000000000000000000000000000000000000000000000602082015250565b7f45524332303a206d696e7420746f20746865207a65726f206164647265737300600082015250565b611d908161191c565b8114611d9b57600080fd5b50565b611da78161195a565b8114611db257600080fd5b5056fea264697066735822122066545f6a94dc0f3aa765ff1737b4c22a901a067587ce851c85b42b1e5166175d64736f6c63430008040033a26469706673582212208efdf7794a6bb98c5de0bb8e5100552aac86a8f21a6e025beffabc2c609a05cb64736f6c63430008040033",
  "linkReferences": {},
  "deployedLinkReferences": {}
}