{
  "_format": "hh-sol-artifact-1",
  "contractName": "ERC20Bridge",
  "sourceName": "contracts/Bridge.sol",
  "abi": [
    {
      "anonymous": false,
      "inputs": [
        {
          "indexed": false,
          "internalType": "bytes32",
          "name": "bridgeLock",
          "type": "bytes32"
        }
      ],
      "name": "CoinBridged",
      "type": "event"
    },
    {
      "anonymous": false,
      "inputs": [
        {
          "indexed": false,
          "internalType": "address",
          "name": "newContract",
          "type": "address"
        }
      ],
      "name": "CoinContractAdded",
      "type": "event"
    },
    {
      "anonymous": false,
      "inputs": [
        {
          "indexed": false,
          "internalType": "bytes32",
          "name": "bridgeLock",
          "type": "bytes32"
        }
      ],
      "name": "CoinRefundLocked",
      "type": "event"
    },
    {
      "anonymous": false,
      "inputs": [
        {
          "indexed": false,
          "internalType": "bytes32",
          "name": "bridgeLock",
          "type": "bytes32"
        },
        {
          "indexed": false,
          "internalType": "bytes32",
          "name": "preimage",
          "type": "bytes32"
        }
      ],
      "name": "CoinRefunded",
      "type": "event"
    },
    {
      "anonymous": false,
      "inputs": [
        {
          "indexed": false,
          "internalType": "bytes32",
          "name": "bridgeLock",
          "type": "bytes32"
        }
      ],
      "name": "CoinReleaseLocked",
      "type": "event"
    },
    {
      "anonymous": false,
      "inputs": [
        {
          "indexed": false,
          "internalType": "bytes32",
          "name": "bridgeLock",
          "type": "bytes32"
        },
        {
          "indexed": false,
          "internalType": "bytes32",
          "name": "preimage",
          "type": "bytes32"
        }
      ],
      "name": "CoinReleased",
      "type": "event"
    },
    {
      "anonymous": false,
      "inputs": [
        {
          "indexed": false,
          "internalType": "address",
          "name": "destContract",
          "type": "address"
        },
        {
          "indexed": false,
          "internalType": "address",
          "name": "sourceContract",
          "type": "address"
        }
      ],
      "name": "DestContractDeployed",
      "type": "event"
    },
    {
      "anonymous": false,
      "inputs": [
        {
          "indexed": true,
          "internalType": "address",
          "name": "previousOwner",
          "type": "address"
        },
        {
          "indexed": true,
          "internalType": "address",
          "name": "newOwner",
          "type": "address"
        }
      ],
      "name": "OwnershipTransferred",
      "type": "event"
    },
    {
      "inputs": [
        {
          "internalType": "address",
          "name": "_contract",
          "type": "address"
        }
      ],
      "name": "addCoin",
      "outputs": [],
      "stateMutability": "nonpayable",
      "type": "function"
    },
    {
      "inputs": [
        {
          "internalType": "bytes32",
          "name": "_bridgeLockId",
          "type": "bytes32"
        },
        {
          "internalType": "address",
          "name": "_sourceErc20Contract",
          "type": "address"
        },
        {
          "internalType": "uint256",
          "name": "_amount",
          "type": "uint256"
        },
        {
          "internalType": "bytes32",
          "name": "_hashlock",
          "type": "bytes32"
        }
      ],
      "name": "addRelease",
      "outputs": [],
      "stateMutability": "nonpayable",
      "type": "function"
    },
    {
      "inputs": [
        {
          "internalType": "address",
          "name": "_erc20Contract",
          "type": "address"
        },
        {
          "internalType": "uint256",
          "name": "_amount",
          "type": "uint256"
        },
        {
          "internalType": "bytes32",
          "name": "_hashlock",
          "type": "bytes32"
        }
      ],
      "name": "bridgeCoin",
      "outputs": [],
      "stateMutability": "nonpayable",
      "type": "function"
    },
    {
      "inputs": [
        {
          "internalType": "address",
          "name": "_sourceErc20Contract",
          "type": "address"
        },
        {
          "internalType": "string",
          "name": "_coinName",
          "type": "string"
        },
        {
          "internalType": "string",
          "name": "_coinDenom",
          "type": "string"
        }
      ],
      "name": "deployDestErc20",
      "outputs": [],
      "stateMutability": "nonpayable",
      "type": "function"
    },
    {
      "inputs": [
        {
          "internalType": "address",
          "name": "srcCoin",
          "type": "address"
        }
      ],
      "name": "destinationExists",
      "outputs": [
        {
          "internalType": "bool",
          "name": "",
          "type": "bool"
        }
      ],
      "stateMutability": "view",
      "type": "function"
    },
    {
      "inputs": [],
      "name": "getAvailableCoins",
      "outputs": [
        {
          "internalType": "address[]",
          "name": "",
          "type": "address[]"
        }
      ],
      "stateMutability": "view",
      "type": "function"
    },
    {
      "inputs": [
        {
          "internalType": "bytes32",
          "name": "_bridgeLockId",
          "type": "bytes32"
        }
      ],
      "name": "getBridgeLock",
      "outputs": [
        {
          "internalType": "address",
          "name": "erc20Contract",
          "type": "address"
        },
        {
          "internalType": "address",
          "name": "sender",
          "type": "address"
        },
        {
          "internalType": "uint256",
          "name": "amount",
          "type": "uint256"
        },
        {
          "internalType": "bytes32",
          "name": "hashlock",
          "type": "bytes32"
        },
        {
          "internalType": "bool",
          "name": "withdrawn",
          "type": "bool"
        },
        {
          "internalType": "bool",
          "name": "refunded",
          "type": "bool"
        },
        {
          "internalType": "bytes32",
          "name": "preimage",
          "type": "bytes32"
        }
      ],
      "stateMutability": "view",
      "type": "function"
    },
    {
      "inputs": [
        {
          "internalType": "bytes32",
          "name": "_bridgeLockId",
          "type": "bytes32"
        },
        {
          "internalType": "bytes32",
          "name": "_preimage",
          "type": "bytes32"
        }
      ],
      "name": "lockBridge",
      "outputs": [],
      "stateMutability": "nonpayable",
      "type": "function"
    },
    {
      "inputs": [
        {
          "internalType": "bytes32",
          "name": "_bridgeLockId",
          "type": "bytes32"
        },
        {
          "internalType": "bytes32",
          "name": "_preimage",
          "type": "bytes32"
        }
      ],
      "name": "lockRelease",
      "outputs": [],
      "stateMutability": "nonpayable",
      "type": "function"
    },
    {
      "inputs": [],
      "name": "owner",
      "outputs": [
        {
          "internalType": "address",
          "name": "",
          "type": "address"
        }
      ],
      "stateMutability": "view",
      "type": "function"
    },
    {
      "inputs": [
        {
          "internalType": "bytes32",
          "name": "_bridgeLockId",
          "type": "bytes32"
        },
        {
          "internalType": "bytes32",
          "name": "_preimage",
          "type": "bytes32"
        }
      ],
      "name": "refund",
      "outputs": [],
      "stateMutability": "nonpayable",
      "type": "function"
    },
    {
      "inputs": [
        {
          "internalType": "address",
          "name": "_receiver",
          "type": "address"
        },
        {
          "internalType": "bytes32",
          "name": "_bridgeLockId",
          "type": "bytes32"
        },
        {
          "internalType": "bytes32",
          "name": "_preimage",
          "type": "bytes32"
        }
      ],
      "name": "releaseCoin",
      "outputs": [],
      "stateMutability": "nonpayable",
      "type": "function"
    },
    {
      "inputs": [],
      "name": "renounceOwnership",
      "outputs": [],
      "stateMutability": "nonpayable",
      "type": "function"
    },
    {
      "inputs": [
        {
          "internalType": "address",
          "name": "newOwner",
          "type": "address"
        }
      ],
      "name": "transferOwnership",
      "outputs": [],
      "stateMutability": "nonpayable",
      "type": "function"
    }
  ],
  "bytecode": "0x60806040523480156200001157600080fd5b5062000032620000266200003860201b60201c565b6200004060201b60201c565b62000104565b600033905090565b60008060009054906101000a900473ffffffffffffffffffffffffffffffffffffffff169050816000806101000a81548173ffffffffffffffffffffffffffffffffffffffff021916908373ffffffffffffffffffffffffffffffffffffffff1602179055508173ffffffffffffffffffffffffffffffffffffffff168173ffffffffffffffffffffffffffffffffffffffff167f8be0079c531659141344cd1fd0a4f28419497f9722a3daafe3b4186f6b6457e060405160405180910390a35050565b615d5880620001146000396000f3fe60806040523480156200001157600080fd5b5060043610620001005760003560e01c80638da5cb5b1162000099578063ee1c2682116200006f578063ee1c26821462000265578063f2fde38b1462000285578063fd6fe0bb14620002a5578063ff40309f14620002c55762000100565b80638da5cb5b1462000203578063a69264771462000225578063e4683a7914620002455762000100565b806348cd042111620000db57806348cd04211462000165578063715018a614620001a1578063846b91e314620001ad5780638bc56e0514620001e35762000100565b806303fcd580146200010557806316da863214620001255780633572259e1462000145575b600080fd5b6200012360048036038101906200011d919062002903565b620002e7565b005b6200014360048036038101906200013d9190620027f9565b62000a24565b005b6200016360048036038101906200015d9190620029dd565b62000bd6565b005b6200018360048036038101906200017d919062002985565b62000e5d565b60405162000198979695949392919062003050565b60405180910390f35b620001ab62000f59565b005b620001cb6004803603810190620001c59190620027f9565b62000fea565b604051620001da91906200311e565b60405180910390f35b620002016004803603810190620001fb919062002a49565b62001082565b005b6200020d62001426565b6040516200021c919062002fc9565b60405180910390f35b6200024360048036038101906200023d91906200287b565b6200144f565b005b6200026360048036038101906200025d919062002a49565b62001782565b005b6200028360048036038101906200027d919062002825565b62001b85565b005b620002a360048036038101906200029d9190620027f9565b6200200d565b005b620002c36004803603810190620002bd919062002a49565b62002111565b005b620002cf620024b5565b604051620002de9190620030fa565b60405180910390f35b600082116200032d576040517f08c379a0000000000000000000000000000000000000000000000000000000008152600401620003249062003402565b60405180910390fd5b600073ffffffffffffffffffffffffffffffffffffffff16600560008573ffffffffffffffffffffffffffffffffffffffff1673ffffffffffffffffffffffffffffffffffffffff16815260200190815260200160002060009054906101000a900473ffffffffffffffffffffffffffffffffffffffff1673ffffffffffffffffffffffffffffffffffffffff16148015620004545750600073ffffffffffffffffffffffffffffffffffffffff16600660008573ffffffffffffffffffffffffffffffffffffffff1673ffffffffffffffffffffffffffffffffffffffff16815260200190815260200160002060009054906101000a900473ffffffffffffffffffffffffffffffffffffffff1673ffffffffffffffffffffffffffffffffffffffff16145b62000496576040517f08c379a00000000000000000000000000000000000000000000000000000000081526004016200048d9062003314565b60405180910390fd5b818373ffffffffffffffffffffffffffffffffffffffff1663dd62ed3e33306040518363ffffffff1660e01b8152600401620004d492919062002fe6565b60206040518083038186803b158015620004ed57600080fd5b505afa15801562000502573d6000803e3d6000fd5b505050506040513d601f19601f8201168201806040525081019062000528919062002a8a565b10156200056c576040517f08c379a0000000000000000000000000000000000000000000000000000000008152600401620005639062003336565b60405180910390fd5b600060023385858560405160200162000589949392919062002f3d565b604051602081830303815290604052604051620005a7919062002fb0565b602060405180830381855afa158015620005c5573d6000803e3d6000fd5b5050506040513d601f19601f82011682018060405250810190620005ea9190620029b1565b9050620005f78162002545565b156200063a576040517f08c379a000000000000000000000000000000000000000000000000000000000815260040162000631906200339c565b60405180910390fd5b600073ffffffffffffffffffffffffffffffffffffffff16600660008673ffffffffffffffffffffffffffffffffffffffff1673ffffffffffffffffffffffffffffffffffffffff16815260200190815260200160002060009054906101000a900473ffffffffffffffffffffffffffffffffffffffff1673ffffffffffffffffffffffffffffffffffffffff16146200087b578373ffffffffffffffffffffffffffffffffffffffff16639dc29fac33856040518363ffffffff1660e01b81526004016200070b929190620030cd565b602060405180830381600087803b1580156200072657600080fd5b505af11580156200073b573d6000803e3d6000fd5b505050506040513d601f19601f8201168201806040525081019062000761919062002959565b620007a3576040517f08c379a00000000000000000000000000000000000000000000000000000000081526004016200079a90620031c0565b60405180910390fd5b8373ffffffffffffffffffffffffffffffffffffffff166323b872dd3330866040518463ffffffff1660e01b8152600401620007e29392919062003013565b602060405180830381600087803b158015620007fd57600080fd5b505af115801562000812573d6000803e3d6000fd5b505050506040513d601f19601f8201168201806040525081019062000838919062002959565b6200087a576040517f08c379a00000000000000000000000000000000000000000000000000000000081526004016200087190620033be565b60405180910390fd5b5b6040518060e001604052808573ffffffffffffffffffffffffffffffffffffffff1681526020013373ffffffffffffffffffffffffffffffffffffffff1681526020018481526020018381526020016000151581526020016000151581526020016000801b8152506003600083815260200190815260200160002060008201518160000160006101000a81548173ffffffffffffffffffffffffffffffffffffffff021916908373ffffffffffffffffffffffffffffffffffffffff16021790555060208201518160010160006101000a81548173ffffffffffffffffffffffffffffffffffffffff021916908373ffffffffffffffffffffffffffffffffffffffff160217905550604082015181600201556060820151816003015560808201518160040160006101000a81548160ff02191690831515021790555060a08201518160040160016101000a81548160ff02191690831515021790555060c082015181600501559050507fb2f309809a4fc51a68e04ac2f5328b8d78a3bb74f6616e8bc5958b75e215d5608160405162000a1691906200313b565b60405180910390a150505050565b62000a2e620025b4565b73ffffffffffffffffffffffffffffffffffffffff1662000a4e62001426565b73ffffffffffffffffffffffffffffffffffffffff161462000aa7576040517f08c379a000000000000000000000000000000000000000000000000000000000815260040162000a9e9062003358565b60405180910390fd5b600260008273ffffffffffffffffffffffffffffffffffffffff1673ffffffffffffffffffffffffffffffffffffffff16815260200190815260200160002060009054906101000a900460ff161562000b37576040517f08c379a000000000000000000000000000000000000000000000000000000000815260040162000b2e906200337a565b60405180910390fd5b6001819080600181540180825580915050600190039060005260206000200160009091909190916101000a81548173ffffffffffffffffffffffffffffffffffffffff021916908373ffffffffffffffffffffffffffffffffffffffff1602179055507f06452172ed60e129f27dd6ecdf5177efe9a2ca42e02008958ffbcbf6a96858038160405162000bcb919062002fc9565b60405180910390a150565b62000be0620025b4565b73ffffffffffffffffffffffffffffffffffffffff1662000c0062001426565b73ffffffffffffffffffffffffffffffffffffffff161462000c59576040517f08c379a000000000000000000000000000000000000000000000000000000000815260040162000c509062003358565b60405180910390fd5b62000c6484620025bc565b1562000ca7576040517f08c379a000000000000000000000000000000000000000000000000000000000815260040162000c9e906200328c565b60405180910390fd5b600073ffffffffffffffffffffffffffffffffffffffff16600560008573ffffffffffffffffffffffffffffffffffffffff1673ffffffffffffffffffffffffffffffffffffffff16815260200190815260200160002060009054906101000a900473ffffffffffffffffffffffffffffffffffffffff1673ffffffffffffffffffffffffffffffffffffffff16141562000d79576040517f08c379a000000000000000000000000000000000000000000000000000000000815260040162000d7090620032d0565b60405180910390fd5b6040518060a001604052808473ffffffffffffffffffffffffffffffffffffffff1681526020018381526020018281526020016000801b8152602001600015158152506004600086815260200190815260200160002060008201518160000160006101000a81548173ffffffffffffffffffffffffffffffffffffffff021916908373ffffffffffffffffffffffffffffffffffffffff16021790555060208201518160010155604082015181600201556060820151816003015560808201518160040160006101000a81548160ff02191690831515021790555090505050505050565b600080600080600080600080151562000e768962002545565b1515141562000eaa5760008060008060008060008360001b93508060001b9050965096509650965096509650965062000f4e565b6000600360008a815260200190815260200160002090508060000160009054906101000a900473ffffffffffffffffffffffffffffffffffffffff168160010160009054906101000a900473ffffffffffffffffffffffffffffffffffffffff16826002015483600301548460040160009054906101000a900460ff168560040160019054906101000a900460ff1686600501549750975097509750975097509750505b919395979092949650565b62000f63620025b4565b73ffffffffffffffffffffffffffffffffffffffff1662000f8362001426565b73ffffffffffffffffffffffffffffffffffffffff161462000fdc576040517f08c379a000000000000000000000000000000000000000000000000000000000815260040162000fd39062003358565b60405180910390fd5b62000fe860006200262b565b565b60008073ffffffffffffffffffffffffffffffffffffffff16600560008473ffffffffffffffffffffffffffffffffffffffff1673ffffffffffffffffffffffffffffffffffffffff16815260200190815260200160002060009054906101000a900473ffffffffffffffffffffffffffffffffffffffff1673ffffffffffffffffffffffffffffffffffffffff1614159050919050565b6200108c620025b4565b73ffffffffffffffffffffffffffffffffffffffff16620010ac62001426565b73ffffffffffffffffffffffffffffffffffffffff161462001105576040517f08c379a0000000000000000000000000000000000000000000000000000000008152600401620010fc9062003358565b60405180910390fd5b81620011118162002545565b62001153576040517f08c379a00000000000000000000000000000000000000000000000000000000081526004016200114a906200326a565b60405180910390fd5b823373ffffffffffffffffffffffffffffffffffffffff166003600083815260200190815260200160002060010160009054906101000a900473ffffffffffffffffffffffffffffffffffffffff1673ffffffffffffffffffffffffffffffffffffffff1614620011fb576040517f08c379a0000000000000000000000000000000000000000000000000000000008152600401620011f290620033e0565b60405180910390fd5b600015156003600083815260200190815260200160002060040160019054906101000a900460ff1615151462001268576040517f08c379a00000000000000000000000000000000000000000000000000000000081526004016200125f90620032f2565b60405180910390fd5b600015156003600083815260200190815260200160002060040160009054906101000a900460ff16151514620012d5576040517f08c379a0000000000000000000000000000000000000000000000000000000008152600401620012cc9062003248565b60405180910390fd5b8383600281604051602001620012ec919062002f93565b6040516020818303038152906040526040516200130a919062002fb0565b602060405180830381855afa15801562001328573d6000803e3d6000fd5b5050506040513d601f19601f820116820180604052508101906200134d9190620029b1565b600360008481526020019081526020016000206003015414620013a7576040517f08c379a00000000000000000000000000000000000000000000000000000000081526004016200139e9062003424565b60405180910390fd5b600060036000888152602001908152602001600020905060018160040160016101000a81548160ff0219169083151502179055508581600501819055507f1f4f67c737eeba13476cae0a3f4c79312ea1ba6d1b58cb0b4f10c87354a461c7876040516200141591906200313b565b60405180910390a150505050505050565b60008060009054906101000a900473ffffffffffffffffffffffffffffffffffffffff16905090565b62001459620025b4565b73ffffffffffffffffffffffffffffffffffffffff166200147962001426565b73ffffffffffffffffffffffffffffffffffffffff1614620014d2576040517f08c379a0000000000000000000000000000000000000000000000000000000008152600401620014c99062003358565b60405180910390fd5b600073ffffffffffffffffffffffffffffffffffffffff16600560008573ffffffffffffffffffffffffffffffffffffffff1673ffffffffffffffffffffffffffffffffffffffff16815260200190815260200160002060009054906101000a900473ffffffffffffffffffffffffffffffffffffffff1673ffffffffffffffffffffffffffffffffffffffff1614620015a3576040517f08c379a00000000000000000000000000000000000000000000000000000000081526004016200159a9062003226565b60405180910390fd5b60008282604051620015b590620026ef565b620015c292919062003185565b604051809103906000f080158015620015df573d6000803e3d6000fd5b50905080600560008673ffffffffffffffffffffffffffffffffffffffff1673ffffffffffffffffffffffffffffffffffffffff16815260200190815260200160002060006101000a81548173ffffffffffffffffffffffffffffffffffffffff021916908373ffffffffffffffffffffffffffffffffffffffff16021790555083600660008373ffffffffffffffffffffffffffffffffffffffff1673ffffffffffffffffffffffffffffffffffffffff16815260200190815260200160002060006101000a81548173ffffffffffffffffffffffffffffffffffffffff021916908373ffffffffffffffffffffffffffffffffffffffff1602179055506001819080600181540180825580915050600190039060005260206000200160009091909190916101000a81548173ffffffffffffffffffffffffffffffffffffffff021916908373ffffffffffffffffffffffffffffffffffffffff1602179055507f646af9df90ec3a942fc85e6baf31e0d41a2786ba1afbd1e8e3c1ae5141b2c14181856040516200177492919062002fe6565b60405180910390a150505050565b816200178e8162002545565b620017d0576040517f08c379a0000000000000000000000000000000000000000000000000000000008152600401620017c7906200326a565b60405180910390fd5b823373ffffffffffffffffffffffffffffffffffffffff166003600083815260200190815260200160002060010160009054906101000a900473ffffffffffffffffffffffffffffffffffffffff1673ffffffffffffffffffffffffffffffffffffffff161462001878576040517f08c379a00000000000000000000000000000000000000000000000000000000081526004016200186f90620033e0565b60405180910390fd5b600015156003600083815260200190815260200160002060040160019054906101000a900460ff16151514620018e5576040517f08c379a0000000000000000000000000000000000000000000000000000000008152600401620018dc90620032f2565b60405180910390fd5b600015156003600083815260200190815260200160002060040160009054906101000a900460ff1615151462001952576040517f08c379a0000000000000000000000000000000000000000000000000000000008152600401620019499062003248565b60405180910390fd5b838360028160405160200162001969919062002f93565b60405160208183030381529060405260405162001987919062002fb0565b602060405180830381855afa158015620019a5573d6000803e3d6000fd5b5050506040513d601f19601f82011682018060405250810190620019ca9190620029b1565b60036000848152602001908152602001600020600301541462001a24576040517f08c379a000000000000000000000000000000000000000000000000000000000815260040162001a1b9062003424565b60405180910390fd5b600060036000888152602001908152602001600020905060018160040160016101000a81548160ff0219169083151502179055508581600501819055508060000160009054906101000a900473ffffffffffffffffffffffffffffffffffffffff1673ffffffffffffffffffffffffffffffffffffffff1663a9059cbb8260010160009054906101000a900473ffffffffffffffffffffffffffffffffffffffff1683600201546040518363ffffffff1660e01b815260040162001aea929190620030cd565b602060405180830381600087803b15801562001b0557600080fd5b505af115801562001b1a573d6000803e3d6000fd5b505050506040513d601f19601f8201168201806040525081019062001b40919062002959565b507f72bd658852abad871726c183c8b61abc4c3db69311f3c7c650cc775d129aee4f878760405162001b7492919062003158565b60405180910390a150505050505050565b8162001b9181620025bc565b62001bd3576040517f08c379a000000000000000000000000000000000000000000000000000000000815260040162001bca90620032ae565b60405180910390fd5b828260028160405160200162001bea919062002f93565b60405160208183030381529060405260405162001c08919062002fb0565b602060405180830381855afa15801562001c26573d6000803e3d6000fd5b5050506040513d601f19601f8201168201806040525081019062001c4b9190620029b1565b60046000848152602001908152602001600020600201541462001ca5576040517f08c379a000000000000000000000000000000000000000000000000000000000815260040162001c9c9062003424565b60405180910390fd5b84600015156004600083815260200190815260200160002060040160009054906101000a900460ff1615151462001d13576040517f08c379a000000000000000000000000000000000000000000000000000000000815260040162001d0a90620031e2565b60405180910390fd5b600060046000888152602001908152602001600020905085816003018190555060018160040160006101000a81548160ff0219169083151502179055506000600560008360000160009054906101000a900473ffffffffffffffffffffffffffffffffffffffff1673ffffffffffffffffffffffffffffffffffffffff1673ffffffffffffffffffffffffffffffffffffffff16815260200190815260200160002060009054906101000a900473ffffffffffffffffffffffffffffffffffffffff169050600073ffffffffffffffffffffffffffffffffffffffff168173ffffffffffffffffffffffffffffffffffffffff161462001eab578073ffffffffffffffffffffffffffffffffffffffff166340c10f198a84600101546040518363ffffffff1660e01b815260040162001e4e929190620030cd565b602060405180830381600087803b15801562001e6957600080fd5b505af115801562001e7e573d6000803e3d6000fd5b505050506040513d601f19601f8201168201806040525081019062001ea4919062002959565b5062001fc7565b600660008360000160009054906101000a900473ffffffffffffffffffffffffffffffffffffffff1673ffffffffffffffffffffffffffffffffffffffff1673ffffffffffffffffffffffffffffffffffffffff16815260200190815260200160002060009054906101000a900473ffffffffffffffffffffffffffffffffffffffff1673ffffffffffffffffffffffffffffffffffffffff1663a9059cbb8a84600101546040518363ffffffff1660e01b815260040162001f6f929190620030cd565b602060405180830381600087803b15801562001f8a57600080fd5b505af115801562001f9f573d6000803e3d6000fd5b505050506040513d601f19601f8201168201806040525081019062001fc5919062002959565b505b7fae13508b7012afb645b5a3fc272161302ae08fb5ed9cf02090c6c06bdc515ef3888860405162001ffa92919062003158565b60405180910390a1505050505050505050565b62002017620025b4565b73ffffffffffffffffffffffffffffffffffffffff166200203762001426565b73ffffffffffffffffffffffffffffffffffffffff161462002090576040517f08c379a0000000000000000000000000000000000000000000000000000000008152600401620020879062003358565b60405180910390fd5b600073ffffffffffffffffffffffffffffffffffffffff168173ffffffffffffffffffffffffffffffffffffffff16141562002103576040517f08c379a0000000000000000000000000000000000000000000000000000000008152600401620020fa9062003204565b60405180910390fd5b6200210e816200262b565b50565b6200211b620025b4565b73ffffffffffffffffffffffffffffffffffffffff166200213b62001426565b73ffffffffffffffffffffffffffffffffffffffff161462002194576040517f08c379a00000000000000000000000000000000000000000000000000000000081526004016200218b9062003358565b60405180910390fd5b81620021a08162002545565b620021e2576040517f08c379a0000000000000000000000000000000000000000000000000000000008152600401620021d9906200326a565b60405180910390fd5b823373ffffffffffffffffffffffffffffffffffffffff166003600083815260200190815260200160002060010160009054906101000a900473ffffffffffffffffffffffffffffffffffffffff1673ffffffffffffffffffffffffffffffffffffffff16146200228a576040517f08c379a00000000000000000000000000000000000000000000000000000000081526004016200228190620033e0565b60405180910390fd5b600015156003600083815260200190815260200160002060040160019054906101000a900460ff16151514620022f7576040517f08c379a0000000000000000000000000000000000000000000000000000000008152600401620022ee90620032f2565b60405180910390fd5b600015156003600083815260200190815260200160002060040160009054906101000a900460ff1615151462002364576040517f08c379a00000000000000000000000000000000000000000000000000000000081526004016200235b9062003248565b60405180910390fd5b83836002816040516020016200237b919062002f93565b60405160208183030381529060405260405162002399919062002fb0565b602060405180830381855afa158015620023b7573d6000803e3d6000fd5b5050506040513d601f19601f82011682018060405250810190620023dc9190620029b1565b60046000848152602001908152602001600020600201541462002436576040517f08c379a00000000000000000000000000000000000000000000000000000000081526004016200242d9062003424565b60405180910390fd5b600060046000888152602001908152602001600020905060018160040160006101000a81548160ff0219169083151502179055508581600301819055507f8c150f45ba70246a3cddb80560e7d1ae0d5d89e0773dd924c8cee0eac5cb66e487604051620024a491906200313b565b60405180910390a150505050505050565b606060018054806020026020016040519081016040528092919081815260200182805480156200253b57602002820191906000526020600020905b8160009054906101000a900473ffffffffffffffffffffffffffffffffffffffff1673ffffffffffffffffffffffffffffffffffffffff1681526020019060010190808311620024f0575b5050505050905090565b60008073ffffffffffffffffffffffffffffffffffffffff166003600084815260200190815260200160002060010160009054906101000a900473ffffffffffffffffffffffffffffffffffffffff1673ffffffffffffffffffffffffffffffffffffffff1614159050919050565b600033905090565b60008073ffffffffffffffffffffffffffffffffffffffff166004600084815260200190815260200160002060000160009054906101000a900473ffffffffffffffffffffffffffffffffffffffff1673ffffffffffffffffffffffffffffffffffffffff1614159050919050565b60008060009054906101000a900473ffffffffffffffffffffffffffffffffffffffff169050816000806101000a81548173ffffffffffffffffffffffffffffffffffffffff021916908373ffffffffffffffffffffffffffffffffffffffff1602179055508173ffffffffffffffffffffffffffffffffffffffff168173ffffffffffffffffffffffffffffffffffffffff167f8be0079c531659141344cd1fd0a4f28419497f9722a3daafe3b4186f6b6457e060405160405180910390a35050565b6122638062003ac083390190565b6000620027146200270e846200346f565b62003446565b9050828152602081018484840111156200272d57600080fd5b6200273a84828562003564565b509392505050565b600081359050620027538162003a57565b92915050565b6000815190506200276a8162003a71565b92915050565b600081359050620027818162003a8b565b92915050565b600081519050620027988162003a8b565b92915050565b600082601f830112620027b057600080fd5b8135620027c2848260208601620026fd565b91505092915050565b600081359050620027dc8162003aa5565b92915050565b600081519050620027f38162003aa5565b92915050565b6000602082840312156200280c57600080fd5b60006200281c8482850162002742565b91505092915050565b6000806000606084860312156200283b57600080fd5b60006200284b8682870162002742565b93505060206200285e8682870162002770565b9250506040620028718682870162002770565b9150509250925092565b6000806000606084860312156200289157600080fd5b6000620028a18682870162002742565b935050602084013567ffffffffffffffff811115620028bf57600080fd5b620028cd868287016200279e565b925050604084013567ffffffffffffffff811115620028eb57600080fd5b620028f9868287016200279e565b9150509250925092565b6000806000606084860312156200291957600080fd5b6000620029298682870162002742565b93505060206200293c86828701620027cb565b92505060406200294f8682870162002770565b9150509250925092565b6000602082840312156200296c57600080fd5b60006200297c8482850162002759565b91505092915050565b6000602082840312156200299857600080fd5b6000620029a88482850162002770565b91505092915050565b600060208284031215620029c457600080fd5b6000620029d48482850162002787565b91505092915050565b60008060008060808587031215620029f457600080fd5b600062002a048782880162002770565b945050602062002a178782880162002742565b935050604062002a2a87828801620027cb565b925050606062002a3d8782880162002770565b91505092959194509250565b6000806040838503121562002a5d57600080fd5b600062002a6d8582860162002770565b925050602062002a808582860162002770565b9150509250929050565b60006020828403121562002a9d57600080fd5b600062002aad84828501620027e2565b91505092915050565b600062002ac4838362002ad0565b60208301905092915050565b62002adb8162003510565b82525050565b62002aec8162003510565b82525050565b62002b0762002b018262003510565b620035df565b82525050565b600062002b1a82620034b5565b62002b268185620034e3565b935062002b3383620034a5565b8060005b8381101562002b6a57815162002b4e888262002ab6565b975062002b5b83620034d6565b92505060018101905062002b37565b5085935050505092915050565b62002b828162003524565b82525050565b62002b938162003530565b82525050565b62002bae62002ba88262003530565b620035f3565b82525050565b600062002bc182620034c0565b62002bcd8185620034f4565b935062002bdf81856020860162003573565b80840191505092915050565b600062002bf882620034cb565b62002c048185620034ff565b935062002c1681856020860162003573565b62002c21816200364a565b840191505092915050565b600062002c3b600b83620034ff565b915062002c488262003668565b602082019050919050565b600062002c62601d83620034ff565b915062002c6f8262003691565b602082019050919050565b600062002c89602683620034ff565b915062002c9682620036ba565b604082019050919050565b600062002cb0602783620034ff565b915062002cbd8262003709565b604082019050919050565b600062002cd7601d83620034ff565b915062002ce48262003758565b602082019050919050565b600062002cfe601f83620034ff565b915062002d0b8262003781565b602082019050919050565b600062002d25601683620034ff565b915062002d3282620037aa565b602082019050919050565b600062002d4c602c83620034ff565b915062002d5982620037d3565b604082019050919050565b600062002d73602f83620034ff565b915062002d808262003822565b604082019050919050565b600062002d9a601c83620034ff565b915062002da78262003871565b602082019050919050565b600062002dc1601683620034ff565b915062002dce826200389a565b602082019050919050565b600062002de8602183620034ff565b915062002df582620038c3565b604082019050919050565b600062002e0f602083620034ff565b915062002e1c8262003912565b602082019050919050565b600062002e36601483620034ff565b915062002e43826200393b565b602082019050919050565b600062002e5d601583620034ff565b915062002e6a8262003964565b602082019050919050565b600062002e84602283620034ff565b915062002e91826200398d565b604082019050919050565b600062002eab601683620034ff565b915062002eb882620039dc565b602082019050919050565b600062002ed2601883620034ff565b915062002edf8262003a05565b602082019050919050565b600062002ef9601c83620034ff565b915062002f068262003a2e565b602082019050919050565b62002f1c816200355a565b82525050565b62002f3762002f31826200355a565b62003611565b82525050565b600062002f4b828762002af2565b60148201915062002f5d828662002af2565b60148201915062002f6f828562002f22565b60208201915062002f81828462002b99565b60208201915081905095945050505050565b600062002fa1828462002b99565b60208201915081905092915050565b600062002fbe828462002bb4565b915081905092915050565b600060208201905062002fe0600083018462002ae1565b92915050565b600060408201905062002ffd600083018562002ae1565b6200300c602083018462002ae1565b9392505050565b60006060820190506200302a600083018662002ae1565b62003039602083018562002ae1565b62003048604083018462002f11565b949350505050565b600060e08201905062003067600083018a62002ae1565b62003076602083018962002ae1565b62003085604083018862002f11565b62003094606083018762002b88565b620030a3608083018662002b77565b620030b260a083018562002b77565b620030c160c083018462002b88565b98975050505050505050565b6000604082019050620030e4600083018562002ae1565b620030f3602083018462002f11565b9392505050565b6000602082019050818103600083015262003116818462002b0d565b905092915050565b600060208201905062003135600083018462002b77565b92915050565b600060208201905062003152600083018462002b88565b92915050565b60006040820190506200316f600083018562002b88565b6200317e602083018462002b88565b9392505050565b60006040820190508181036000830152620031a1818562002beb565b90508181036020830152620031b7818462002beb565b90509392505050565b60006020820190508181036000830152620031db8162002c2c565b9050919050565b60006020820190508181036000830152620031fd8162002c53565b9050919050565b600060208201905081810360008301526200321f8162002c7a565b9050919050565b60006020820190508181036000830152620032418162002ca1565b9050919050565b60006020820190508181036000830152620032638162002cc8565b9050919050565b60006020820190508181036000830152620032858162002cef565b9050919050565b60006020820190508181036000830152620032a78162002d16565b9050919050565b60006020820190508181036000830152620032c98162002d3d565b9050919050565b60006020820190508181036000830152620032eb8162002d64565b9050919050565b600060208201905081810360008301526200330d8162002d8b565b9050919050565b600060208201905081810360008301526200332f8162002db2565b9050919050565b60006020820190508181036000830152620033518162002dd9565b9050919050565b60006020820190508181036000830152620033738162002e00565b9050919050565b60006020820190508181036000830152620033958162002e27565b9050919050565b60006020820190508181036000830152620033b78162002e4e565b9050919050565b60006020820190508181036000830152620033d98162002e75565b9050919050565b60006020820190508181036000830152620033fb8162002e9c565b9050919050565b600060208201905081810360008301526200341d8162002ec3565b9050919050565b600060208201905081810360008301526200343f8162002eea565b9050919050565b60006200345262003465565b9050620034608282620035a9565b919050565b6000604051905090565b600067ffffffffffffffff8211156200348d576200348c6200361b565b5b62003498826200364a565b9050602081019050919050565b6000819050602082019050919050565b600081519050919050565b600081519050919050565b600081519050919050565b6000602082019050919050565b600082825260208201905092915050565b600081905092915050565b600082825260208201905092915050565b60006200351d826200353a565b9050919050565b60008115159050919050565b6000819050919050565b600073ffffffffffffffffffffffffffffffffffffffff82169050919050565b6000819050919050565b82818337600083830152505050565b60005b838110156200359357808201518184015260208101905062003576565b83811115620035a3576000848401525b50505050565b620035b4826200364a565b810181811067ffffffffffffffff82111715620035d657620035d56200361b565b5b80604052505050565b6000620035ec82620035fd565b9050919050565b6000819050919050565b60006200360a826200365b565b9050919050565b6000819050919050565b7f4e487b7100000000000000000000000000000000000000000000000000000000600052604160045260246000fd5b6000601f19601f8301169050919050565b60008160601b9050919050565b7f6275726e206661696c6564000000000000000000000000000000000000000000600082015250565b7f72656c65617361626c653a20616c72656164792077697468647261776e000000600082015250565b7f4f776e61626c653a206e6577206f776e657220697320746865207a65726f206160008201527f6464726573730000000000000000000000000000000000000000000000000000602082015250565b7f436f6e747261637420616c72656164792065786973747320666f72207468697360008201527f20736f7572636500000000000000000000000000000000000000000000000000602082015250565b7f726566756e6461626c653a20616c72656164792077697468647261776e000000600082015250565b7f62726964676554696d656c6f636b496420646f6573206e6f7420657869737400600082015250565b7f52656c6561736520616c72656164792065786973747300000000000000000000600082015250565b7f62726964676554696d656c6f636b496420646f6573206e6f742065786973742060008201527f617320612072656c656173650000000000000000000000000000000000000000602082015250565b7f44657374696e6174696f6e20636f6e7472616374206e6f74206465706c6f796560008201527f642e204465706c6f792066697273740000000000000000000000000000000000602082015250565b7f726566756e6461626c653a20616c726561647920726566756e64656400000000600082015250565b7f436f6e7472616374206e6f7420737570706f7274656400000000000000000000600082015250565b7f746f6b656e20616c6c6f77616e6365206d757374206265203e3d20616d6f756e60008201527f7400000000000000000000000000000000000000000000000000000000000000602082015250565b7f4f776e61626c653a2063616c6c6572206973206e6f7420746865206f776e6572600082015250565b7f436f6e747261637420616c726561647920736574000000000000000000000000600082015250565b7f42726964676520616c7265616479206578697374730000000000000000000000600082015250565b7f7472616e7366657246726f6d2073656e64657220746f2074686973206661696c60008201527f6564000000000000000000000000000000000000000000000000000000000000602082015250565b7f726566756e6461626c653a206e6f742073656e64657200000000000000000000600082015250565b7f746f6b656e20616d6f756e74206d757374206265203e20300000000000000000600082015250565b7f686173686c6f636b206861736820646f6573206e6f74206d6174636800000000600082015250565b62003a628162003510565b811462003a6e57600080fd5b50565b62003a7c8162003524565b811462003a8857600080fd5b50565b62003a968162003530565b811462003aa257600080fd5b50565b62003ab0816200355a565b811462003abc57600080fd5b5056fe60806040523480156200001157600080fd5b506040516200226338038062002263833981810160405281019062000037919062000285565b818181600390805190602001906200005192919062000163565b5080600490805190602001906200006a92919062000163565b5050506200008d620000816200009560201b60201c565b6200009d60201b60201c565b505062000468565b600033905090565b6000600560009054906101000a900473ffffffffffffffffffffffffffffffffffffffff16905081600560006101000a81548173ffffffffffffffffffffffffffffffffffffffff021916908373ffffffffffffffffffffffffffffffffffffffff1602179055508173ffffffffffffffffffffffffffffffffffffffff168173ffffffffffffffffffffffffffffffffffffffff167f8be0079c531659141344cd1fd0a4f28419497f9722a3daafe3b4186f6b6457e060405160405180910390a35050565b82805462000171906200038d565b90600052602060002090601f016020900481019282620001955760008555620001e1565b82601f10620001b057805160ff1916838001178555620001e1565b82800160010185558215620001e1579182015b82811115620001e0578251825591602001919060010190620001c3565b5b509050620001f09190620001f4565b5090565b5b808211156200020f576000816000905550600101620001f5565b5090565b60006200022a620002248462000321565b620002f8565b9050828152602081018484840111156200024357600080fd5b6200025084828562000357565b509392505050565b600082601f8301126200026a57600080fd5b81516200027c84826020860162000213565b91505092915050565b600080604083850312156200029957600080fd5b600083015167ffffffffffffffff811115620002b457600080fd5b620002c28582860162000258565b925050602083015167ffffffffffffffff811115620002e057600080fd5b620002ee8582860162000258565b9150509250929050565b60006200030462000317565b9050620003128282620003c3565b919050565b6000604051905090565b600067ffffffffffffffff8211156200033f576200033e62000428565b5b6200034a8262000457565b9050602081019050919050565b60005b83811015620003775780820151818401526020810190506200035a565b8381111562000387576000848401525b50505050565b60006002820490506001821680620003a657607f821691505b60208210811415620003bd57620003bc620003f9565b5b50919050565b620003ce8262000457565b810181811067ffffffffffffffff82111715620003f057620003ef62000428565b5b80604052505050565b7f4e487b7100000000000000000000000000000000000000000000000000000000600052602260045260246000fd5b7f4e487b7100000000000000000000000000000000000000000000000000000000600052604160045260246000fd5b6000601f19601f8301169050919050565b611deb80620004786000396000f3fe608060405234801561001057600080fd5b50600436106101005760003560e01c8063715018a611610097578063a457c2d711610066578063a457c2d7146102c5578063a9059cbb146102f5578063dd62ed3e14610325578063f2fde38b1461035557610100565b8063715018a61461024f5780638da5cb5b1461025957806395d89b41146102775780639dc29fac1461029557610100565b8063313ce567116100d3578063313ce567146101a157806339509351146101bf57806340c10f19146101ef57806370a082311461021f57610100565b806306fdde0314610105578063095ea7b31461012357806318160ddd1461015357806323b872dd14610171575b600080fd5b61010d610371565b60405161011a919061169e565b60405180910390f35b61013d60048036038101906101389190611413565b610403565b60405161014a9190611683565b60405180910390f35b61015b610426565b6040516101689190611840565b60405180910390f35b61018b600480360381019061018691906113c4565b610430565b6040516101989190611683565b60405180910390f35b6101a961045f565b6040516101b6919061185b565b60405180910390f35b6101d960048036038101906101d49190611413565b610468565b6040516101e69190611683565b60405180910390f35b61020960048036038101906102049190611413565b610512565b6040516102169190611683565b60405180910390f35b6102396004803603810190610234919061135f565b6105a4565b6040516102469190611840565b60405180910390f35b6102576105ec565b005b610261610674565b60405161026e9190611668565b60405180910390f35b61027f61069e565b60405161028c919061169e565b60405180910390f35b6102af60048036038101906102aa9190611413565b610730565b6040516102bc9190611683565b60405180910390f35b6102df60048036038101906102da9190611413565b6107c2565b6040516102ec9190611683565b60405180910390f35b61030f600480360381019061030a9190611413565b6108ac565b60405161031c9190611683565b60405180910390f35b61033f600480360381019061033a9190611388565b6108cf565b60405161034c9190611840565b60405180910390f35b61036f600480360381019061036a919061135f565b610956565b005b606060038054610380906119a4565b80601f01602080910402602001604051908101604052809291908181526020018280546103ac906119a4565b80156103f95780601f106103ce576101008083540402835291602001916103f9565b820191906000526020600020905b8154815290600101906020018083116103dc57829003601f168201915b5050505050905090565b60008061040e610a4e565b905061041b818585610a56565b600191505092915050565b6000600254905090565b60008061043b610a4e565b9050610448858285610c21565b610453858585610cad565b60019150509392505050565b60006012905090565b600080610473610a4e565b9050610507818585600160008673ffffffffffffffffffffffffffffffffffffffff1673ffffffffffffffffffffffffffffffffffffffff16815260200190815260200160002060008973ffffffffffffffffffffffffffffffffffffffff1673ffffffffffffffffffffffffffffffffffffffff168152602001908152602001600020546105029190611892565b610a56565b600191505092915050565b600061051c610a4e565b73ffffffffffffffffffffffffffffffffffffffff1661053a610674565b73ffffffffffffffffffffffffffffffffffffffff1614610590576040517f08c379a000000000000000000000000000000000000000000000000000000000815260040161058790611780565b60405180910390fd5b61059a8383610f2e565b6001905092915050565b60008060008373ffffffffffffffffffffffffffffffffffffffff1673ffffffffffffffffffffffffffffffffffffffff168152602001908152602001600020549050919050565b6105f4610a4e565b73ffffffffffffffffffffffffffffffffffffffff16610612610674565b73ffffffffffffffffffffffffffffffffffffffff1614610668576040517f08c379a000000000000000000000000000000000000000000000000000000000815260040161065f90611780565b60405180910390fd5b610672600061108e565b565b6000600560009054906101000a900473ffffffffffffffffffffffffffffffffffffffff16905090565b6060600480546106ad906119a4565b80601f01602080910402602001604051908101604052809291908181526020018280546106d9906119a4565b80156107265780601f106106fb57610100808354040283529160200191610726565b820191906000526020600020905b81548152906001019060200180831161070957829003601f168201915b5050505050905090565b600061073a610a4e565b73ffffffffffffffffffffffffffffffffffffffff16610758610674565b73ffffffffffffffffffffffffffffffffffffffff16146107ae576040517f08c379a00000000000000000000000000000000000000000000000000000000081526004016107a590611780565b60405180910390fd5b6107b88383611154565b6001905092915050565b6000806107cd610a4e565b90506000600160008373ffffffffffffffffffffffffffffffffffffffff1673ffffffffffffffffffffffffffffffffffffffff16815260200190815260200160002060008673ffffffffffffffffffffffffffffffffffffffff1673ffffffffffffffffffffffffffffffffffffffff16815260200190815260200160002054905083811015610893576040517f08c379a000000000000000000000000000000000000000000000000000000000815260040161088a90611800565b60405180910390fd5b6108a08286868403610a56565b60019250505092915050565b6000806108b7610a4e565b90506108c4818585610cad565b600191505092915050565b6000600160008473ffffffffffffffffffffffffffffffffffffffff1673ffffffffffffffffffffffffffffffffffffffff16815260200190815260200160002060008373ffffffffffffffffffffffffffffffffffffffff1673ffffffffffffffffffffffffffffffffffffffff16815260200190815260200160002054905092915050565b61095e610a4e565b73ffffffffffffffffffffffffffffffffffffffff1661097c610674565b73ffffffffffffffffffffffffffffffffffffffff16146109d2576040517f08c379a00000000000000000000000000000000000000000000000000000000081526004016109c990611780565b60405180910390fd5b600073ffffffffffffffffffffffffffffffffffffffff168173ffffffffffffffffffffffffffffffffffffffff161415610a42576040517f08c379a0000000000000000000000000000000000000000000000000000000008152600401610a3990611700565b60405180910390fd5b610a4b8161108e565b50565b600033905090565b600073ffffffffffffffffffffffffffffffffffffffff168373ffffffffffffffffffffffffffffffffffffffff161415610ac6576040517f08c379a0000000000000000000000000000000000000000000000000000000008152600401610abd906117e0565b60405180910390fd5b600073ffffffffffffffffffffffffffffffffffffffff168273ffffffffffffffffffffffffffffffffffffffff161415610b36576040517f08c379a0000000000000000000000000000000000000000000000000000000008152600401610b2d90611720565b60405180910390fd5b80600160008573ffffffffffffffffffffffffffffffffffffffff1673ffffffffffffffffffffffffffffffffffffffff16815260200190815260200160002060008473ffffffffffffffffffffffffffffffffffffffff1673ffffffffffffffffffffffffffffffffffffffff168152602001908152602001600020819055508173ffffffffffffffffffffffffffffffffffffffff168373ffffffffffffffffffffffffffffffffffffffff167f8c5be1e5ebec7d5bd14f71427d1e84f3dd0314c0f7b2291e5b200ac8c7c3b92583604051610c149190611840565b60405180910390a3505050565b6000610c2d84846108cf565b90507fffffffffffffffffffffffffffffffffffffffffffffffffffffffffffffffff8114610ca75781811015610c99576040517f08c379a0000000000000000000000000000000000000000000000000000000008152600401610c9090611740565b60405180910390fd5b610ca68484848403610a56565b5b50505050565b600073ffffffffffffffffffffffffffffffffffffffff168373ffffffffffffffffffffffffffffffffffffffff161415610d1d576040517f08c379a0000000000000000000000000000000000000000000000000000000008152600401610d14906117c0565b60405180910390fd5b600073ffffffffffffffffffffffffffffffffffffffff168273ffffffffffffffffffffffffffffffffffffffff161415610d8d576040517f08c379a0000000000000000000000000000000000000000000000000000000008152600401610d84906116c0565b60405180910390fd5b610d9883838361132b565b60008060008573ffffffffffffffffffffffffffffffffffffffff1673ffffffffffffffffffffffffffffffffffffffff16815260200190815260200160002054905081811015610e1e576040517f08c379a0000000000000000000000000000000000000000000000000000000008152600401610e1590611760565b60405180910390fd5b8181036000808673ffffffffffffffffffffffffffffffffffffffff1673ffffffffffffffffffffffffffffffffffffffff16815260200190815260200160002081905550816000808573ffffffffffffffffffffffffffffffffffffffff1673ffffffffffffffffffffffffffffffffffffffff1681526020019081526020016000206000828254610eb19190611892565b925050819055508273ffffffffffffffffffffffffffffffffffffffff168473ffffffffffffffffffffffffffffffffffffffff167fddf252ad1be2c89b69c2b068fc378daa952ba7f163c4a11628f55a4df523b3ef84604051610f159190611840565b60405180910390a3610f28848484611330565b50505050565b600073ffffffffffffffffffffffffffffffffffffffff168273ffffffffffffffffffffffffffffffffffffffff161415610f9e576040517f08c379a0000000000000000000000000000000000000000000000000000000008152600401610f9590611820565b60405180910390fd5b610faa6000838361132b565b8060026000828254610fbc9190611892565b92505081905550806000808473ffffffffffffffffffffffffffffffffffffffff1673ffffffffffffffffffffffffffffffffffffffff16815260200190815260200160002060008282546110119190611892565b925050819055508173ffffffffffffffffffffffffffffffffffffffff16600073ffffffffffffffffffffffffffffffffffffffff167fddf252ad1be2c89b69c2b068fc378daa952ba7f163c4a11628f55a4df523b3ef836040516110769190611840565b60405180910390a361108a60008383611330565b5050565b6000600560009054906101000a900473ffffffffffffffffffffffffffffffffffffffff16905081600560006101000a81548173ffffffffffffffffffffffffffffffffffffffff021916908373ffffffffffffffffffffffffffffffffffffffff1602179055508173ffffffffffffffffffffffffffffffffffffffff168173ffffffffffffffffffffffffffffffffffffffff167f8be0079c531659141344cd1fd0a4f28419497f9722a3daafe3b4186f6b6457e060405160405180910390a35050565b600073ffffffffffffffffffffffffffffffffffffffff168273ffffffffffffffffffffffffffffffffffffffff1614156111c4576040517f08c379a00000000000000000000000000000000000000000000000000000000081526004016111bb906117a0565b60405180910390fd5b6111d08260008361132b565b60008060008473ffffffffffffffffffffffffffffffffffffffff1673ffffffffffffffffffffffffffffffffffffffff16815260200190815260200160002054905081811015611256576040517f08c379a000000000000000000000000000000000000000000000000000000000815260040161124d906116e0565b60405180910390fd5b8181036000808573ffffffffffffffffffffffffffffffffffffffff1673ffffffffffffffffffffffffffffffffffffffff1681526020019081526020016000208190555081600260008282546112ad91906118e8565b92505081905550600073ffffffffffffffffffffffffffffffffffffffff168373ffffffffffffffffffffffffffffffffffffffff167fddf252ad1be2c89b69c2b068fc378daa952ba7f163c4a11628f55a4df523b3ef846040516113129190611840565b60405180910390a361132683600084611330565b505050565b505050565b505050565b60008135905061134481611d87565b92915050565b60008135905061135981611d9e565b92915050565b60006020828403121561137157600080fd5b600061137f84828501611335565b91505092915050565b6000806040838503121561139b57600080fd5b60006113a985828601611335565b92505060206113ba85828601611335565b9150509250929050565b6000806000606084860312156113d957600080fd5b60006113e786828701611335565b93505060206113f886828701611335565b92505060406114098682870161134a565b9150509250925092565b6000806040838503121561142657600080fd5b600061143485828601611335565b92505060206114458582860161134a565b9150509250929050565b6114588161191c565b82525050565b6114678161192e565b82525050565b600061147882611876565b6114828185611881565b9350611492818560208601611971565b61149b81611a34565b840191505092915050565b60006114b3602383611881565b91506114be82611a45565b604082019050919050565b60006114d6602283611881565b91506114e182611a94565b604082019050919050565b60006114f9602683611881565b915061150482611ae3565b604082019050919050565b600061151c602283611881565b915061152782611b32565b604082019050919050565b600061153f601d83611881565b915061154a82611b81565b602082019050919050565b6000611562602683611881565b915061156d82611baa565b604082019050919050565b6000611585602083611881565b915061159082611bf9565b602082019050919050565b60006115a8602183611881565b91506115b382611c22565b604082019050919050565b60006115cb602583611881565b91506115d682611c71565b604082019050919050565b60006115ee602483611881565b91506115f982611cc0565b604082019050919050565b6000611611602583611881565b915061161c82611d0f565b604082019050919050565b6000611634601f83611881565b915061163f82611d5e565b602082019050919050565b6116538161195a565b82525050565b61166281611964565b82525050565b600060208201905061167d600083018461144f565b92915050565b6000602082019050611698600083018461145e565b92915050565b600060208201905081810360008301526116b8818461146d565b905092915050565b600060208201905081810360008301526116d9816114a6565b9050919050565b600060208201905081810360008301526116f9816114c9565b9050919050565b60006020820190508181036000830152611719816114ec565b9050919050565b600060208201905081810360008301526117398161150f565b9050919050565b6000602082019050818103600083015261175981611532565b9050919050565b6000602082019050818103600083015261177981611555565b9050919050565b6000602082019050818103600083015261179981611578565b9050919050565b600060208201905081810360008301526117b98161159b565b9050919050565b600060208201905081810360008301526117d9816115be565b9050919050565b600060208201905081810360008301526117f9816115e1565b9050919050565b6000602082019050818103600083015261181981611604565b9050919050565b6000602082019050818103600083015261183981611627565b9050919050565b6000602082019050611855600083018461164a565b92915050565b60006020820190506118706000830184611659565b92915050565b600081519050919050565b600082825260208201905092915050565b600061189d8261195a565b91506118a88361195a565b9250827fffffffffffffffffffffffffffffffffffffffffffffffffffffffffffffffff038211156118dd576118dc6119d6565b5b828201905092915050565b60006118f38261195a565b91506118fe8361195a565b925082821015611911576119106119d6565b5b828203905092915050565b60006119278261193a565b9050919050565b60008115159050919050565b600073ffffffffffffffffffffffffffffffffffffffff82169050919050565b6000819050919050565b600060ff82169050919050565b60005b8381101561198f578082015181840152602081019050611974565b8381111561199e576000848401525b50505050565b600060028204905060018216806119bc57607f821691505b602082108114156119d0576119cf611a05565b5b50919050565b7f4e487b7100000000000000000000000000000000000000000000000000000000600052601160045260246000fd5b7f4e487b7100000000000000000000000000000000000000000000000000000000600052602260045260246000fd5b6000601f19601f8301169050919050565b7f45524332303a207472616e7366657220746f20746865207a65726f206164647260008201527f6573730000000000000000000000000000000000000000000000000000000000602082015250565b7f45524332303a206275726e20616d6f756e7420657863656564732062616c616e60008201527f6365000000000000000000000000000000000000000000000000000000000000602082015250565b7f4f776e61626c653a206e6577206f776e657220697320746865207a65726f206160008201527f6464726573730000000000000000000000000000000000000000000000000000602082015250565b7f45524332303a20617070726f766520746f20746865207a65726f20616464726560008201527f7373000000000000000000000000000000000000000000000000000000000000602082015250565b7f45524332303a20696e73756666696369656e7420616c6c6f77616e6365000000600082015250565b7f45524332303a207472616e7366657220616d6f756e742065786365656473206260008201527f616c616e63650000000000000000000000000000000000000000000000000000602082015250565b7f4f776e61626c653a2063616c6c6572206973206e6f7420746865206f776e6572600082015250565b7f45524332303a206275726e2066726f6d20746865207a65726f2061646472657360008201527f7300000000000000000000000000000000000000000000000000000000000000602082015250565b7f45524332303a207472616e736665722066726f6d20746865207a65726f20616460008201527f6472657373000000000000000000000000000000000000000000000000000000602082015250565b7f45524332303a20617070726f76652066726f6d20746865207a65726f2061646460008201527f7265737300000000000000000000000000000000000000000000000000000000602082015250565b7f45524332303a2064656372656173656420616c6c6f77616e63652062656c6f7760008201527f207a65726f000000000000000000000000000000000000000000000000000000602082015250565b7f45524332303a206d696e7420746f20746865207a65726f206164647265737300600082015250565b611d908161191c565b8114611d9b57600080fd5b50565b611da78161195a565b8114611db257600080fd5b5056fea264697066735822122066545f6a94dc0f3aa765ff1737b4c22a901a067587ce851c85b42b1e5166175d64736f6c63430008040033a264697066735822122048559581a2b5e2d0345182209abc43586f16a21693ad83f7d26ae4b6561a03fe64736f6c63430008040033",
  "linkReferences": {},
  "deployedLinkReferences": {}
}