{
  "_format": "hh-sol-artifact-1",
  "contractName": "USElection",
  "sourceName": "contracts/USElection.sol",
  "abi": [
    {
      "anonymous": false,
      "inputs": [
        {
          "indexed": false,
          "internalType": "uint256",
          "name": "winner",
          "type": "uint256"
        }
      ],
      "name": "LogElectionEnded",
      "type": "event"
    },
    {
      "anonymous": false,
      "inputs": [
        {
          "indexed": false,
          "internalType": "uint8",
          "name": "winner",
          "type": "uint8"
        },
        {
          "indexed": false,
          "internalType": "uint8",
          "name": "stateSeats",
          "type": "uint8"
        },
        {
          "indexed": false,
          "internalType": "string",
          "name": "state",
          "type": "string"
        }
      ],
      "name": "LogStateResult",
      "type": "event"
    },
    {
      "anonymous": false,
      "inputs": [
        {
          "indexed": true,
          "internalType": "address",
          "name": "previousOwner",
          "type": "address"
        },
        {
          "indexed": true,
          "internalType": "address",
          "name": "newOwner",
          "type": "address"
        }
      ],
      "name": "OwnershipTransferred",
      "type": "event"
    },
    {
      "inputs": [],
      "name": "BIDEN",
      "outputs": [
        {
          "internalType": "uint8",
          "name": "",
          "type": "uint8"
        }
      ],
      "stateMutability": "view",
      "type": "function"
    },
    {
      "inputs": [],
      "name": "TRUMP",
      "outputs": [
        {
          "internalType": "uint8",
          "name": "",
          "type": "uint8"
        }
      ],
      "stateMutability": "view",
      "type": "function"
    },
    {
      "inputs": [],
      "name": "currentLeader",
      "outputs": [
        {
          "internalType": "uint8",
          "name": "",
          "type": "uint8"
        }
      ],
      "stateMutability": "view",
      "type": "function"
    },
    {
      "inputs": [],
      "name": "electionEnded",
      "outputs": [
        {
          "internalType": "bool",
          "name": "",
          "type": "bool"
        }
      ],
      "stateMutability": "view",
      "type": "function"
    },
    {
      "inputs": [],
      "name": "endElection",
      "outputs": [],
      "stateMutability": "nonpayable",
      "type": "function"
    },
    {
      "inputs": [],
      "name": "owner",
      "outputs": [
        {
          "internalType": "address",
          "name": "",
          "type": "address"
        }
      ],
      "stateMutability": "view",
      "type": "function"
    },
    {
      "inputs": [],
      "name": "renounceOwnership",
      "outputs": [],
      "stateMutability": "nonpayable",
      "type": "function"
    },
    {
      "inputs": [
        {
          "internalType": "string",
          "name": "",
          "type": "string"
        }
      ],
      "name": "resultsSubmitted",
      "outputs": [
        {
          "internalType": "bool",
          "name": "",
          "type": "bool"
        }
      ],
      "stateMutability": "view",
      "type": "function"
    },
    {
      "inputs": [
        {
          "internalType": "uint8",
          "name": "",
          "type": "uint8"
        }
      ],
      "name": "seats",
      "outputs": [
        {
          "internalType": "uint8",
          "name": "",
          "type": "uint8"
        }
      ],
      "stateMutability": "view",
      "type": "function"
    },
    {
      "inputs": [
        {
          "components": [
            {
              "internalType": "string",
              "name": "name",
              "type": "string"
            },
            {
              "internalType": "uint256",
              "name": "votesBiden",
              "type": "uint256"
            },
            {
              "internalType": "uint256",
              "name": "votesTrump",
              "type": "uint256"
            },
            {
              "internalType": "uint8",
              "name": "stateSeats",
              "type": "uint8"
            }
          ],
          "internalType": "struct USElection.StateResult",
          "name": "result",
          "type": "tuple"
        }
      ],
      "name": "submitStateResult",
      "outputs": [],
      "stateMutability": "nonpayable",
      "type": "function"
    },
    {
      "inputs": [
        {
          "internalType": "address",
          "name": "newOwner",
          "type": "address"
        }
      ],
      "name": "transferOwnership",
      "outputs": [],
      "stateMutability": "nonpayable",
      "type": "function"
    }
  ],
  "bytecode": "0x608060405234801561001057600080fd5b5061002d61002261003260201b60201c565b61003a60201b60201c565b6100fe565b600033905090565b60008060009054906101000a900473ffffffffffffffffffffffffffffffffffffffff169050816000806101000a81548173ffffffffffffffffffffffffffffffffffffffff021916908373ffffffffffffffffffffffffffffffffffffffff1602179055508173ffffffffffffffffffffffffffffffffffffffff168173ffffffffffffffffffffffffffffffffffffffff167f8be0079c531659141344cd1fd0a4f28419497f9722a3daafe3b4186f6b6457e060405160405180910390a35050565b6111fd8061010d6000396000f3fe608060405234801561001057600080fd5b50600436106100a95760003560e01c8063715018a611610071578063715018a6146101545780638da5cb5b1461015e578063ac4bd53a1461017c578063c94ca9e31461019a578063e494a883146101b8578063f2fde38b146101d4576100a9565b80632d78d8e5146100ae57806337ad98ec146100cc57806359f78468146100fc57806369b36bd414610106578063713d87c514610124575b600080fd5b6100b66101f0565b6040516100c39190610df0565b60405180910390f35b6100e660048036038101906100e19190610abb565b6101f5565b6040516100f39190610cfa565b60405180910390f35b61010461022b565b005b61010e610352565b60405161011b9190610df0565b60405180910390f35b61013e60048036038101906101399190610b3d565b610357565b60405161014b9190610df0565b60405180910390f35b61015c610377565b005b6101666103ff565b6040516101739190610cdf565b60405180910390f35b610184610428565b6040516101919190610df0565b60405180910390f35b6101a26104fc565b6040516101af9190610cfa565b60405180910390f35b6101d260048036038101906101cd9190610afc565b61050f565b005b6101ee60048036038101906101e99190610a92565b610821565b005b600281565b6002818051602081018201805184825260208301602085012081835280955050505050506000915054906101000a900460ff1681565b610233610919565b73ffffffffffffffffffffffffffffffffffffffff166102516103ff565b73ffffffffffffffffffffffffffffffffffffffff16146102a7576040517f08c379a000000000000000000000000000000000000000000000000000000000815260040161029e90610db5565b60405180910390fd5b600060149054906101000a900460ff16156102f7576040517f08c379a00000000000000000000000000000000000000000000000000000000081526004016102ee90610d35565b60405180910390fd5b6001600060146101000a81548160ff0219169083151502179055507faacb23683ec1a0e9b52f9a6264edf58ad322ac62079d65ea7363a2d400f439f461033b610428565b6040516103489190610dd5565b60405180910390a1565b600181565b60016020528060005260406000206000915054906101000a900460ff1681565b61037f610919565b73ffffffffffffffffffffffffffffffffffffffff1661039d6103ff565b73ffffffffffffffffffffffffffffffffffffffff16146103f3576040517f08c379a00000000000000000000000000000000000000000000000000000000081526004016103ea90610db5565b60405180910390fd5b6103fd6000610921565b565b60008060009054906101000a900473ffffffffffffffffffffffffffffffffffffffff16905090565b600060016000600260ff1660ff16815260200190815260200160002060009054906101000a900460ff1660ff1660016000600160ff1660ff16815260200190815260200160002060009054906101000a900460ff1660ff16111561048f57600190506104f9565b60016000600160ff1660ff16815260200190815260200160002060009054906101000a900460ff1660ff1660016000600260ff1660ff16815260200190815260200160002060009054906101000a900460ff1660ff1611156104f457600290506104f9565b600090505b90565b600060149054906101000a900460ff1681565b610517610919565b73ffffffffffffffffffffffffffffffffffffffff166105356103ff565b73ffffffffffffffffffffffffffffffffffffffff161461058b576040517f08c379a000000000000000000000000000000000000000000000000000000000815260040161058290610db5565b60405180910390fd5b600060149054906101000a900460ff16156105db576040517f08c379a00000000000000000000000000000000000000000000000000000000081526004016105d290610d35565b60405180910390fd5b60008160600160208101906105f09190610b3d565b60ff1611610633576040517f08c379a000000000000000000000000000000000000000000000000000000000815260040161062a90610d95565b60405180910390fd5b80604001358160200135141561067e576040517f08c379a000000000000000000000000000000000000000000000000000000000815260040161067590610d75565b60405180910390fd5b60028180600001906106909190610e4b565b60405161069e929190610cc6565b908152602001604051809103902060009054906101000a900460ff16156106fa576040517f08c379a00000000000000000000000000000000000000000000000000000000081526004016106f190610d15565b60405180910390fd5b6000816040013582602001351115610715576001905061071a565b600290505b81606001602081019061072d9190610b3d565b600160008360ff1660ff16815260200190815260200160002060008282829054906101000a900460ff166107619190610f14565b92506101000a81548160ff021916908360ff1602179055506001600283806000019061078d9190610e4b565b60405161079b929190610cc6565b908152602001604051809103902060006101000a81548160ff0219169083151502179055507fa2e71fe38f1afa3762cf9d2ea7bb6a4d272a90fd6f9392f3acedd3b542046b46818360600160208101906107f59190610b3d565b8480600001906108059190610e4b565b6040516108159493929190610e0b565b60405180910390a15050565b610829610919565b73ffffffffffffffffffffffffffffffffffffffff166108476103ff565b73ffffffffffffffffffffffffffffffffffffffff161461089d576040517f08c379a000000000000000000000000000000000000000000000000000000000815260040161089490610db5565b60405180910390fd5b600073ffffffffffffffffffffffffffffffffffffffff168173ffffffffffffffffffffffffffffffffffffffff16141561090d576040517f08c379a000000000000000000000000000000000000000000000000000000000815260040161090490610d55565b60405180910390fd5b61091681610921565b50565b600033905090565b60008060009054906101000a900473ffffffffffffffffffffffffffffffffffffffff169050816000806101000a81548173ffffffffffffffffffffffffffffffffffffffff021916908373ffffffffffffffffffffffffffffffffffffffff1602179055508173ffffffffffffffffffffffffffffffffffffffff168173ffffffffffffffffffffffffffffffffffffffff167f8be0079c531659141344cd1fd0a4f28419497f9722a3daafe3b4186f6b6457e060405160405180910390a35050565b60006109f86109f384610ec7565b610ea2565b905082815260208101848484011115610a1057600080fd5b610a1b848285610fa8565b509392505050565b600081359050610a3281611199565b92915050565b600082601f830112610a4957600080fd5b8135610a598482602086016109e5565b91505092915050565b600060808284031215610a7457600080fd5b81905092915050565b600081359050610a8c816111b0565b92915050565b600060208284031215610aa457600080fd5b6000610ab284828501610a23565b91505092915050565b600060208284031215610acd57600080fd5b600082013567ffffffffffffffff811115610ae757600080fd5b610af384828501610a38565b91505092915050565b600060208284031215610b0e57600080fd5b600082013567ffffffffffffffff811115610b2857600080fd5b610b3484828501610a62565b91505092915050565b600060208284031215610b4f57600080fd5b6000610b5d84828501610a7d565b91505092915050565b610b6f81610f4b565b82525050565b610b7e81610f5d565b82525050565b6000610b908385610ef8565b9350610b9d838584610fa8565b610ba683611046565b840190509392505050565b6000610bbd8385610f09565b9350610bca838584610fa8565b82840190509392505050565b6000610be3602883610ef8565b9150610bee82611057565b604082019050919050565b6000610c06601e83610ef8565b9150610c11826110a6565b602082019050919050565b6000610c29602683610ef8565b9150610c34826110cf565b604082019050919050565b6000610c4c601583610ef8565b9150610c578261111e565b602082019050919050565b6000610c6f602083610ef8565b9150610c7a82611147565b602082019050919050565b6000610c92602083610ef8565b9150610c9d82611170565b602082019050919050565b610cb181610f96565b82525050565b610cc081610f89565b82525050565b6000610cd3828486610bb1565b91508190509392505050565b6000602082019050610cf46000830184610b66565b92915050565b6000602082019050610d0f6000830184610b75565b92915050565b60006020820190508181036000830152610d2e81610bd6565b9050919050565b60006020820190508181036000830152610d4e81610bf9565b9050919050565b60006020820190508181036000830152610d6e81610c1c565b9050919050565b60006020820190508181036000830152610d8e81610c3f565b9050919050565b60006020820190508181036000830152610dae81610c62565b9050919050565b60006020820190508181036000830152610dce81610c85565b9050919050565b6000602082019050610dea6000830184610ca8565b92915050565b6000602082019050610e056000830184610cb7565b92915050565b6000606082019050610e206000830187610cb7565b610e2d6020830186610cb7565b8181036040830152610e40818486610b84565b905095945050505050565b60008083356001602003843603038112610e6457600080fd5b80840192508235915067ffffffffffffffff821115610e8257600080fd5b602083019250600182023603831315610e9a57600080fd5b509250929050565b6000610eac610ebd565b9050610eb88282610fb7565b919050565b6000604051905090565b600067ffffffffffffffff821115610ee257610ee1611017565b5b610eeb82611046565b9050602081019050919050565b600082825260208201905092915050565b600081905092915050565b6000610f1f82610f89565b9150610f2a83610f89565b92508260ff03821115610f4057610f3f610fe8565b5b828201905092915050565b6000610f5682610f69565b9050919050565b60008115159050919050565b600073ffffffffffffffffffffffffffffffffffffffff82169050919050565b600060ff82169050919050565b6000610fa182610f89565b9050919050565b82818337600083830152505050565b610fc082611046565b810181811067ffffffffffffffff82111715610fdf57610fde611017565b5b80604052505050565b7f4e487b7100000000000000000000000000000000000000000000000000000000600052601160045260246000fd5b7f4e487b7100000000000000000000000000000000000000000000000000000000600052604160045260246000fd5b6000601f19601f8301169050919050565b7f5468697320737461746520726573756c742077617320616c726561647920737560008201527f626d697474656421000000000000000000000000000000000000000000000000602082015250565b7f54686520656c656374696f6e2068617320656e64656420616c72656164790000600082015250565b7f4f776e61626c653a206e6577206f776e657220697320746865207a65726f206160008201527f6464726573730000000000000000000000000000000000000000000000000000602082015250565b7f54686572652063616e6e6f742062652061207469650000000000000000000000600082015250565b7f537461746573206d7573742068617665206174206c6561737420312073656174600082015250565b7f4f776e61626c653a2063616c6c6572206973206e6f7420746865206f776e6572600082015250565b6111a281610f4b565b81146111ad57600080fd5b50565b6111b981610f89565b81146111c457600080fd5b5056fea26469706673582212208aee6a6a680b84a22a2eab182fb2612ab52ddada9a38c69e56080a335bb2307a64736f6c63430008040033",
  "linkReferences": {},
  "deployedLinkReferences": {}
}